{
	"SubastaScroll.sol": {
		"SubastaScroll": {
			"abi": [
				{
					"inputs": [
						{
							"internalType": "uint256",
							"name": "_duracionInicialSegundos",
							"type": "uint256"
						}
					],
					"stateMutability": "nonpayable",
					"type": "constructor"
				},
				{
					"anonymous": false,
					"inputs": [
						{
							"indexed": false,
							"internalType": "address",
							"name": "oferante",
							"type": "address"
						},
						{
							"indexed": false,
							"internalType": "uint256",
							"name": "monto",
							"type": "uint256"
						}
					],
					"name": "nuevaOferta",
					"type": "event"
				},
				{
					"anonymous": false,
					"inputs": [
						{
							"indexed": false,
							"internalType": "address",
							"name": "ganador",
							"type": "address"
						},
						{
							"indexed": false,
							"internalType": "uint256",
							"name": "monto",
							"type": "uint256"
						}
					],
					"name": "subastaFinalizada",
					"type": "event"
				},
				{
					"inputs": [],
					"name": "costoComision",
					"outputs": [
						{
							"internalType": "uint256",
							"name": "",
							"type": "uint256"
						}
					],
					"stateMutability": "view",
					"type": "function"
				},
				{
					"inputs": [
						{
							"internalType": "address",
							"name": "",
							"type": "address"
						}
					],
					"name": "deposito",
					"outputs": [
						{
							"internalType": "uint256",
							"name": "",
							"type": "uint256"
						}
					],
					"stateMutability": "view",
					"type": "function"
				},
				{
					"inputs": [],
					"name": "devolverDepositos",
					"outputs": [],
					"stateMutability": "nonpayable",
					"type": "function"
				},
				{
					"inputs": [],
					"name": "finSubasta",
					"outputs": [
						{
							"internalType": "uint256",
							"name": "",
							"type": "uint256"
						}
					],
					"stateMutability": "view",
					"type": "function"
				},
				{
					"inputs": [],
					"name": "finalizada",
					"outputs": [
						{
							"internalType": "bool",
							"name": "",
							"type": "bool"
						}
					],
					"stateMutability": "view",
					"type": "function"
				},
				{
					"inputs": [],
					"name": "finalizarSubasta",
					"outputs": [],
					"stateMutability": "nonpayable",
					"type": "function"
				},
				{
					"inputs": [
						{
							"internalType": "uint256",
							"name": "",
							"type": "uint256"
						}
					],
					"name": "listaOfertas",
					"outputs": [
						{
							"internalType": "address",
							"name": "ofertante",
							"type": "address"
						},
						{
							"internalType": "uint256",
							"name": "monto",
							"type": "uint256"
						}
					],
					"stateMutability": "view",
					"type": "function"
				},
				{
					"inputs": [],
					"name": "mejorOferta",
					"outputs": [
						{
							"internalType": "address",
							"name": "ofertante",
							"type": "address"
						},
						{
							"internalType": "uint256",
							"name": "monto",
							"type": "uint256"
						}
					],
					"stateMutability": "view",
					"type": "function"
				},
				{
					"inputs": [],
					"name": "ofertar",
					"outputs": [],
					"stateMutability": "payable",
					"type": "function"
				},
				{
					"inputs": [],
					"name": "propietario",
					"outputs": [
						{
							"internalType": "address",
							"name": "",
							"type": "address"
						}
					],
					"stateMutability": "view",
					"type": "function"
				},
				{
					"inputs": [],
					"name": "retirarExceso",
					"outputs": [],
					"stateMutability": "nonpayable",
					"type": "function"
				},
				{
					"inputs": [],
					"name": "verGanador",
					"outputs": [
						{
							"internalType": "address",
							"name": "",
							"type": "address"
						},
						{
							"internalType": "uint256",
							"name": "",
							"type": "uint256"
						}
					],
					"stateMutability": "view",
					"type": "function"
				},
				{
					"inputs": [],
					"name": "verHistorial",
					"outputs": [
						{
							"components": [
								{
									"internalType": "address",
									"name": "ofertante",
									"type": "address"
								},
								{
									"internalType": "uint256",
									"name": "monto",
									"type": "uint256"
								}
							],
							"internalType": "struct SubastaScroll.Oferta[]",
							"name": "",
							"type": "tuple[]"
						}
					],
					"stateMutability": "view",
					"type": "function"
				}
			],
			"devdoc": {
				"kind": "dev",
				"methods": {},
				"version": 1
			},
			"evm": {
				"assembly": "    /* \"SubastaScroll.sol\":61:4096  contract SubastaScroll {... */\n  mstore(0x40, 0x80)\n    /* \"SubastaScroll.sol\":551:552  2 */\n  0x02\n    /* \"SubastaScroll.sol\":523:552  uint public costoComision = 2 */\n  0x07\n  sstore\n    /* \"SubastaScroll.sol\":1471:1697  constructor(uint _duracionInicialSegundos) {... */\n  callvalue\n  dup1\n  iszero\n  tag_1\n  jumpi\n  revert(0x00, 0x00)\ntag_1:\n  pop\n  mload(0x40)\n  sub(codesize, bytecodeSize)\n  dup1\n  bytecodeSize\n  dup4\n  codecopy\n  dup2\n  dup2\n  add\n  0x40\n  mstore\n  dup2\n  add\n  swap1\n  tag_2\n  swap2\n  swap1\n  tag_3\n  jump\t// in\ntag_2:\n    /* \"SubastaScroll.sol\":1538:1548  msg.sender */\n  caller\n    /* \"SubastaScroll.sol\":1525:1536  propietario */\n  0x00\n  0x00\n    /* \"SubastaScroll.sol\":1525:1548  propietario= msg.sender */\n  0x0100\n  exp\n  dup2\n  sload\n  dup2\n  0xffffffffffffffffffffffffffffffffffffffff\n  mul\n  not\n  and\n  swap1\n  dup4\n  0xffffffffffffffffffffffffffffffffffffffff\n  and\n  mul\n  or\n  swap1\n  sstore\n  pop\n    /* \"SubastaScroll.sol\":1590:1614  _duracionInicialSegundos */\n  dup1\n    /* \"SubastaScroll.sol\":1572:1587  block.timestamp */\n  timestamp\n    /* \"SubastaScroll.sol\":1572:1614  block.timestamp + _duracionInicialSegundos */\n  tag_6\n  swap2\n  swap1\n  tag_7\n  jump\t// in\ntag_6:\n    /* \"SubastaScroll.sol\":1559:1569  finSubasta */\n  0x01\n    /* \"SubastaScroll.sol\":1559:1614  finSubasta = block.timestamp + _duracionInicialSegundos */\n  dup2\n  swap1\n  sstore\n  pop\n    /* \"SubastaScroll.sol\":1639:1660  Oferta(address(0), 0) */\n  mload(0x40)\n  dup1\n  0x40\n  add\n  0x40\n  mstore\n  dup1\n    /* \"SubastaScroll.sol\":1654:1655  0 */\n  0x00\n    /* \"SubastaScroll.sol\":1639:1660  Oferta(address(0), 0) */\n  0xffffffffffffffffffffffffffffffffffffffff\n  and\n  dup2\n  mstore\n  0x20\n  add\n    /* \"SubastaScroll.sol\":1658:1659  0 */\n  0x00\n    /* \"SubastaScroll.sol\":1639:1660  Oferta(address(0), 0) */\n  dup2\n  mstore\n  pop\n    /* \"SubastaScroll.sol\":1625:1636  mejorOferta */\n  0x03\n    /* \"SubastaScroll.sol\":1625:1660  mejorOferta = Oferta(address(0), 0) */\n  0x00\n  dup3\n  add\n  mload\n  dup2\n  0x00\n  add\n  exp(0x0100, 0x00)\n  dup2\n  sload\n  dup2\n  0xffffffffffffffffffffffffffffffffffffffff\n  mul\n  not\n  and\n  swap1\n  dup4\n  0xffffffffffffffffffffffffffffffffffffffff\n  and\n  mul\n  or\n  swap1\n  sstore\n  pop\n  0x20\n  dup3\n  add\n  mload\n  dup2\n  0x01\n  add\n  sstore\n  swap1\n  pop\n  pop\n    /* \"SubastaScroll.sol\":1684:1689  false */\n  0x00\n    /* \"SubastaScroll.sol\":1671:1681  finalizada */\n  0x02\n  0x00\n    /* \"SubastaScroll.sol\":1671:1689  finalizada = false */\n  0x0100\n  exp\n  dup2\n  sload\n  dup2\n  0xff\n  mul\n  not\n  and\n  swap1\n  dup4\n  iszero\n  iszero\n  mul\n  or\n  swap1\n  sstore\n  pop\n    /* \"SubastaScroll.sol\":1471:1697  constructor(uint _duracionInicialSegundos) {... */\n  pop\n    /* \"SubastaScroll.sol\":61:4096  contract SubastaScroll {... */\n  jump(tag_8)\n    /* \"#utility.yul\":88:205   */\ntag_10:\n    /* \"#utility.yul\":197:198   */\n  0x00\n    /* \"#utility.yul\":194:195   */\n  0x00\n    /* \"#utility.yul\":187:199   */\n  revert\n    /* \"#utility.yul\":334:411   */\ntag_12:\n    /* \"#utility.yul\":371:378   */\n  0x00\n    /* \"#utility.yul\":400:405   */\n  dup2\n    /* \"#utility.yul\":389:405   */\n  swap1\n  pop\n    /* \"#utility.yul\":334:411   */\n  swap2\n  swap1\n  pop\n  jump\t// out\n    /* \"#utility.yul\":417:539   */\ntag_13:\n    /* \"#utility.yul\":490:514   */\n  tag_22\n    /* \"#utility.yul\":508:513   */\n  dup2\n    /* \"#utility.yul\":490:514   */\n  tag_12\n  jump\t// in\ntag_22:\n    /* \"#utility.yul\":483:488   */\n  dup2\n    /* \"#utility.yul\":480:515   */\n  eq\n    /* \"#utility.yul\":470:533   */\n  tag_23\n  jumpi\n    /* \"#utility.yul\":529:530   */\n  0x00\n    /* \"#utility.yul\":526:527   */\n  0x00\n    /* \"#utility.yul\":519:531   */\n  revert\n    /* \"#utility.yul\":470:533   */\ntag_23:\n    /* \"#utility.yul\":417:539   */\n  pop\n  jump\t// out\n    /* \"#utility.yul\":545:688   */\ntag_14:\n    /* \"#utility.yul\":602:607   */\n  0x00\n    /* \"#utility.yul\":633:639   */\n  dup2\n    /* \"#utility.yul\":627:640   */\n  mload\n    /* \"#utility.yul\":618:640   */\n  swap1\n  pop\n    /* \"#utility.yul\":649:682   */\n  tag_25\n    /* \"#utility.yul\":676:681   */\n  dup2\n    /* \"#utility.yul\":649:682   */\n  tag_13\n  jump\t// in\ntag_25:\n    /* \"#utility.yul\":545:688   */\n  swap3\n  swap2\n  pop\n  pop\n  jump\t// out\n    /* \"#utility.yul\":694:1045   */\ntag_3:\n    /* \"#utility.yul\":764:770   */\n  0x00\n    /* \"#utility.yul\":813:815   */\n  0x20\n    /* \"#utility.yul\":801:810   */\n  dup3\n    /* \"#utility.yul\":792:799   */\n  dup5\n    /* \"#utility.yul\":788:811   */\n  sub\n    /* \"#utility.yul\":784:816   */\n  slt\n    /* \"#utility.yul\":781:900   */\n  iszero\n  tag_27\n  jumpi\n    /* \"#utility.yul\":819:898   */\n  tag_28\n  tag_10\n  jump\t// in\ntag_28:\n    /* \"#utility.yul\":781:900   */\ntag_27:\n    /* \"#utility.yul\":939:940   */\n  0x00\n    /* \"#utility.yul\":964:1028   */\n  tag_29\n    /* \"#utility.yul\":1020:1027   */\n  dup5\n    /* \"#utility.yul\":1011:1017   */\n  dup3\n    /* \"#utility.yul\":1000:1009   */\n  dup6\n    /* \"#utility.yul\":996:1018   */\n  add\n    /* \"#utility.yul\":964:1028   */\n  tag_14\n  jump\t// in\ntag_29:\n    /* \"#utility.yul\":954:1028   */\n  swap2\n  pop\n    /* \"#utility.yul\":910:1038   */\n  pop\n    /* \"#utility.yul\":694:1045   */\n  swap3\n  swap2\n  pop\n  pop\n  jump\t// out\n    /* \"#utility.yul\":1051:1231   */\ntag_15:\n    /* \"#utility.yul\":1099:1176   */\n  0x4e487b7100000000000000000000000000000000000000000000000000000000\n    /* \"#utility.yul\":1096:1097   */\n  0x00\n    /* \"#utility.yul\":1089:1177   */\n  mstore\n    /* \"#utility.yul\":1196:1200   */\n  0x11\n    /* \"#utility.yul\":1193:1194   */\n  0x04\n    /* \"#utility.yul\":1186:1201   */\n  mstore\n    /* \"#utility.yul\":1220:1224   */\n  0x24\n    /* \"#utility.yul\":1217:1218   */\n  0x00\n    /* \"#utility.yul\":1210:1225   */\n  revert\n    /* \"#utility.yul\":1237:1428   */\ntag_7:\n    /* \"#utility.yul\":1277:1280   */\n  0x00\n    /* \"#utility.yul\":1296:1316   */\n  tag_32\n    /* \"#utility.yul\":1314:1315   */\n  dup3\n    /* \"#utility.yul\":1296:1316   */\n  tag_12\n  jump\t// in\ntag_32:\n    /* \"#utility.yul\":1291:1316   */\n  swap2\n  pop\n    /* \"#utility.yul\":1330:1350   */\n  tag_33\n    /* \"#utility.yul\":1348:1349   */\n  dup4\n    /* \"#utility.yul\":1330:1350   */\n  tag_12\n  jump\t// in\ntag_33:\n    /* \"#utility.yul\":1325:1350   */\n  swap3\n  pop\n    /* \"#utility.yul\":1373:1374   */\n  dup3\n    /* \"#utility.yul\":1370:1371   */\n  dup3\n    /* \"#utility.yul\":1366:1375   */\n  add\n    /* \"#utility.yul\":1359:1375   */\n  swap1\n  pop\n    /* \"#utility.yul\":1394:1397   */\n  dup1\n    /* \"#utility.yul\":1391:1392   */\n  dup3\n    /* \"#utility.yul\":1388:1398   */\n  gt\n    /* \"#utility.yul\":1385:1421   */\n  iszero\n  tag_34\n  jumpi\n    /* \"#utility.yul\":1401:1419   */\n  tag_35\n  tag_15\n  jump\t// in\ntag_35:\n    /* \"#utility.yul\":1385:1421   */\ntag_34:\n    /* \"#utility.yul\":1237:1428   */\n  swap3\n  swap2\n  pop\n  pop\n  jump\t// out\n    /* \"SubastaScroll.sol\":61:4096  contract SubastaScroll {... */\ntag_8:\n  dataSize(sub_0)\n  dup1\n  dataOffset(sub_0)\n  0x00\n  codecopy\n  0x00\n  return\nstop\n\nsub_0: assembly {\n        /* \"SubastaScroll.sol\":61:4096  contract SubastaScroll {... */\n      mstore(0x40, 0x80)\n      jumpi(tag_1, lt(calldatasize, 0x04))\n      shr(0xe0, calldataload(0x00))\n      dup1\n      0x8f9607cb\n      gt\n      tag_15\n      jumpi\n      dup1\n      0xc1902319\n      gt\n      tag_16\n      jumpi\n      dup1\n      0xc1902319\n      eq\n      tag_11\n      jumpi\n      dup1\n      0xe97edacd\n      eq\n      tag_12\n      jumpi\n      dup1\n      0xf3e3b4a1\n      eq\n      tag_13\n      jumpi\n      dup1\n      0xffbfc189\n      eq\n      tag_14\n      jumpi\n      jump(tag_1)\n    tag_16:\n      dup1\n      0x8f9607cb\n      eq\n      tag_8\n      jumpi\n      dup1\n      0xa716ce52\n      eq\n      tag_9\n      jumpi\n      dup1\n      0xacfc9f98\n      eq\n      tag_10\n      jumpi\n      jump(tag_1)\n    tag_15:\n      dup1\n      0x99c6aa\n      eq\n      tag_2\n      jumpi\n      dup1\n      0x0851eac2\n      eq\n      tag_3\n      jumpi\n      dup1\n      0x3c4f81cd\n      eq\n      tag_4\n      jumpi\n      dup1\n      0x3ec059d7\n      eq\n      tag_5\n      jumpi\n      dup1\n      0x5298a3c4\n      eq\n      tag_6\n      jumpi\n      dup1\n      0x5b31c15c\n      eq\n      tag_7\n      jumpi\n    tag_1:\n      revert(0x00, 0x00)\n        /* \"SubastaScroll.sol\":409:437  Oferta[] public listaOfertas */\n    tag_2:\n      callvalue\n      dup1\n      iszero\n      tag_17\n      jumpi\n      revert(0x00, 0x00)\n    tag_17:\n      pop\n      tag_18\n      0x04\n      dup1\n      calldatasize\n      sub\n      dup2\n      add\n      swap1\n      tag_19\n      swap2\n      swap1\n      tag_20\n      jump\t// in\n    tag_19:\n      tag_21\n      jump\t// in\n    tag_18:\n      mload(0x40)\n      tag_22\n      swap3\n      swap2\n      swap1\n      tag_23\n      jump\t// in\n    tag_22:\n      mload(0x40)\n      dup1\n      swap2\n      sub\n      swap1\n      return\n        /* \"SubastaScroll.sol\":3669:3753  function finalizarSubasta() external verificarPropietarioMod subastaFinalizadaMod {} */\n    tag_3:\n      callvalue\n      dup1\n      iszero\n      tag_24\n      jumpi\n      revert(0x00, 0x00)\n    tag_24:\n      pop\n      tag_25\n      tag_26\n      jump\t// in\n    tag_25:\n      stop\n        /* \"SubastaScroll.sol\":155:181  address public propietario */\n    tag_4:\n      callvalue\n      dup1\n      iszero\n      tag_27\n      jumpi\n      revert(0x00, 0x00)\n    tag_27:\n      pop\n      tag_28\n      tag_29\n      jump\t// in\n    tag_28:\n      mload(0x40)\n      tag_30\n      swap2\n      swap1\n      tag_31\n      jump\t// in\n    tag_30:\n      mload(0x40)\n      dup1\n      swap2\n      sub\n      swap1\n      return\n        /* \"SubastaScroll.sol\":1754:2709  function ofertar () external payable subastaAbiertaMod {... */\n    tag_5:\n      tag_32\n      tag_33\n      jump\t// in\n    tag_32:\n      stop\n        /* \"SubastaScroll.sol\":3164:3622  function devolverDepositos() external subastaFinalizadaMod {... */\n    tag_6:\n      callvalue\n      dup1\n      iszero\n      tag_34\n      jumpi\n      revert(0x00, 0x00)\n    tag_34:\n      pop\n      tag_35\n      tag_36\n      jump\t// in\n    tag_35:\n      stop\n        /* \"SubastaScroll.sol\":188:210  uint public finSubasta */\n    tag_7:\n      callvalue\n      dup1\n      iszero\n      tag_37\n      jumpi\n      revert(0x00, 0x00)\n    tag_37:\n      pop\n      tag_38\n      tag_39\n      jump\t// in\n    tag_38:\n      mload(0x40)\n      tag_40\n      swap2\n      swap1\n      tag_41\n      jump\t// in\n    tag_40:\n      mload(0x40)\n      dup1\n      swap2\n      sub\n      swap1\n      return\n        /* \"SubastaScroll.sol\":3796:3942  function verGanador() external view subastaFinalizadaMod returns(address,uint){... */\n    tag_8:\n      callvalue\n      dup1\n      iszero\n      tag_42\n      jumpi\n      revert(0x00, 0x00)\n    tag_42:\n      pop\n      tag_43\n      tag_44\n      jump\t// in\n    tag_43:\n      mload(0x40)\n      tag_45\n      swap3\n      swap2\n      swap1\n      tag_23\n      jump\t// in\n    tag_45:\n      mload(0x40)\n      dup1\n      swap2\n      sub\n      swap1\n      return\n        /* \"SubastaScroll.sol\":3987:4089  function verHistorial() external view returns (Oferta[] memory) {... */\n    tag_9:\n      callvalue\n      dup1\n      iszero\n      tag_46\n      jumpi\n      revert(0x00, 0x00)\n    tag_46:\n      pop\n      tag_47\n      tag_48\n      jump\t// in\n    tag_47:\n      mload(0x40)\n      tag_49\n      swap2\n      swap1\n      tag_50\n      jump\t// in\n    tag_49:\n      mload(0x40)\n      dup1\n      swap2\n      sub\n      swap1\n      return\n        /* \"SubastaScroll.sol\":377:402  Oferta public mejorOferta */\n    tag_10:\n      callvalue\n      dup1\n      iszero\n      tag_51\n      jumpi\n      revert(0x00, 0x00)\n    tag_51:\n      pop\n      tag_52\n      tag_53\n      jump\t// in\n    tag_52:\n      mload(0x40)\n      tag_54\n      swap3\n      swap2\n      swap1\n      tag_23\n      jump\t// in\n    tag_54:\n      mload(0x40)\n      dup1\n      swap2\n      sub\n      swap1\n      return\n        /* \"SubastaScroll.sol\":2753:3115  function retirarExceso() external subastaAbiertaMod {... */\n    tag_11:\n      callvalue\n      dup1\n      iszero\n      tag_55\n      jumpi\n      revert(0x00, 0x00)\n    tag_55:\n      pop\n      tag_56\n      tag_57\n      jump\t// in\n    tag_56:\n      stop\n        /* \"SubastaScroll.sol\":523:552  uint public costoComision = 2 */\n    tag_12:\n      callvalue\n      dup1\n      iszero\n      tag_58\n      jumpi\n      revert(0x00, 0x00)\n    tag_58:\n      pop\n      tag_59\n      tag_60\n      jump\t// in\n    tag_59:\n      mload(0x40)\n      tag_61\n      swap2\n      swap1\n      tag_41\n      jump\t// in\n    tag_61:\n      mload(0x40)\n      dup1\n      swap2\n      sub\n      swap1\n      return\n        /* \"SubastaScroll.sol\":444:485  mapping (address => uint) public deposito */\n    tag_13:\n      callvalue\n      dup1\n      iszero\n      tag_62\n      jumpi\n      revert(0x00, 0x00)\n    tag_62:\n      pop\n      tag_63\n      0x04\n      dup1\n      calldatasize\n      sub\n      dup2\n      add\n      swap1\n      tag_64\n      swap2\n      swap1\n      tag_65\n      jump\t// in\n    tag_64:\n      tag_66\n      jump\t// in\n    tag_63:\n      mload(0x40)\n      tag_67\n      swap2\n      swap1\n      tag_41\n      jump\t// in\n    tag_67:\n      mload(0x40)\n      dup1\n      swap2\n      sub\n      swap1\n      return\n        /* \"SubastaScroll.sol\":217:239  bool public finalizada */\n    tag_14:\n      callvalue\n      dup1\n      iszero\n      tag_68\n      jumpi\n      revert(0x00, 0x00)\n    tag_68:\n      pop\n      tag_69\n      tag_70\n      jump\t// in\n    tag_69:\n      mload(0x40)\n      tag_71\n      swap2\n      swap1\n      tag_72\n      jump\t// in\n    tag_71:\n      mload(0x40)\n      dup1\n      swap2\n      sub\n      swap1\n      return\n        /* \"SubastaScroll.sol\":409:437  Oferta[] public listaOfertas */\n    tag_21:\n      0x05\n      dup2\n      dup2\n      sload\n      dup2\n      lt\n      tag_73\n      jumpi\n      0x00\n      dup1\n      revert\n    tag_73:\n      swap1\n      0x00\n      mstore\n      keccak256(0x00, 0x20)\n      swap1\n      0x02\n      mul\n      add\n      0x00\n      swap2\n      pop\n      swap1\n      pop\n      dup1\n      0x00\n      add\n      0x00\n      swap1\n      sload\n      swap1\n      0x0100\n      exp\n      swap1\n      div\n      0xffffffffffffffffffffffffffffffffffffffff\n      and\n      swap1\n      dup1\n      0x01\n      add\n      sload\n      swap1\n      pop\n      dup3\n      jump\t// out\n        /* \"SubastaScroll.sol\":3669:3753  function finalizarSubasta() external verificarPropietarioMod subastaFinalizadaMod {} */\n    tag_26:\n        /* \"SubastaScroll.sol\":866:877  propietario */\n      0x00\n      0x00\n      swap1\n      sload\n      swap1\n      0x0100\n      exp\n      swap1\n      div\n      0xffffffffffffffffffffffffffffffffffffffff\n      and\n        /* \"SubastaScroll.sol\":852:877  msg.sender == propietario */\n      0xffffffffffffffffffffffffffffffffffffffff\n      and\n        /* \"SubastaScroll.sol\":852:862  msg.sender */\n      caller\n        /* \"SubastaScroll.sol\":852:877  msg.sender == propietario */\n      0xffffffffffffffffffffffffffffffffffffffff\n      and\n      eq\n        /* \"SubastaScroll.sol\":843:918  require (msg.sender == propietario, \"No tienes los privilegios necesarios\") */\n      tag_76\n      jumpi\n      mload(0x40)\n      0x08c379a000000000000000000000000000000000000000000000000000000000\n      dup2\n      mstore\n      0x04\n      add\n      tag_77\n      swap1\n      tag_78\n      jump\t// in\n    tag_77:\n      mload(0x40)\n      dup1\n      swap2\n      sub\n      swap1\n      revert\n    tag_76:\n        /* \"SubastaScroll.sol\":1363:1373  finSubasta */\n      sload(0x01)\n        /* \"SubastaScroll.sol\":1344:1359  block.timestamp */\n      timestamp\n        /* \"SubastaScroll.sol\":1344:1373  block.timestamp >= finSubasta */\n      lt\n      iszero\n        /* \"SubastaScroll.sol\":1344:1387  block.timestamp >= finSubasta || finalizada */\n      dup1\n      tag_80\n      jumpi\n      pop\n        /* \"SubastaScroll.sol\":1377:1387  finalizada */\n      0x02\n      0x00\n      swap1\n      sload\n      swap1\n      0x0100\n      exp\n      swap1\n      div\n      0xff\n      and\n        /* \"SubastaScroll.sol\":1344:1387  block.timestamp >= finSubasta || finalizada */\n    tag_80:\n        /* \"SubastaScroll.sol\":1336:1421  require(block.timestamp >= finSubasta || finalizada, \"La subasta no ha sido cerrada\") */\n      tag_81\n      jumpi\n      mload(0x40)\n      0x08c379a000000000000000000000000000000000000000000000000000000000\n      dup2\n      mstore\n      0x04\n      add\n      tag_82\n      swap1\n      tag_83\n      jump\t// in\n    tag_82:\n      mload(0x40)\n      dup1\n      swap2\n      sub\n      swap1\n      revert\n    tag_81:\n        /* \"SubastaScroll.sol\":3669:3753  function finalizarSubasta() external verificarPropietarioMod subastaFinalizadaMod {} */\n      jump\t// out\n        /* \"SubastaScroll.sol\":155:181  address public propietario */\n    tag_29:\n      0x00\n      0x00\n      swap1\n      sload\n      swap1\n      0x0100\n      exp\n      swap1\n      div\n      0xffffffffffffffffffffffffffffffffffffffff\n      and\n      dup2\n      jump\t// out\n        /* \"SubastaScroll.sol\":1754:2709  function ofertar () external payable subastaAbiertaMod {... */\n    tag_33:\n        /* \"SubastaScroll.sol\":1137:1147  finSubasta */\n      sload(0x01)\n        /* \"SubastaScroll.sol\":1119:1134  block.timestamp */\n      timestamp\n        /* \"SubastaScroll.sol\":1119:1147  block.timestamp < finSubasta */\n      lt\n        /* \"SubastaScroll.sol\":1111:1179  require(block.timestamp < finSubasta, \"La subasta ya ha finalizado\") */\n      tag_86\n      jumpi\n      mload(0x40)\n      0x08c379a000000000000000000000000000000000000000000000000000000000\n      dup2\n      mstore\n      0x04\n      add\n      tag_87\n      swap1\n      tag_88\n      jump\t// in\n    tag_87:\n      mload(0x40)\n      dup1\n      swap2\n      sub\n      swap1\n      revert\n    tag_86:\n        /* \"SubastaScroll.sol\":1199:1209  finalizada */\n      0x02\n      0x00\n      swap1\n      sload\n      swap1\n      0x0100\n      exp\n      swap1\n      div\n      0xff\n      and\n        /* \"SubastaScroll.sol\":1198:1209  !finalizada */\n      iszero\n        /* \"SubastaScroll.sol\":1190:1235  require(!finalizada, \"La subasta finalizada\") */\n      tag_89\n      jumpi\n      mload(0x40)\n      0x08c379a000000000000000000000000000000000000000000000000000000000\n      dup2\n      mstore\n      0x04\n      add\n      tag_90\n      swap1\n      tag_91\n      jump\t// in\n    tag_90:\n      mload(0x40)\n      dup1\n      swap2\n      sub\n      swap1\n      revert\n    tag_89:\n        /* \"SubastaScroll.sol\":1840:1841  0 */\n      0x00\n        /* \"SubastaScroll.sol\":1828:1837  msg.value */\n      callvalue\n        /* \"SubastaScroll.sol\":1828:1841  msg.value > 0 */\n      gt\n        /* \"SubastaScroll.sol\":1820:1862  require(msg.value > 0, \"Debes enviar ETH\") */\n      tag_93\n      jumpi\n      mload(0x40)\n      0x08c379a000000000000000000000000000000000000000000000000000000000\n      dup2\n      mstore\n      0x04\n      add\n      tag_94\n      swap1\n      tag_95\n      jump\t// in\n    tag_94:\n      mload(0x40)\n      dup1\n      swap2\n      sub\n      swap1\n      revert\n    tag_93:\n        /* \"SubastaScroll.sol\":1875:1897  uint _incrementoMinimo */\n      0x00\n        /* \"SubastaScroll.sol\":1926:1929  100 */\n      0x64\n        /* \"SubastaScroll.sol\":1921:1924  105 */\n      0x69\n        /* \"SubastaScroll.sol\":1901:1912  mejorOferta */\n      0x03\n        /* \"SubastaScroll.sol\":1901:1918  mejorOferta.monto */\n      0x01\n      add\n      sload\n        /* \"SubastaScroll.sol\":1901:1924  mejorOferta.monto * 105 */\n      tag_96\n      swap2\n      swap1\n      tag_97\n      jump\t// in\n    tag_96:\n        /* \"SubastaScroll.sol\":1900:1929  (mejorOferta.monto * 105)/100 */\n      tag_98\n      swap2\n      swap1\n      tag_99\n      jump\t// in\n    tag_98:\n        /* \"SubastaScroll.sol\":1875:1929  uint _incrementoMinimo = (mejorOferta.monto * 105)/100 */\n      swap1\n      pop\n        /* \"SubastaScroll.sol\":2011:2012  0 */\n      0x00\n        /* \"SubastaScroll.sol\":1990:2001  mejorOferta */\n      0x03\n        /* \"SubastaScroll.sol\":1990:2007  mejorOferta.monto */\n      0x01\n      add\n      sload\n        /* \"SubastaScroll.sol\":1990:2012  mejorOferta.monto == 0 */\n      sub\n        /* \"SubastaScroll.sol\":1986:2062  if (mejorOferta.monto == 0) {... */\n      tag_100\n      jumpi\n        /* \"SubastaScroll.sol\":2049:2050  1 */\n      0x01\n        /* \"SubastaScroll.sol\":2029:2050  _incrementoMinimo = 1 */\n      swap1\n      pop\n        /* \"SubastaScroll.sol\":1986:2062  if (mejorOferta.monto == 0) {... */\n    tag_100:\n        /* \"SubastaScroll.sol\":2147:2164  _incrementoMinimo */\n      dup1\n        /* \"SubastaScroll.sol\":2134:2143  msg.value */\n      callvalue\n        /* \"SubastaScroll.sol\":2134:2164  msg.value >= _incrementoMinimo */\n      lt\n      iszero\n        /* \"SubastaScroll.sol\":2125:2219  require (msg.value >= _incrementoMinimo, \"la oferta debe superar al menos un 5% de la actual\") */\n      tag_101\n      jumpi\n      mload(0x40)\n      0x08c379a000000000000000000000000000000000000000000000000000000000\n      dup2\n      mstore\n      0x04\n      add\n      tag_102\n      swap1\n      tag_103\n      jump\t// in\n    tag_102:\n      mload(0x40)\n      dup1\n      swap2\n      sub\n      swap1\n      revert\n    tag_101:\n        /* \"SubastaScroll.sol\":2284:2293  msg.value */\n      callvalue\n        /* \"SubastaScroll.sol\":2260:2268  deposito */\n      0x06\n        /* \"SubastaScroll.sol\":2260:2280  deposito[msg.sender] */\n      0x00\n        /* \"SubastaScroll.sol\":2269:2279  msg.sender */\n      caller\n        /* \"SubastaScroll.sol\":2260:2280  deposito[msg.sender] */\n      0xffffffffffffffffffffffffffffffffffffffff\n      and\n      0xffffffffffffffffffffffffffffffffffffffff\n      and\n      dup2\n      mstore\n      0x20\n      add\n      swap1\n      dup2\n      mstore\n      0x20\n      add\n      0x00\n      keccak256\n      0x00\n        /* \"SubastaScroll.sol\":2260:2293  deposito[msg.sender] += msg.value */\n      dup3\n      dup3\n      sload\n      tag_104\n      swap2\n      swap1\n      tag_105\n      jump\t// in\n    tag_104:\n      swap3\n      pop\n      pop\n      dup2\n      swap1\n      sstore\n      pop\n        /* \"SubastaScroll.sol\":2318:2347  Oferta(msg.sender, msg.value) */\n      mload(0x40)\n      dup1\n      0x40\n      add\n      0x40\n      mstore\n      dup1\n        /* \"SubastaScroll.sol\":2325:2335  msg.sender */\n      caller\n        /* \"SubastaScroll.sol\":2318:2347  Oferta(msg.sender, msg.value) */\n      0xffffffffffffffffffffffffffffffffffffffff\n      and\n      dup2\n      mstore\n      0x20\n      add\n        /* \"SubastaScroll.sol\":2337:2346  msg.value */\n      callvalue\n        /* \"SubastaScroll.sol\":2318:2347  Oferta(msg.sender, msg.value) */\n      dup2\n      mstore\n      pop\n        /* \"SubastaScroll.sol\":2304:2315  mejorOferta */\n      0x03\n        /* \"SubastaScroll.sol\":2304:2347  mejorOferta = Oferta(msg.sender, msg.value) */\n      0x00\n      dup3\n      add\n      mload\n      dup2\n      0x00\n      add\n      exp(0x0100, 0x00)\n      dup2\n      sload\n      dup2\n      0xffffffffffffffffffffffffffffffffffffffff\n      mul\n      not\n      and\n      swap1\n      dup4\n      0xffffffffffffffffffffffffffffffffffffffff\n      and\n      mul\n      or\n      swap1\n      sstore\n      pop\n      0x20\n      dup3\n      add\n      mload\n      dup2\n      0x01\n      add\n      sstore\n      swap1\n      pop\n      pop\n        /* \"SubastaScroll.sol\":2403:2415  listaOfertas */\n      0x05\n        /* \"SubastaScroll.sol\":2421:2432  mejorOferta */\n      0x03\n        /* \"SubastaScroll.sol\":2403:2433  listaOfertas.push(mejorOferta) */\n      swap1\n      dup1\n      0x01\n      dup2\n      sload\n      add\n      dup1\n      dup3\n      sstore\n      dup1\n      swap2\n      pop\n      pop\n      0x01\n      swap1\n      sub\n      swap1\n      0x00\n      mstore\n      keccak256(0x00, 0x20)\n      swap1\n      0x02\n      mul\n      add\n      0x00\n      swap1\n      swap2\n      swap1\n      swap2\n      swap1\n      swap2\n      pop\n      0x00\n      dup3\n      add\n      0x00\n      swap1\n      sload\n      swap1\n      0x0100\n      exp\n      swap1\n      div\n      0xffffffffffffffffffffffffffffffffffffffff\n      and\n      dup2\n      0x00\n      add\n      exp(0x0100, 0x00)\n      dup2\n      sload\n      dup2\n      0xffffffffffffffffffffffffffffffffffffffff\n      mul\n      not\n      and\n      swap1\n      dup4\n      0xffffffffffffffffffffffffffffffffffffffff\n      and\n      mul\n      or\n      swap1\n      sstore\n      pop\n      0x01\n      dup3\n      add\n      sload\n      dup2\n      0x01\n      add\n      sstore\n      pop\n      pop\n        /* \"SubastaScroll.sol\":2538:2548  10 minutes */\n      0x0258\n        /* \"SubastaScroll.sol\":2519:2534  block.timestamp */\n      timestamp\n        /* \"SubastaScroll.sol\":2506:2516  finSubasta */\n      sload(0x01)\n        /* \"SubastaScroll.sol\":2506:2534  finSubasta - block.timestamp */\n      tag_107\n      swap2\n      swap1\n      tag_108\n      jump\t// in\n    tag_107:\n        /* \"SubastaScroll.sol\":2506:2548  finSubasta - block.timestamp <= 10 minutes */\n      gt\n        /* \"SubastaScroll.sol\":2502:2601  if (finSubasta - block.timestamp <= 10 minutes) {... */\n      tag_109\n      jumpi\n        /* \"SubastaScroll.sol\":2579:2589  10 minutes */\n      0x0258\n        /* \"SubastaScroll.sol\":2565:2575  finSubasta */\n      0x01\n      0x00\n        /* \"SubastaScroll.sol\":2565:2589  finSubasta += 10 minutes */\n      dup3\n      dup3\n      sload\n      tag_110\n      swap2\n      swap1\n      tag_105\n      jump\t// in\n    tag_110:\n      swap3\n      pop\n      pop\n      dup2\n      swap1\n      sstore\n      pop\n        /* \"SubastaScroll.sol\":2502:2601  if (finSubasta - block.timestamp <= 10 minutes) {... */\n    tag_109:\n        /* \"SubastaScroll.sol\":2665:2699  nuevaOferta(msg.sender, msg.value) */\n      0x95857b38ee8dc53af505aa6f2e904ed3e8bc1605141a9ac1a507549a28d5cdd9\n        /* \"SubastaScroll.sol\":2677:2687  msg.sender */\n      caller\n        /* \"SubastaScroll.sol\":2689:2698  msg.value */\n      callvalue\n        /* \"SubastaScroll.sol\":2665:2699  nuevaOferta(msg.sender, msg.value) */\n      mload(0x40)\n      tag_111\n      swap3\n      swap2\n      swap1\n      tag_23\n      jump\t// in\n    tag_111:\n      mload(0x40)\n      dup1\n      swap2\n      sub\n      swap1\n      log1\n        /* \"SubastaScroll.sol\":1809:2709  {... */\n      pop\n        /* \"SubastaScroll.sol\":1754:2709  function ofertar () external payable subastaAbiertaMod {... */\n      jump\t// out\n        /* \"SubastaScroll.sol\":3164:3622  function devolverDepositos() external subastaFinalizadaMod {... */\n    tag_36:\n        /* \"SubastaScroll.sol\":1363:1373  finSubasta */\n      sload(0x01)\n        /* \"SubastaScroll.sol\":1344:1359  block.timestamp */\n      timestamp\n        /* \"SubastaScroll.sol\":1344:1373  block.timestamp >= finSubasta */\n      lt\n      iszero\n        /* \"SubastaScroll.sol\":1344:1387  block.timestamp >= finSubasta || finalizada */\n      dup1\n      tag_113\n      jumpi\n      pop\n        /* \"SubastaScroll.sol\":1377:1387  finalizada */\n      0x02\n      0x00\n      swap1\n      sload\n      swap1\n      0x0100\n      exp\n      swap1\n      div\n      0xff\n      and\n        /* \"SubastaScroll.sol\":1344:1387  block.timestamp >= finSubasta || finalizada */\n    tag_113:\n        /* \"SubastaScroll.sol\":1336:1421  require(block.timestamp >= finSubasta || finalizada, \"La subasta no ha sido cerrada\") */\n      tag_114\n      jumpi\n      mload(0x40)\n      0x08c379a000000000000000000000000000000000000000000000000000000000\n      dup2\n      mstore\n      0x04\n      add\n      tag_115\n      swap1\n      tag_83\n      jump\t// in\n    tag_115:\n      mload(0x40)\n      dup1\n      swap2\n      sub\n      swap1\n      revert\n    tag_114:\n        /* \"SubastaScroll.sol\":3256:3267  mejorOferta */\n      0x03\n        /* \"SubastaScroll.sol\":3256:3277  mejorOferta.ofertante */\n      0x00\n      add\n      0x00\n      swap1\n      sload\n      swap1\n      0x0100\n      exp\n      swap1\n      div\n      0xffffffffffffffffffffffffffffffffffffffff\n      and\n        /* \"SubastaScroll.sol\":3242:3277  msg.sender != mejorOferta.ofertante */\n      0xffffffffffffffffffffffffffffffffffffffff\n      and\n        /* \"SubastaScroll.sol\":3242:3252  msg.sender */\n      caller\n        /* \"SubastaScroll.sol\":3242:3277  msg.sender != mejorOferta.ofertante */\n      0xffffffffffffffffffffffffffffffffffffffff\n      and\n      sub\n        /* \"SubastaScroll.sol\":3234:3312  require(msg.sender != mejorOferta.ofertante, \"El ganador no recibe reembolso\") */\n      tag_117\n      jumpi\n      mload(0x40)\n      0x08c379a000000000000000000000000000000000000000000000000000000000\n      dup2\n      mstore\n      0x04\n      add\n      tag_118\n      swap1\n      tag_119\n      jump\t// in\n    tag_118:\n      mload(0x40)\n      dup1\n      swap2\n      sub\n      swap1\n      revert\n    tag_117:\n        /* \"SubastaScroll.sol\":3325:3336  uint _monto */\n      0x00\n        /* \"SubastaScroll.sol\":3339:3347  deposito */\n      0x06\n        /* \"SubastaScroll.sol\":3339:3359  deposito[msg.sender] */\n      0x00\n        /* \"SubastaScroll.sol\":3348:3358  msg.sender */\n      caller\n        /* \"SubastaScroll.sol\":3339:3359  deposito[msg.sender] */\n      0xffffffffffffffffffffffffffffffffffffffff\n      and\n      0xffffffffffffffffffffffffffffffffffffffff\n      and\n      dup2\n      mstore\n      0x20\n      add\n      swap1\n      dup2\n      mstore\n      0x20\n      add\n      0x00\n      keccak256\n      sload\n        /* \"SubastaScroll.sol\":3325:3359  uint _monto = deposito[msg.sender] */\n      swap1\n      pop\n        /* \"SubastaScroll.sol\":3386:3387  0 */\n      0x00\n        /* \"SubastaScroll.sol\":3378:3384  _monto */\n      dup2\n        /* \"SubastaScroll.sol\":3378:3387  _monto >0 */\n      gt\n        /* \"SubastaScroll.sol\":3370:3417  require(_monto >0, \"No hay nada para devolver\") */\n      tag_120\n      jumpi\n      mload(0x40)\n      0x08c379a000000000000000000000000000000000000000000000000000000000\n      dup2\n      mstore\n      0x04\n      add\n      tag_121\n      swap1\n      tag_122\n      jump\t// in\n    tag_121:\n      mload(0x40)\n      dup1\n      swap2\n      sub\n      swap1\n      revert\n    tag_120:\n        /* \"SubastaScroll.sol\":3430:3444  uint _comision */\n      0x00\n        /* \"SubastaScroll.sol\":3474:3477  100 */\n      0x64\n        /* \"SubastaScroll.sol\":3457:3470  costoComision */\n      sload(0x07)\n        /* \"SubastaScroll.sol\":3448:3454  _monto */\n      dup4\n        /* \"SubastaScroll.sol\":3448:3470  _monto * costoComision */\n      tag_123\n      swap2\n      swap1\n      tag_97\n      jump\t// in\n    tag_123:\n        /* \"SubastaScroll.sol\":3447:3477  (_monto * costoComision) / 100 */\n      tag_124\n      swap2\n      swap1\n      tag_99\n      jump\t// in\n    tag_124:\n        /* \"SubastaScroll.sol\":3430:3477  uint _comision = (_monto * costoComision) / 100 */\n      swap1\n      pop\n        /* \"SubastaScroll.sol\":3490:3505  uint _reembolso */\n      0x00\n        /* \"SubastaScroll.sol\":3517:3526  _comision */\n      dup2\n        /* \"SubastaScroll.sol\":3508:3514  _monto */\n      dup4\n        /* \"SubastaScroll.sol\":3508:3526  _monto - _comision */\n      tag_125\n      swap2\n      swap1\n      tag_108\n      jump\t// in\n    tag_125:\n        /* \"SubastaScroll.sol\":3490:3526  uint _reembolso = _monto - _comision */\n      swap1\n      pop\n        /* \"SubastaScroll.sol\":3562:3563  0 */\n      0x00\n        /* \"SubastaScroll.sol\":3539:3547  deposito */\n      0x06\n        /* \"SubastaScroll.sol\":3539:3559  deposito[msg.sender] */\n      0x00\n        /* \"SubastaScroll.sol\":3548:3558  msg.sender */\n      caller\n        /* \"SubastaScroll.sol\":3539:3559  deposito[msg.sender] */\n      0xffffffffffffffffffffffffffffffffffffffff\n      and\n      0xffffffffffffffffffffffffffffffffffffffff\n      and\n      dup2\n      mstore\n      0x20\n      add\n      swap1\n      dup2\n      mstore\n      0x20\n      add\n      0x00\n      keccak256\n        /* \"SubastaScroll.sol\":3539:3563  deposito[msg.sender] = 0 */\n      dup2\n      swap1\n      sstore\n      pop\n        /* \"SubastaScroll.sol\":3582:3592  msg.sender */\n      caller\n        /* \"SubastaScroll.sol\":3574:3602  payable(msg.sender).transfer */\n      0xffffffffffffffffffffffffffffffffffffffff\n      and\n        /* \"SubastaScroll.sol\":3574:3614  payable(msg.sender).transfer(_reembolso) */\n      0x08fc\n        /* \"SubastaScroll.sol\":3603:3613  _reembolso */\n      dup3\n        /* \"SubastaScroll.sol\":3574:3614  payable(msg.sender).transfer(_reembolso) */\n      swap1\n      dup2\n      iszero\n      mul\n      swap1\n      mload(0x40)\n      0x00\n      mload(0x40)\n      dup1\n      dup4\n      sub\n      dup2\n      dup6\n      dup9\n      dup9\n      call\n      swap4\n      pop\n      pop\n      pop\n      pop\n      iszero\n      dup1\n      iszero\n      tag_127\n      jumpi\n      returndatacopy(0x00, 0x00, returndatasize)\n      revert(0x00, returndatasize)\n    tag_127:\n      pop\n        /* \"SubastaScroll.sol\":3223:3622  {... */\n      pop\n      pop\n      pop\n        /* \"SubastaScroll.sol\":3164:3622  function devolverDepositos() external subastaFinalizadaMod {... */\n      jump\t// out\n        /* \"SubastaScroll.sol\":188:210  uint public finSubasta */\n    tag_39:\n      sload(0x01)\n      dup2\n      jump\t// out\n        /* \"SubastaScroll.sol\":3796:3942  function verGanador() external view subastaFinalizadaMod returns(address,uint){... */\n    tag_44:\n        /* \"SubastaScroll.sol\":3861:3868  address */\n      0x00\n        /* \"SubastaScroll.sol\":3869:3873  uint */\n      0x00\n        /* \"SubastaScroll.sol\":1363:1373  finSubasta */\n      sload(0x01)\n        /* \"SubastaScroll.sol\":1344:1359  block.timestamp */\n      timestamp\n        /* \"SubastaScroll.sol\":1344:1373  block.timestamp >= finSubasta */\n      lt\n      iszero\n        /* \"SubastaScroll.sol\":1344:1387  block.timestamp >= finSubasta || finalizada */\n      dup1\n      tag_129\n      jumpi\n      pop\n        /* \"SubastaScroll.sol\":1377:1387  finalizada */\n      0x02\n      0x00\n      swap1\n      sload\n      swap1\n      0x0100\n      exp\n      swap1\n      div\n      0xff\n      and\n        /* \"SubastaScroll.sol\":1344:1387  block.timestamp >= finSubasta || finalizada */\n    tag_129:\n        /* \"SubastaScroll.sol\":1336:1421  require(block.timestamp >= finSubasta || finalizada, \"La subasta no ha sido cerrada\") */\n      tag_130\n      jumpi\n      mload(0x40)\n      0x08c379a000000000000000000000000000000000000000000000000000000000\n      dup2\n      mstore\n      0x04\n      add\n      tag_131\n      swap1\n      tag_83\n      jump\t// in\n    tag_131:\n      mload(0x40)\n      dup1\n      swap2\n      sub\n      swap1\n      revert\n    tag_130:\n        /* \"SubastaScroll.sol\":3893:3904  mejorOferta */\n      0x03\n        /* \"SubastaScroll.sol\":3893:3914  mejorOferta.ofertante */\n      0x00\n      add\n      0x00\n      swap1\n      sload\n      swap1\n      0x0100\n      exp\n      swap1\n      div\n      0xffffffffffffffffffffffffffffffffffffffff\n      and\n        /* \"SubastaScroll.sol\":3916:3927  mejorOferta */\n      0x03\n        /* \"SubastaScroll.sol\":3916:3933  mejorOferta.monto */\n      0x01\n      add\n      sload\n        /* \"SubastaScroll.sol\":3885:3934  return (mejorOferta.ofertante, mejorOferta.monto) */\n      swap2\n      pop\n      swap2\n      pop\n        /* \"SubastaScroll.sol\":3796:3942  function verGanador() external view subastaFinalizadaMod returns(address,uint){... */\n      swap1\n      swap2\n      jump\t// out\n        /* \"SubastaScroll.sol\":3987:4089  function verHistorial() external view returns (Oferta[] memory) {... */\n    tag_48:\n        /* \"SubastaScroll.sol\":4034:4049  Oferta[] memory */\n      0x60\n        /* \"SubastaScroll.sol\":4069:4081  listaOfertas */\n      0x05\n        /* \"SubastaScroll.sol\":4062:4081  return listaOfertas */\n      dup1\n      sload\n      dup1\n      0x20\n      mul\n      0x20\n      add\n      mload(0x40)\n      swap1\n      dup2\n      add\n      0x40\n      mstore\n      dup1\n      swap3\n      swap2\n      swap1\n      dup2\n      dup2\n      mstore\n      0x20\n      add\n      0x00\n      swap1\n    tag_134:\n      dup3\n      dup3\n      lt\n      iszero\n      tag_135\n      jumpi\n      dup4\n      dup3\n      swap1\n      0x00\n      mstore\n      keccak256(0x00, 0x20)\n      swap1\n      0x02\n      mul\n      add\n      mload(0x40)\n      dup1\n      0x40\n      add\n      0x40\n      mstore\n      swap1\n      dup2\n      0x00\n      dup3\n      add\n      0x00\n      swap1\n      sload\n      swap1\n      0x0100\n      exp\n      swap1\n      div\n      0xffffffffffffffffffffffffffffffffffffffff\n      and\n      0xffffffffffffffffffffffffffffffffffffffff\n      and\n      0xffffffffffffffffffffffffffffffffffffffff\n      and\n      dup2\n      mstore\n      0x20\n      add\n      0x01\n      dup3\n      add\n      sload\n      dup2\n      mstore\n      pop\n      pop\n      dup2\n      mstore\n      0x20\n      add\n      swap1\n      0x01\n      add\n      swap1\n      jump(tag_134)\n    tag_135:\n      pop\n      pop\n      pop\n      pop\n      swap1\n      pop\n        /* \"SubastaScroll.sol\":3987:4089  function verHistorial() external view returns (Oferta[] memory) {... */\n      swap1\n      jump\t// out\n        /* \"SubastaScroll.sol\":377:402  Oferta public mejorOferta */\n    tag_53:\n      0x03\n      dup1\n      0x00\n      add\n      0x00\n      swap1\n      sload\n      swap1\n      0x0100\n      exp\n      swap1\n      div\n      0xffffffffffffffffffffffffffffffffffffffff\n      and\n      swap1\n      dup1\n      0x01\n      add\n      sload\n      swap1\n      pop\n      dup3\n      jump\t// out\n        /* \"SubastaScroll.sol\":2753:3115  function retirarExceso() external subastaAbiertaMod {... */\n    tag_57:\n        /* \"SubastaScroll.sol\":1137:1147  finSubasta */\n      sload(0x01)\n        /* \"SubastaScroll.sol\":1119:1134  block.timestamp */\n      timestamp\n        /* \"SubastaScroll.sol\":1119:1147  block.timestamp < finSubasta */\n      lt\n        /* \"SubastaScroll.sol\":1111:1179  require(block.timestamp < finSubasta, \"La subasta ya ha finalizado\") */\n      tag_138\n      jumpi\n      mload(0x40)\n      0x08c379a000000000000000000000000000000000000000000000000000000000\n      dup2\n      mstore\n      0x04\n      add\n      tag_139\n      swap1\n      tag_88\n      jump\t// in\n    tag_139:\n      mload(0x40)\n      dup1\n      swap2\n      sub\n      swap1\n      revert\n    tag_138:\n        /* \"SubastaScroll.sol\":1199:1209  finalizada */\n      0x02\n      0x00\n      swap1\n      sload\n      swap1\n      0x0100\n      exp\n      swap1\n      div\n      0xff\n      and\n        /* \"SubastaScroll.sol\":1198:1209  !finalizada */\n      iszero\n        /* \"SubastaScroll.sol\":1190:1235  require(!finalizada, \"La subasta finalizada\") */\n      tag_140\n      jumpi\n      mload(0x40)\n      0x08c379a000000000000000000000000000000000000000000000000000000000\n      dup2\n      mstore\n      0x04\n      add\n      tag_141\n      swap1\n      tag_91\n      jump\t// in\n    tag_141:\n      mload(0x40)\n      dup1\n      swap2\n      sub\n      swap1\n      revert\n    tag_140:\n        /* \"SubastaScroll.sol\":2816:2833  uint ultimaOferta */\n      0x00\n        /* \"SubastaScroll.sol\":2851:2862  mejorOferta */\n      0x03\n        /* \"SubastaScroll.sol\":2851:2872  mejorOferta.ofertante */\n      0x00\n      add\n      0x00\n      swap1\n      sload\n      swap1\n      0x0100\n      exp\n      swap1\n      div\n      0xffffffffffffffffffffffffffffffffffffffff\n      and\n        /* \"SubastaScroll.sol\":2837:2872  msg.sender == mejorOferta.ofertante */\n      0xffffffffffffffffffffffffffffffffffffffff\n      and\n        /* \"SubastaScroll.sol\":2837:2847  msg.sender */\n      caller\n        /* \"SubastaScroll.sol\":2837:2872  msg.sender == mejorOferta.ofertante */\n      0xffffffffffffffffffffffffffffffffffffffff\n      and\n      eq\n        /* \"SubastaScroll.sol\":2836:2897  (msg.sender == mejorOferta.ofertante) ? mejorOferta.monto : 0 */\n      tag_143\n      jumpi\n        /* \"SubastaScroll.sol\":2896:2897  0 */\n      0x00\n        /* \"SubastaScroll.sol\":2836:2897  (msg.sender == mejorOferta.ofertante) ? mejorOferta.monto : 0 */\n      jump(tag_144)\n    tag_143:\n        /* \"SubastaScroll.sol\":2876:2887  mejorOferta */\n      0x03\n        /* \"SubastaScroll.sol\":2876:2893  mejorOferta.monto */\n      0x01\n      add\n      sload\n        /* \"SubastaScroll.sol\":2836:2897  (msg.sender == mejorOferta.ofertante) ? mejorOferta.monto : 0 */\n    tag_144:\n        /* \"SubastaScroll.sol\":2816:2897  uint ultimaOferta = (msg.sender == mejorOferta.ofertante) ? mejorOferta.monto : 0 */\n      swap1\n      pop\n        /* \"SubastaScroll.sol\":2908:2919  uint exceso */\n      0x00\n        /* \"SubastaScroll.sol\":2945:2957  ultimaOferta */\n      dup2\n        /* \"SubastaScroll.sol\":2922:2930  deposito */\n      0x06\n        /* \"SubastaScroll.sol\":2922:2942  deposito[msg.sender] */\n      0x00\n        /* \"SubastaScroll.sol\":2931:2941  msg.sender */\n      caller\n        /* \"SubastaScroll.sol\":2922:2942  deposito[msg.sender] */\n      0xffffffffffffffffffffffffffffffffffffffff\n      and\n      0xffffffffffffffffffffffffffffffffffffffff\n      and\n      dup2\n      mstore\n      0x20\n      add\n      swap1\n      dup2\n      mstore\n      0x20\n      add\n      0x00\n      keccak256\n      sload\n        /* \"SubastaScroll.sol\":2922:2957  deposito[msg.sender] - ultimaOferta */\n      tag_145\n      swap2\n      swap1\n      tag_108\n      jump\t// in\n    tag_145:\n        /* \"SubastaScroll.sol\":2908:2957  uint exceso = deposito[msg.sender] - ultimaOferta */\n      swap1\n      pop\n        /* \"SubastaScroll.sol\":2985:2986  0 */\n      0x00\n        /* \"SubastaScroll.sol\":2976:2982  exceso */\n      dup2\n        /* \"SubastaScroll.sol\":2976:2986  exceso > 0 */\n      gt\n        /* \"SubastaScroll.sol\":2968:3017  require(exceso > 0, \"No hay exceso para retirar\") */\n      tag_146\n      jumpi\n      mload(0x40)\n      0x08c379a000000000000000000000000000000000000000000000000000000000\n      dup2\n      mstore\n      0x04\n      add\n      tag_147\n      swap1\n      tag_148\n      jump\t// in\n    tag_147:\n      mload(0x40)\n      dup1\n      swap2\n      sub\n      swap1\n      revert\n    tag_146:\n        /* \"SubastaScroll.sol\":3054:3060  exceso */\n      dup1\n        /* \"SubastaScroll.sol\":3030:3038  deposito */\n      0x06\n        /* \"SubastaScroll.sol\":3030:3050  deposito[msg.sender] */\n      0x00\n        /* \"SubastaScroll.sol\":3039:3049  msg.sender */\n      caller\n        /* \"SubastaScroll.sol\":3030:3050  deposito[msg.sender] */\n      0xffffffffffffffffffffffffffffffffffffffff\n      and\n      0xffffffffffffffffffffffffffffffffffffffff\n      and\n      dup2\n      mstore\n      0x20\n      add\n      swap1\n      dup2\n      mstore\n      0x20\n      add\n      0x00\n      keccak256\n      0x00\n        /* \"SubastaScroll.sol\":3030:3060  deposito[msg.sender] -= exceso */\n      dup3\n      dup3\n      sload\n      tag_149\n      swap2\n      swap1\n      tag_108\n      jump\t// in\n    tag_149:\n      swap3\n      pop\n      pop\n      dup2\n      swap1\n      sstore\n      pop\n        /* \"SubastaScroll.sol\":3079:3089  msg.sender */\n      caller\n        /* \"SubastaScroll.sol\":3071:3099  payable(msg.sender).transfer */\n      0xffffffffffffffffffffffffffffffffffffffff\n      and\n        /* \"SubastaScroll.sol\":3071:3107  payable(msg.sender).transfer(exceso) */\n      0x08fc\n        /* \"SubastaScroll.sol\":3100:3106  exceso */\n      dup3\n        /* \"SubastaScroll.sol\":3071:3107  payable(msg.sender).transfer(exceso) */\n      swap1\n      dup2\n      iszero\n      mul\n      swap1\n      mload(0x40)\n      0x00\n      mload(0x40)\n      dup1\n      dup4\n      sub\n      dup2\n      dup6\n      dup9\n      dup9\n      call\n      swap4\n      pop\n      pop\n      pop\n      pop\n      iszero\n      dup1\n      iszero\n      tag_151\n      jumpi\n      returndatacopy(0x00, 0x00, returndatasize)\n      revert(0x00, returndatasize)\n    tag_151:\n      pop\n        /* \"SubastaScroll.sol\":2805:3115  {... */\n      pop\n      pop\n        /* \"SubastaScroll.sol\":2753:3115  function retirarExceso() external subastaAbiertaMod {... */\n      jump\t// out\n        /* \"SubastaScroll.sol\":523:552  uint public costoComision = 2 */\n    tag_60:\n      sload(0x07)\n      dup2\n      jump\t// out\n        /* \"SubastaScroll.sol\":444:485  mapping (address => uint) public deposito */\n    tag_66:\n      mstore(0x20, 0x06)\n      dup1\n      0x00\n      mstore\n      keccak256(0x00, 0x40)\n      0x00\n      swap2\n      pop\n      swap1\n      pop\n      sload\n      dup2\n      jump\t// out\n        /* \"SubastaScroll.sol\":217:239  bool public finalizada */\n    tag_70:\n      0x02\n      0x00\n      swap1\n      sload\n      swap1\n      0x0100\n      exp\n      swap1\n      div\n      0xff\n      and\n      dup2\n      jump\t// out\n        /* \"#utility.yul\":88:205   */\n    tag_153:\n        /* \"#utility.yul\":197:198   */\n      0x00\n        /* \"#utility.yul\":194:195   */\n      0x00\n        /* \"#utility.yul\":187:199   */\n      revert\n        /* \"#utility.yul\":334:411   */\n    tag_155:\n        /* \"#utility.yul\":371:378   */\n      0x00\n        /* \"#utility.yul\":400:405   */\n      dup2\n        /* \"#utility.yul\":389:405   */\n      swap1\n      pop\n        /* \"#utility.yul\":334:411   */\n      swap2\n      swap1\n      pop\n      jump\t// out\n        /* \"#utility.yul\":417:539   */\n    tag_156:\n        /* \"#utility.yul\":490:514   */\n      tag_202\n        /* \"#utility.yul\":508:513   */\n      dup2\n        /* \"#utility.yul\":490:514   */\n      tag_155\n      jump\t// in\n    tag_202:\n        /* \"#utility.yul\":483:488   */\n      dup2\n        /* \"#utility.yul\":480:515   */\n      eq\n        /* \"#utility.yul\":470:533   */\n      tag_203\n      jumpi\n        /* \"#utility.yul\":529:530   */\n      0x00\n        /* \"#utility.yul\":526:527   */\n      0x00\n        /* \"#utility.yul\":519:531   */\n      revert\n        /* \"#utility.yul\":470:533   */\n    tag_203:\n        /* \"#utility.yul\":417:539   */\n      pop\n      jump\t// out\n        /* \"#utility.yul\":545:684   */\n    tag_157:\n        /* \"#utility.yul\":591:596   */\n      0x00\n        /* \"#utility.yul\":629:635   */\n      dup2\n        /* \"#utility.yul\":616:636   */\n      calldataload\n        /* \"#utility.yul\":607:636   */\n      swap1\n      pop\n        /* \"#utility.yul\":645:678   */\n      tag_205\n        /* \"#utility.yul\":672:677   */\n      dup2\n        /* \"#utility.yul\":645:678   */\n      tag_156\n      jump\t// in\n    tag_205:\n        /* \"#utility.yul\":545:684   */\n      swap3\n      swap2\n      pop\n      pop\n      jump\t// out\n        /* \"#utility.yul\":690:1019   */\n    tag_20:\n        /* \"#utility.yul\":749:755   */\n      0x00\n        /* \"#utility.yul\":798:800   */\n      0x20\n        /* \"#utility.yul\":786:795   */\n      dup3\n        /* \"#utility.yul\":777:784   */\n      dup5\n        /* \"#utility.yul\":773:796   */\n      sub\n        /* \"#utility.yul\":769:801   */\n      slt\n        /* \"#utility.yul\":766:885   */\n      iszero\n      tag_207\n      jumpi\n        /* \"#utility.yul\":804:883   */\n      tag_208\n      tag_153\n      jump\t// in\n    tag_208:\n        /* \"#utility.yul\":766:885   */\n    tag_207:\n        /* \"#utility.yul\":924:925   */\n      0x00\n        /* \"#utility.yul\":949:1002   */\n      tag_209\n        /* \"#utility.yul\":994:1001   */\n      dup5\n        /* \"#utility.yul\":985:991   */\n      dup3\n        /* \"#utility.yul\":974:983   */\n      dup6\n        /* \"#utility.yul\":970:992   */\n      add\n        /* \"#utility.yul\":949:1002   */\n      tag_157\n      jump\t// in\n    tag_209:\n        /* \"#utility.yul\":939:1002   */\n      swap2\n      pop\n        /* \"#utility.yul\":895:1012   */\n      pop\n        /* \"#utility.yul\":690:1019   */\n      swap3\n      swap2\n      pop\n      pop\n      jump\t// out\n        /* \"#utility.yul\":1025:1151   */\n    tag_158:\n        /* \"#utility.yul\":1062:1069   */\n      0x00\n        /* \"#utility.yul\":1102:1144   */\n      0xffffffffffffffffffffffffffffffffffffffff\n        /* \"#utility.yul\":1095:1100   */\n      dup3\n        /* \"#utility.yul\":1091:1145   */\n      and\n        /* \"#utility.yul\":1080:1145   */\n      swap1\n      pop\n        /* \"#utility.yul\":1025:1151   */\n      swap2\n      swap1\n      pop\n      jump\t// out\n        /* \"#utility.yul\":1157:1253   */\n    tag_159:\n        /* \"#utility.yul\":1194:1201   */\n      0x00\n        /* \"#utility.yul\":1223:1247   */\n      tag_212\n        /* \"#utility.yul\":1241:1246   */\n      dup3\n        /* \"#utility.yul\":1223:1247   */\n      tag_158\n      jump\t// in\n    tag_212:\n        /* \"#utility.yul\":1212:1247   */\n      swap1\n      pop\n        /* \"#utility.yul\":1157:1253   */\n      swap2\n      swap1\n      pop\n      jump\t// out\n        /* \"#utility.yul\":1259:1377   */\n    tag_160:\n        /* \"#utility.yul\":1346:1370   */\n      tag_214\n        /* \"#utility.yul\":1364:1369   */\n      dup2\n        /* \"#utility.yul\":1346:1370   */\n      tag_159\n      jump\t// in\n    tag_214:\n        /* \"#utility.yul\":1341:1344   */\n      dup3\n        /* \"#utility.yul\":1334:1371   */\n      mstore\n        /* \"#utility.yul\":1259:1377   */\n      pop\n      pop\n      jump\t// out\n        /* \"#utility.yul\":1383:1501   */\n    tag_161:\n        /* \"#utility.yul\":1470:1494   */\n      tag_216\n        /* \"#utility.yul\":1488:1493   */\n      dup2\n        /* \"#utility.yul\":1470:1494   */\n      tag_155\n      jump\t// in\n    tag_216:\n        /* \"#utility.yul\":1465:1468   */\n      dup3\n        /* \"#utility.yul\":1458:1495   */\n      mstore\n        /* \"#utility.yul\":1383:1501   */\n      pop\n      pop\n      jump\t// out\n        /* \"#utility.yul\":1507:1839   */\n    tag_23:\n        /* \"#utility.yul\":1628:1632   */\n      0x00\n        /* \"#utility.yul\":1666:1668   */\n      0x40\n        /* \"#utility.yul\":1655:1664   */\n      dup3\n        /* \"#utility.yul\":1651:1669   */\n      add\n        /* \"#utility.yul\":1643:1669   */\n      swap1\n      pop\n        /* \"#utility.yul\":1679:1750   */\n      tag_218\n        /* \"#utility.yul\":1747:1748   */\n      0x00\n        /* \"#utility.yul\":1736:1745   */\n      dup4\n        /* \"#utility.yul\":1732:1749   */\n      add\n        /* \"#utility.yul\":1723:1729   */\n      dup6\n        /* \"#utility.yul\":1679:1750   */\n      tag_160\n      jump\t// in\n    tag_218:\n        /* \"#utility.yul\":1760:1832   */\n      tag_219\n        /* \"#utility.yul\":1828:1830   */\n      0x20\n        /* \"#utility.yul\":1817:1826   */\n      dup4\n        /* \"#utility.yul\":1813:1831   */\n      add\n        /* \"#utility.yul\":1804:1810   */\n      dup5\n        /* \"#utility.yul\":1760:1832   */\n      tag_161\n      jump\t// in\n    tag_219:\n        /* \"#utility.yul\":1507:1839   */\n      swap4\n      swap3\n      pop\n      pop\n      pop\n      jump\t// out\n        /* \"#utility.yul\":1845:2067   */\n    tag_31:\n        /* \"#utility.yul\":1938:1942   */\n      0x00\n        /* \"#utility.yul\":1976:1978   */\n      0x20\n        /* \"#utility.yul\":1965:1974   */\n      dup3\n        /* \"#utility.yul\":1961:1979   */\n      add\n        /* \"#utility.yul\":1953:1979   */\n      swap1\n      pop\n        /* \"#utility.yul\":1989:2060   */\n      tag_221\n        /* \"#utility.yul\":2057:2058   */\n      0x00\n        /* \"#utility.yul\":2046:2055   */\n      dup4\n        /* \"#utility.yul\":2042:2059   */\n      add\n        /* \"#utility.yul\":2033:2039   */\n      dup5\n        /* \"#utility.yul\":1989:2060   */\n      tag_160\n      jump\t// in\n    tag_221:\n        /* \"#utility.yul\":1845:2067   */\n      swap3\n      swap2\n      pop\n      pop\n      jump\t// out\n        /* \"#utility.yul\":2073:2295   */\n    tag_41:\n        /* \"#utility.yul\":2166:2170   */\n      0x00\n        /* \"#utility.yul\":2204:2206   */\n      0x20\n        /* \"#utility.yul\":2193:2202   */\n      dup3\n        /* \"#utility.yul\":2189:2207   */\n      add\n        /* \"#utility.yul\":2181:2207   */\n      swap1\n      pop\n        /* \"#utility.yul\":2217:2288   */\n      tag_223\n        /* \"#utility.yul\":2285:2286   */\n      0x00\n        /* \"#utility.yul\":2274:2283   */\n      dup4\n        /* \"#utility.yul\":2270:2287   */\n      add\n        /* \"#utility.yul\":2261:2267   */\n      dup5\n        /* \"#utility.yul\":2217:2288   */\n      tag_161\n      jump\t// in\n    tag_223:\n        /* \"#utility.yul\":2073:2295   */\n      swap3\n      swap2\n      pop\n      pop\n      jump\t// out\n        /* \"#utility.yul\":2301:2437   */\n    tag_162:\n        /* \"#utility.yul\":2390:2396   */\n      0x00\n        /* \"#utility.yul\":2424:2429   */\n      dup2\n        /* \"#utility.yul\":2418:2430   */\n      mload\n        /* \"#utility.yul\":2408:2430   */\n      swap1\n      pop\n        /* \"#utility.yul\":2301:2437   */\n      swap2\n      swap1\n      pop\n      jump\t// out\n        /* \"#utility.yul\":2443:2649   */\n    tag_163:\n        /* \"#utility.yul\":2564:2575   */\n      0x00\n        /* \"#utility.yul\":2598:2604   */\n      dup3\n        /* \"#utility.yul\":2593:2596   */\n      dup3\n        /* \"#utility.yul\":2586:2605   */\n      mstore\n        /* \"#utility.yul\":2638:2642   */\n      0x20\n        /* \"#utility.yul\":2633:2636   */\n      dup3\n        /* \"#utility.yul\":2629:2643   */\n      add\n        /* \"#utility.yul\":2614:2643   */\n      swap1\n      pop\n        /* \"#utility.yul\":2443:2649   */\n      swap3\n      swap2\n      pop\n      pop\n      jump\t// out\n        /* \"#utility.yul\":2655:2809   */\n    tag_164:\n        /* \"#utility.yul\":2744:2748   */\n      0x00\n        /* \"#utility.yul\":2767:2770   */\n      dup2\n        /* \"#utility.yul\":2759:2770   */\n      swap1\n      pop\n        /* \"#utility.yul\":2797:2801   */\n      0x20\n        /* \"#utility.yul\":2792:2795   */\n      dup3\n        /* \"#utility.yul\":2788:2802   */\n      add\n        /* \"#utility.yul\":2780:2802   */\n      swap1\n      pop\n        /* \"#utility.yul\":2655:2809   */\n      swap2\n      swap1\n      pop\n      jump\t// out\n        /* \"#utility.yul\":2815:2923   */\n    tag_165:\n        /* \"#utility.yul\":2892:2916   */\n      tag_228\n        /* \"#utility.yul\":2910:2915   */\n      dup2\n        /* \"#utility.yul\":2892:2916   */\n      tag_159\n      jump\t// in\n    tag_228:\n        /* \"#utility.yul\":2887:2890   */\n      dup3\n        /* \"#utility.yul\":2880:2917   */\n      mstore\n        /* \"#utility.yul\":2815:2923   */\n      pop\n      pop\n      jump\t// out\n        /* \"#utility.yul\":2929:3037   */\n    tag_166:\n        /* \"#utility.yul\":3006:3030   */\n      tag_230\n        /* \"#utility.yul\":3024:3029   */\n      dup2\n        /* \"#utility.yul\":3006:3030   */\n      tag_155\n      jump\t// in\n    tag_230:\n        /* \"#utility.yul\":3001:3004   */\n      dup3\n        /* \"#utility.yul\":2994:3031   */\n      mstore\n        /* \"#utility.yul\":2929:3037   */\n      pop\n      pop\n      jump\t// out\n        /* \"#utility.yul\":3109:3606   */\n    tag_167:\n        /* \"#utility.yul\":3240:3244   */\n      0x40\n        /* \"#utility.yul\":3235:3238   */\n      dup3\n        /* \"#utility.yul\":3231:3245   */\n      add\n        /* \"#utility.yul\":3332:3336   */\n      0x00\n        /* \"#utility.yul\":3325:3330   */\n      dup3\n        /* \"#utility.yul\":3321:3337   */\n      add\n        /* \"#utility.yul\":3315:3338   */\n      mload\n        /* \"#utility.yul\":3351:3414   */\n      tag_232\n        /* \"#utility.yul\":3408:3412   */\n      0x00\n        /* \"#utility.yul\":3403:3406   */\n      dup6\n        /* \"#utility.yul\":3399:3413   */\n      add\n        /* \"#utility.yul\":3385:3397   */\n      dup3\n        /* \"#utility.yul\":3351:3414   */\n      tag_165\n      jump\t// in\n    tag_232:\n        /* \"#utility.yul\":3255:3424   */\n      pop\n        /* \"#utility.yul\":3507:3511   */\n      0x20\n        /* \"#utility.yul\":3500:3505   */\n      dup3\n        /* \"#utility.yul\":3496:3512   */\n      add\n        /* \"#utility.yul\":3490:3513   */\n      mload\n        /* \"#utility.yul\":3526:3589   */\n      tag_233\n        /* \"#utility.yul\":3583:3587   */\n      0x20\n        /* \"#utility.yul\":3578:3581   */\n      dup6\n        /* \"#utility.yul\":3574:3588   */\n      add\n        /* \"#utility.yul\":3560:3572   */\n      dup3\n        /* \"#utility.yul\":3526:3589   */\n      tag_166\n      jump\t// in\n    tag_233:\n        /* \"#utility.yul\":3434:3599   */\n      pop\n        /* \"#utility.yul\":3209:3606   */\n      pop\n        /* \"#utility.yul\":3109:3606   */\n      pop\n      pop\n      jump\t// out\n        /* \"#utility.yul\":3612:3879   */\n    tag_168:\n        /* \"#utility.yul\":3725:3735   */\n      0x00\n        /* \"#utility.yul\":3746:3836   */\n      tag_235\n        /* \"#utility.yul\":3832:3835   */\n      dup4\n        /* \"#utility.yul\":3824:3830   */\n      dup4\n        /* \"#utility.yul\":3746:3836   */\n      tag_167\n      jump\t// in\n    tag_235:\n        /* \"#utility.yul\":3868:3872   */\n      0x40\n        /* \"#utility.yul\":3863:3866   */\n      dup4\n        /* \"#utility.yul\":3859:3873   */\n      add\n        /* \"#utility.yul\":3845:3873   */\n      swap1\n      pop\n        /* \"#utility.yul\":3612:3879   */\n      swap3\n      swap2\n      pop\n      pop\n      jump\t// out\n        /* \"#utility.yul\":3885:4020   */\n    tag_169:\n        /* \"#utility.yul\":3977:3981   */\n      0x00\n        /* \"#utility.yul\":4009:4013   */\n      0x20\n        /* \"#utility.yul\":4004:4007   */\n      dup3\n        /* \"#utility.yul\":4000:4014   */\n      add\n        /* \"#utility.yul\":3992:4014   */\n      swap1\n      pop\n        /* \"#utility.yul\":3885:4020   */\n      swap2\n      swap1\n      pop\n      jump\t// out\n        /* \"#utility.yul\":4096:5004   */\n    tag_170:\n        /* \"#utility.yul\":4259:4262   */\n      0x00\n        /* \"#utility.yul\":4288:4364   */\n      tag_238\n        /* \"#utility.yul\":4358:4363   */\n      dup3\n        /* \"#utility.yul\":4288:4364   */\n      tag_162\n      jump\t// in\n    tag_238:\n        /* \"#utility.yul\":4380:4488   */\n      tag_239\n        /* \"#utility.yul\":4481:4487   */\n      dup2\n        /* \"#utility.yul\":4476:4479   */\n      dup6\n        /* \"#utility.yul\":4380:4488   */\n      tag_163\n      jump\t// in\n    tag_239:\n        /* \"#utility.yul\":4373:4488   */\n      swap4\n      pop\n        /* \"#utility.yul\":4512:4590   */\n      tag_240\n        /* \"#utility.yul\":4584:4589   */\n      dup4\n        /* \"#utility.yul\":4512:4590   */\n      tag_164\n      jump\t// in\n    tag_240:\n        /* \"#utility.yul\":4613:4620   */\n      dup1\n        /* \"#utility.yul\":4644:4645   */\n      0x00\n        /* \"#utility.yul\":4629:4979   */\n    tag_241:\n        /* \"#utility.yul\":4654:4660   */\n      dup4\n        /* \"#utility.yul\":4651:4652   */\n      dup2\n        /* \"#utility.yul\":4648:4661   */\n      lt\n        /* \"#utility.yul\":4629:4979   */\n      iszero\n      tag_243\n      jumpi\n        /* \"#utility.yul\":4730:4736   */\n      dup2\n        /* \"#utility.yul\":4724:4737   */\n      mload\n        /* \"#utility.yul\":4757:4864   */\n      tag_244\n        /* \"#utility.yul\":4860:4863   */\n      dup9\n        /* \"#utility.yul\":4845:4858   */\n      dup3\n        /* \"#utility.yul\":4757:4864   */\n      tag_168\n      jump\t// in\n    tag_244:\n        /* \"#utility.yul\":4750:4864   */\n      swap8\n      pop\n        /* \"#utility.yul\":4887:4969   */\n      tag_245\n        /* \"#utility.yul\":4962:4968   */\n      dup4\n        /* \"#utility.yul\":4887:4969   */\n      tag_169\n      jump\t// in\n    tag_245:\n        /* \"#utility.yul\":4877:4969   */\n      swap3\n      pop\n        /* \"#utility.yul\":4689:4979   */\n      pop\n        /* \"#utility.yul\":4676:4677   */\n      0x01\n        /* \"#utility.yul\":4673:4674   */\n      dup2\n        /* \"#utility.yul\":4669:4678   */\n      add\n        /* \"#utility.yul\":4664:4678   */\n      swap1\n      pop\n        /* \"#utility.yul\":4629:4979   */\n      jump(tag_241)\n    tag_243:\n        /* \"#utility.yul\":4633:4647   */\n      pop\n        /* \"#utility.yul\":4995:4998   */\n      dup6\n        /* \"#utility.yul\":4988:4998   */\n      swap4\n      pop\n        /* \"#utility.yul\":4264:5004   */\n      pop\n      pop\n      pop\n        /* \"#utility.yul\":4096:5004   */\n      swap3\n      swap2\n      pop\n      pop\n      jump\t// out\n        /* \"#utility.yul\":5010:5471   */\n    tag_50:\n        /* \"#utility.yul\":5197:5201   */\n      0x00\n        /* \"#utility.yul\":5235:5237   */\n      0x20\n        /* \"#utility.yul\":5224:5233   */\n      dup3\n        /* \"#utility.yul\":5220:5238   */\n      add\n        /* \"#utility.yul\":5212:5238   */\n      swap1\n      pop\n        /* \"#utility.yul\":5284:5293   */\n      dup2\n        /* \"#utility.yul\":5278:5282   */\n      dup2\n        /* \"#utility.yul\":5274:5294   */\n      sub\n        /* \"#utility.yul\":5270:5271   */\n      0x00\n        /* \"#utility.yul\":5259:5268   */\n      dup4\n        /* \"#utility.yul\":5255:5272   */\n      add\n        /* \"#utility.yul\":5248:5295   */\n      mstore\n        /* \"#utility.yul\":5312:5464   */\n      tag_247\n        /* \"#utility.yul\":5459:5463   */\n      dup2\n        /* \"#utility.yul\":5450:5456   */\n      dup5\n        /* \"#utility.yul\":5312:5464   */\n      tag_170\n      jump\t// in\n    tag_247:\n        /* \"#utility.yul\":5304:5464   */\n      swap1\n      pop\n        /* \"#utility.yul\":5010:5471   */\n      swap3\n      swap2\n      pop\n      pop\n      jump\t// out\n        /* \"#utility.yul\":5477:5599   */\n    tag_171:\n        /* \"#utility.yul\":5550:5574   */\n      tag_249\n        /* \"#utility.yul\":5568:5573   */\n      dup2\n        /* \"#utility.yul\":5550:5574   */\n      tag_159\n      jump\t// in\n    tag_249:\n        /* \"#utility.yul\":5543:5548   */\n      dup2\n        /* \"#utility.yul\":5540:5575   */\n      eq\n        /* \"#utility.yul\":5530:5593   */\n      tag_250\n      jumpi\n        /* \"#utility.yul\":5589:5590   */\n      0x00\n        /* \"#utility.yul\":5586:5587   */\n      0x00\n        /* \"#utility.yul\":5579:5591   */\n      revert\n        /* \"#utility.yul\":5530:5593   */\n    tag_250:\n        /* \"#utility.yul\":5477:5599   */\n      pop\n      jump\t// out\n        /* \"#utility.yul\":5605:5744   */\n    tag_172:\n        /* \"#utility.yul\":5651:5656   */\n      0x00\n        /* \"#utility.yul\":5689:5695   */\n      dup2\n        /* \"#utility.yul\":5676:5696   */\n      calldataload\n        /* \"#utility.yul\":5667:5696   */\n      swap1\n      pop\n        /* \"#utility.yul\":5705:5738   */\n      tag_252\n        /* \"#utility.yul\":5732:5737   */\n      dup2\n        /* \"#utility.yul\":5705:5738   */\n      tag_171\n      jump\t// in\n    tag_252:\n        /* \"#utility.yul\":5605:5744   */\n      swap3\n      swap2\n      pop\n      pop\n      jump\t// out\n        /* \"#utility.yul\":5750:6079   */\n    tag_65:\n        /* \"#utility.yul\":5809:5815   */\n      0x00\n        /* \"#utility.yul\":5858:5860   */\n      0x20\n        /* \"#utility.yul\":5846:5855   */\n      dup3\n        /* \"#utility.yul\":5837:5844   */\n      dup5\n        /* \"#utility.yul\":5833:5856   */\n      sub\n        /* \"#utility.yul\":5829:5861   */\n      slt\n        /* \"#utility.yul\":5826:5945   */\n      iszero\n      tag_254\n      jumpi\n        /* \"#utility.yul\":5864:5943   */\n      tag_255\n      tag_153\n      jump\t// in\n    tag_255:\n        /* \"#utility.yul\":5826:5945   */\n    tag_254:\n        /* \"#utility.yul\":5984:5985   */\n      0x00\n        /* \"#utility.yul\":6009:6062   */\n      tag_256\n        /* \"#utility.yul\":6054:6061   */\n      dup5\n        /* \"#utility.yul\":6045:6051   */\n      dup3\n        /* \"#utility.yul\":6034:6043   */\n      dup6\n        /* \"#utility.yul\":6030:6052   */\n      add\n        /* \"#utility.yul\":6009:6062   */\n      tag_172\n      jump\t// in\n    tag_256:\n        /* \"#utility.yul\":5999:6062   */\n      swap2\n      pop\n        /* \"#utility.yul\":5955:6072   */\n      pop\n        /* \"#utility.yul\":5750:6079   */\n      swap3\n      swap2\n      pop\n      pop\n      jump\t// out\n        /* \"#utility.yul\":6085:6175   */\n    tag_173:\n        /* \"#utility.yul\":6119:6126   */\n      0x00\n        /* \"#utility.yul\":6162:6167   */\n      dup2\n        /* \"#utility.yul\":6155:6168   */\n      iszero\n        /* \"#utility.yul\":6148:6169   */\n      iszero\n        /* \"#utility.yul\":6137:6169   */\n      swap1\n      pop\n        /* \"#utility.yul\":6085:6175   */\n      swap2\n      swap1\n      pop\n      jump\t// out\n        /* \"#utility.yul\":6181:6290   */\n    tag_174:\n        /* \"#utility.yul\":6262:6283   */\n      tag_259\n        /* \"#utility.yul\":6277:6282   */\n      dup2\n        /* \"#utility.yul\":6262:6283   */\n      tag_173\n      jump\t// in\n    tag_259:\n        /* \"#utility.yul\":6257:6260   */\n      dup3\n        /* \"#utility.yul\":6250:6284   */\n      mstore\n        /* \"#utility.yul\":6181:6290   */\n      pop\n      pop\n      jump\t// out\n        /* \"#utility.yul\":6296:6506   */\n    tag_72:\n        /* \"#utility.yul\":6383:6387   */\n      0x00\n        /* \"#utility.yul\":6421:6423   */\n      0x20\n        /* \"#utility.yul\":6410:6419   */\n      dup3\n        /* \"#utility.yul\":6406:6424   */\n      add\n        /* \"#utility.yul\":6398:6424   */\n      swap1\n      pop\n        /* \"#utility.yul\":6434:6499   */\n      tag_261\n        /* \"#utility.yul\":6496:6497   */\n      0x00\n        /* \"#utility.yul\":6485:6494   */\n      dup4\n        /* \"#utility.yul\":6481:6498   */\n      add\n        /* \"#utility.yul\":6472:6478   */\n      dup5\n        /* \"#utility.yul\":6434:6499   */\n      tag_174\n      jump\t// in\n    tag_261:\n        /* \"#utility.yul\":6296:6506   */\n      swap3\n      swap2\n      pop\n      pop\n      jump\t// out\n        /* \"#utility.yul\":6512:6681   */\n    tag_175:\n        /* \"#utility.yul\":6596:6607   */\n      0x00\n        /* \"#utility.yul\":6630:6636   */\n      dup3\n        /* \"#utility.yul\":6625:6628   */\n      dup3\n        /* \"#utility.yul\":6618:6637   */\n      mstore\n        /* \"#utility.yul\":6670:6674   */\n      0x20\n        /* \"#utility.yul\":6665:6668   */\n      dup3\n        /* \"#utility.yul\":6661:6675   */\n      add\n        /* \"#utility.yul\":6646:6675   */\n      swap1\n      pop\n        /* \"#utility.yul\":6512:6681   */\n      swap3\n      swap2\n      pop\n      pop\n      jump\t// out\n        /* \"#utility.yul\":6687:6910   */\n    tag_176:\n        /* \"#utility.yul\":6827:6861   */\n      0x4e6f207469656e6573206c6f732070726976696c6567696f73206e6563657361\n        /* \"#utility.yul\":6823:6824   */\n      0x00\n        /* \"#utility.yul\":6815:6821   */\n      dup3\n        /* \"#utility.yul\":6811:6825   */\n      add\n        /* \"#utility.yul\":6804:6862   */\n      mstore\n        /* \"#utility.yul\":6896:6902   */\n      0x72696f7300000000000000000000000000000000000000000000000000000000\n        /* \"#utility.yul\":6891:6893   */\n      0x20\n        /* \"#utility.yul\":6883:6889   */\n      dup3\n        /* \"#utility.yul\":6879:6894   */\n      add\n        /* \"#utility.yul\":6872:6903   */\n      mstore\n        /* \"#utility.yul\":6687:6910   */\n      pop\n      jump\t// out\n        /* \"#utility.yul\":6916:7282   */\n    tag_177:\n        /* \"#utility.yul\":7058:7061   */\n      0x00\n        /* \"#utility.yul\":7079:7146   */\n      tag_265\n        /* \"#utility.yul\":7143:7145   */\n      0x24\n        /* \"#utility.yul\":7138:7141   */\n      dup4\n        /* \"#utility.yul\":7079:7146   */\n      tag_175\n      jump\t// in\n    tag_265:\n        /* \"#utility.yul\":7072:7146   */\n      swap2\n      pop\n        /* \"#utility.yul\":7155:7248   */\n      tag_266\n        /* \"#utility.yul\":7244:7247   */\n      dup3\n        /* \"#utility.yul\":7155:7248   */\n      tag_176\n      jump\t// in\n    tag_266:\n        /* \"#utility.yul\":7273:7275   */\n      0x40\n        /* \"#utility.yul\":7268:7271   */\n      dup3\n        /* \"#utility.yul\":7264:7276   */\n      add\n        /* \"#utility.yul\":7257:7276   */\n      swap1\n      pop\n        /* \"#utility.yul\":6916:7282   */\n      swap2\n      swap1\n      pop\n      jump\t// out\n        /* \"#utility.yul\":7288:7707   */\n    tag_78:\n        /* \"#utility.yul\":7454:7458   */\n      0x00\n        /* \"#utility.yul\":7492:7494   */\n      0x20\n        /* \"#utility.yul\":7481:7490   */\n      dup3\n        /* \"#utility.yul\":7477:7495   */\n      add\n        /* \"#utility.yul\":7469:7495   */\n      swap1\n      pop\n        /* \"#utility.yul\":7541:7550   */\n      dup2\n        /* \"#utility.yul\":7535:7539   */\n      dup2\n        /* \"#utility.yul\":7531:7551   */\n      sub\n        /* \"#utility.yul\":7527:7528   */\n      0x00\n        /* \"#utility.yul\":7516:7525   */\n      dup4\n        /* \"#utility.yul\":7512:7529   */\n      add\n        /* \"#utility.yul\":7505:7552   */\n      mstore\n        /* \"#utility.yul\":7569:7700   */\n      tag_268\n        /* \"#utility.yul\":7695:7699   */\n      dup2\n        /* \"#utility.yul\":7569:7700   */\n      tag_177\n      jump\t// in\n    tag_268:\n        /* \"#utility.yul\":7561:7700   */\n      swap1\n      pop\n        /* \"#utility.yul\":7288:7707   */\n      swap2\n      swap1\n      pop\n      jump\t// out\n        /* \"#utility.yul\":7713:7892   */\n    tag_178:\n        /* \"#utility.yul\":7853:7884   */\n      0x4c612073756261737461206e6f206861207369646f2063657272616461000000\n        /* \"#utility.yul\":7849:7850   */\n      0x00\n        /* \"#utility.yul\":7841:7847   */\n      dup3\n        /* \"#utility.yul\":7837:7851   */\n      add\n        /* \"#utility.yul\":7830:7885   */\n      mstore\n        /* \"#utility.yul\":7713:7892   */\n      pop\n      jump\t// out\n        /* \"#utility.yul\":7898:8264   */\n    tag_179:\n        /* \"#utility.yul\":8040:8043   */\n      0x00\n        /* \"#utility.yul\":8061:8128   */\n      tag_271\n        /* \"#utility.yul\":8125:8127   */\n      0x1d\n        /* \"#utility.yul\":8120:8123   */\n      dup4\n        /* \"#utility.yul\":8061:8128   */\n      tag_175\n      jump\t// in\n    tag_271:\n        /* \"#utility.yul\":8054:8128   */\n      swap2\n      pop\n        /* \"#utility.yul\":8137:8230   */\n      tag_272\n        /* \"#utility.yul\":8226:8229   */\n      dup3\n        /* \"#utility.yul\":8137:8230   */\n      tag_178\n      jump\t// in\n    tag_272:\n        /* \"#utility.yul\":8255:8257   */\n      0x20\n        /* \"#utility.yul\":8250:8253   */\n      dup3\n        /* \"#utility.yul\":8246:8258   */\n      add\n        /* \"#utility.yul\":8239:8258   */\n      swap1\n      pop\n        /* \"#utility.yul\":7898:8264   */\n      swap2\n      swap1\n      pop\n      jump\t// out\n        /* \"#utility.yul\":8270:8689   */\n    tag_83:\n        /* \"#utility.yul\":8436:8440   */\n      0x00\n        /* \"#utility.yul\":8474:8476   */\n      0x20\n        /* \"#utility.yul\":8463:8472   */\n      dup3\n        /* \"#utility.yul\":8459:8477   */\n      add\n        /* \"#utility.yul\":8451:8477   */\n      swap1\n      pop\n        /* \"#utility.yul\":8523:8532   */\n      dup2\n        /* \"#utility.yul\":8517:8521   */\n      dup2\n        /* \"#utility.yul\":8513:8533   */\n      sub\n        /* \"#utility.yul\":8509:8510   */\n      0x00\n        /* \"#utility.yul\":8498:8507   */\n      dup4\n        /* \"#utility.yul\":8494:8511   */\n      add\n        /* \"#utility.yul\":8487:8534   */\n      mstore\n        /* \"#utility.yul\":8551:8682   */\n      tag_274\n        /* \"#utility.yul\":8677:8681   */\n      dup2\n        /* \"#utility.yul\":8551:8682   */\n      tag_179\n      jump\t// in\n    tag_274:\n        /* \"#utility.yul\":8543:8682   */\n      swap1\n      pop\n        /* \"#utility.yul\":8270:8689   */\n      swap2\n      swap1\n      pop\n      jump\t// out\n        /* \"#utility.yul\":8695:8872   */\n    tag_180:\n        /* \"#utility.yul\":8835:8864   */\n      0x4c6120737562617374612079612068612066696e616c697a61646f0000000000\n        /* \"#utility.yul\":8831:8832   */\n      0x00\n        /* \"#utility.yul\":8823:8829   */\n      dup3\n        /* \"#utility.yul\":8819:8833   */\n      add\n        /* \"#utility.yul\":8812:8865   */\n      mstore\n        /* \"#utility.yul\":8695:8872   */\n      pop\n      jump\t// out\n        /* \"#utility.yul\":8878:9244   */\n    tag_181:\n        /* \"#utility.yul\":9020:9023   */\n      0x00\n        /* \"#utility.yul\":9041:9108   */\n      tag_277\n        /* \"#utility.yul\":9105:9107   */\n      0x1b\n        /* \"#utility.yul\":9100:9103   */\n      dup4\n        /* \"#utility.yul\":9041:9108   */\n      tag_175\n      jump\t// in\n    tag_277:\n        /* \"#utility.yul\":9034:9108   */\n      swap2\n      pop\n        /* \"#utility.yul\":9117:9210   */\n      tag_278\n        /* \"#utility.yul\":9206:9209   */\n      dup3\n        /* \"#utility.yul\":9117:9210   */\n      tag_180\n      jump\t// in\n    tag_278:\n        /* \"#utility.yul\":9235:9237   */\n      0x20\n        /* \"#utility.yul\":9230:9233   */\n      dup3\n        /* \"#utility.yul\":9226:9238   */\n      add\n        /* \"#utility.yul\":9219:9238   */\n      swap1\n      pop\n        /* \"#utility.yul\":8878:9244   */\n      swap2\n      swap1\n      pop\n      jump\t// out\n        /* \"#utility.yul\":9250:9669   */\n    tag_88:\n        /* \"#utility.yul\":9416:9420   */\n      0x00\n        /* \"#utility.yul\":9454:9456   */\n      0x20\n        /* \"#utility.yul\":9443:9452   */\n      dup3\n        /* \"#utility.yul\":9439:9457   */\n      add\n        /* \"#utility.yul\":9431:9457   */\n      swap1\n      pop\n        /* \"#utility.yul\":9503:9512   */\n      dup2\n        /* \"#utility.yul\":9497:9501   */\n      dup2\n        /* \"#utility.yul\":9493:9513   */\n      sub\n        /* \"#utility.yul\":9489:9490   */\n      0x00\n        /* \"#utility.yul\":9478:9487   */\n      dup4\n        /* \"#utility.yul\":9474:9491   */\n      add\n        /* \"#utility.yul\":9467:9514   */\n      mstore\n        /* \"#utility.yul\":9531:9662   */\n      tag_280\n        /* \"#utility.yul\":9657:9661   */\n      dup2\n        /* \"#utility.yul\":9531:9662   */\n      tag_181\n      jump\t// in\n    tag_280:\n        /* \"#utility.yul\":9523:9662   */\n      swap1\n      pop\n        /* \"#utility.yul\":9250:9669   */\n      swap2\n      swap1\n      pop\n      jump\t// out\n        /* \"#utility.yul\":9675:9846   */\n    tag_182:\n        /* \"#utility.yul\":9815:9838   */\n      0x4c6120737562617374612066696e616c697a6164610000000000000000000000\n        /* \"#utility.yul\":9811:9812   */\n      0x00\n        /* \"#utility.yul\":9803:9809   */\n      dup3\n        /* \"#utility.yul\":9799:9813   */\n      add\n        /* \"#utility.yul\":9792:9839   */\n      mstore\n        /* \"#utility.yul\":9675:9846   */\n      pop\n      jump\t// out\n        /* \"#utility.yul\":9852:10218   */\n    tag_183:\n        /* \"#utility.yul\":9994:9997   */\n      0x00\n        /* \"#utility.yul\":10015:10082   */\n      tag_283\n        /* \"#utility.yul\":10079:10081   */\n      0x15\n        /* \"#utility.yul\":10074:10077   */\n      dup4\n        /* \"#utility.yul\":10015:10082   */\n      tag_175\n      jump\t// in\n    tag_283:\n        /* \"#utility.yul\":10008:10082   */\n      swap2\n      pop\n        /* \"#utility.yul\":10091:10184   */\n      tag_284\n        /* \"#utility.yul\":10180:10183   */\n      dup3\n        /* \"#utility.yul\":10091:10184   */\n      tag_182\n      jump\t// in\n    tag_284:\n        /* \"#utility.yul\":10209:10211   */\n      0x20\n        /* \"#utility.yul\":10204:10207   */\n      dup3\n        /* \"#utility.yul\":10200:10212   */\n      add\n        /* \"#utility.yul\":10193:10212   */\n      swap1\n      pop\n        /* \"#utility.yul\":9852:10218   */\n      swap2\n      swap1\n      pop\n      jump\t// out\n        /* \"#utility.yul\":10224:10643   */\n    tag_91:\n        /* \"#utility.yul\":10390:10394   */\n      0x00\n        /* \"#utility.yul\":10428:10430   */\n      0x20\n        /* \"#utility.yul\":10417:10426   */\n      dup3\n        /* \"#utility.yul\":10413:10431   */\n      add\n        /* \"#utility.yul\":10405:10431   */\n      swap1\n      pop\n        /* \"#utility.yul\":10477:10486   */\n      dup2\n        /* \"#utility.yul\":10471:10475   */\n      dup2\n        /* \"#utility.yul\":10467:10487   */\n      sub\n        /* \"#utility.yul\":10463:10464   */\n      0x00\n        /* \"#utility.yul\":10452:10461   */\n      dup4\n        /* \"#utility.yul\":10448:10465   */\n      add\n        /* \"#utility.yul\":10441:10488   */\n      mstore\n        /* \"#utility.yul\":10505:10636   */\n      tag_286\n        /* \"#utility.yul\":10631:10635   */\n      dup2\n        /* \"#utility.yul\":10505:10636   */\n      tag_183\n      jump\t// in\n    tag_286:\n        /* \"#utility.yul\":10497:10636   */\n      swap1\n      pop\n        /* \"#utility.yul\":10224:10643   */\n      swap2\n      swap1\n      pop\n      jump\t// out\n        /* \"#utility.yul\":10649:10815   */\n    tag_184:\n        /* \"#utility.yul\":10789:10807   */\n      0x446562657320656e766961722045544800000000000000000000000000000000\n        /* \"#utility.yul\":10785:10786   */\n      0x00\n        /* \"#utility.yul\":10777:10783   */\n      dup3\n        /* \"#utility.yul\":10773:10787   */\n      add\n        /* \"#utility.yul\":10766:10808   */\n      mstore\n        /* \"#utility.yul\":10649:10815   */\n      pop\n      jump\t// out\n        /* \"#utility.yul\":10821:11187   */\n    tag_185:\n        /* \"#utility.yul\":10963:10966   */\n      0x00\n        /* \"#utility.yul\":10984:11051   */\n      tag_289\n        /* \"#utility.yul\":11048:11050   */\n      0x10\n        /* \"#utility.yul\":11043:11046   */\n      dup4\n        /* \"#utility.yul\":10984:11051   */\n      tag_175\n      jump\t// in\n    tag_289:\n        /* \"#utility.yul\":10977:11051   */\n      swap2\n      pop\n        /* \"#utility.yul\":11060:11153   */\n      tag_290\n        /* \"#utility.yul\":11149:11152   */\n      dup3\n        /* \"#utility.yul\":11060:11153   */\n      tag_184\n      jump\t// in\n    tag_290:\n        /* \"#utility.yul\":11178:11180   */\n      0x20\n        /* \"#utility.yul\":11173:11176   */\n      dup3\n        /* \"#utility.yul\":11169:11181   */\n      add\n        /* \"#utility.yul\":11162:11181   */\n      swap1\n      pop\n        /* \"#utility.yul\":10821:11187   */\n      swap2\n      swap1\n      pop\n      jump\t// out\n        /* \"#utility.yul\":11193:11612   */\n    tag_95:\n        /* \"#utility.yul\":11359:11363   */\n      0x00\n        /* \"#utility.yul\":11397:11399   */\n      0x20\n        /* \"#utility.yul\":11386:11395   */\n      dup3\n        /* \"#utility.yul\":11382:11400   */\n      add\n        /* \"#utility.yul\":11374:11400   */\n      swap1\n      pop\n        /* \"#utility.yul\":11446:11455   */\n      dup2\n        /* \"#utility.yul\":11440:11444   */\n      dup2\n        /* \"#utility.yul\":11436:11456   */\n      sub\n        /* \"#utility.yul\":11432:11433   */\n      0x00\n        /* \"#utility.yul\":11421:11430   */\n      dup4\n        /* \"#utility.yul\":11417:11434   */\n      add\n        /* \"#utility.yul\":11410:11457   */\n      mstore\n        /* \"#utility.yul\":11474:11605   */\n      tag_292\n        /* \"#utility.yul\":11600:11604   */\n      dup2\n        /* \"#utility.yul\":11474:11605   */\n      tag_185\n      jump\t// in\n    tag_292:\n        /* \"#utility.yul\":11466:11605   */\n      swap1\n      pop\n        /* \"#utility.yul\":11193:11612   */\n      swap2\n      swap1\n      pop\n      jump\t// out\n        /* \"#utility.yul\":11618:11798   */\n    tag_186:\n        /* \"#utility.yul\":11666:11743   */\n      0x4e487b7100000000000000000000000000000000000000000000000000000000\n        /* \"#utility.yul\":11663:11664   */\n      0x00\n        /* \"#utility.yul\":11656:11744   */\n      mstore\n        /* \"#utility.yul\":11763:11767   */\n      0x11\n        /* \"#utility.yul\":11760:11761   */\n      0x04\n        /* \"#utility.yul\":11753:11768   */\n      mstore\n        /* \"#utility.yul\":11787:11791   */\n      0x24\n        /* \"#utility.yul\":11784:11785   */\n      0x00\n        /* \"#utility.yul\":11777:11792   */\n      revert\n        /* \"#utility.yul\":11804:12214   */\n    tag_97:\n        /* \"#utility.yul\":11844:11851   */\n      0x00\n        /* \"#utility.yul\":11867:11887   */\n      tag_295\n        /* \"#utility.yul\":11885:11886   */\n      dup3\n        /* \"#utility.yul\":11867:11887   */\n      tag_155\n      jump\t// in\n    tag_295:\n        /* \"#utility.yul\":11862:11887   */\n      swap2\n      pop\n        /* \"#utility.yul\":11901:11921   */\n      tag_296\n        /* \"#utility.yul\":11919:11920   */\n      dup4\n        /* \"#utility.yul\":11901:11921   */\n      tag_155\n      jump\t// in\n    tag_296:\n        /* \"#utility.yul\":11896:11921   */\n      swap3\n      pop\n        /* \"#utility.yul\":11956:11957   */\n      dup3\n        /* \"#utility.yul\":11953:11954   */\n      dup3\n        /* \"#utility.yul\":11949:11958   */\n      mul\n        /* \"#utility.yul\":11978:12008   */\n      tag_297\n        /* \"#utility.yul\":11996:12007   */\n      dup2\n        /* \"#utility.yul\":11978:12008   */\n      tag_155\n      jump\t// in\n    tag_297:\n        /* \"#utility.yul\":11967:12008   */\n      swap2\n      pop\n        /* \"#utility.yul\":12157:12158   */\n      dup3\n        /* \"#utility.yul\":12148:12155   */\n      dup3\n        /* \"#utility.yul\":12144:12159   */\n      div\n        /* \"#utility.yul\":12141:12142   */\n      dup5\n        /* \"#utility.yul\":12138:12160   */\n      eq\n        /* \"#utility.yul\":12118:12119   */\n      dup4\n        /* \"#utility.yul\":12111:12120   */\n      iszero\n        /* \"#utility.yul\":12091:12174   */\n      or\n        /* \"#utility.yul\":12068:12207   */\n      tag_298\n      jumpi\n        /* \"#utility.yul\":12187:12205   */\n      tag_299\n      tag_186\n      jump\t// in\n    tag_299:\n        /* \"#utility.yul\":12068:12207   */\n    tag_298:\n        /* \"#utility.yul\":11852:12214   */\n      pop\n        /* \"#utility.yul\":11804:12214   */\n      swap3\n      swap2\n      pop\n      pop\n      jump\t// out\n        /* \"#utility.yul\":12220:12400   */\n    tag_187:\n        /* \"#utility.yul\":12268:12345   */\n      0x4e487b7100000000000000000000000000000000000000000000000000000000\n        /* \"#utility.yul\":12265:12266   */\n      0x00\n        /* \"#utility.yul\":12258:12346   */\n      mstore\n        /* \"#utility.yul\":12365:12369   */\n      0x12\n        /* \"#utility.yul\":12362:12363   */\n      0x04\n        /* \"#utility.yul\":12355:12370   */\n      mstore\n        /* \"#utility.yul\":12389:12393   */\n      0x24\n        /* \"#utility.yul\":12386:12387   */\n      0x00\n        /* \"#utility.yul\":12379:12394   */\n      revert\n        /* \"#utility.yul\":12406:12591   */\n    tag_99:\n        /* \"#utility.yul\":12446:12447   */\n      0x00\n        /* \"#utility.yul\":12463:12483   */\n      tag_302\n        /* \"#utility.yul\":12481:12482   */\n      dup3\n        /* \"#utility.yul\":12463:12483   */\n      tag_155\n      jump\t// in\n    tag_302:\n        /* \"#utility.yul\":12458:12483   */\n      swap2\n      pop\n        /* \"#utility.yul\":12497:12517   */\n      tag_303\n        /* \"#utility.yul\":12515:12516   */\n      dup4\n        /* \"#utility.yul\":12497:12517   */\n      tag_155\n      jump\t// in\n    tag_303:\n        /* \"#utility.yul\":12492:12517   */\n      swap3\n      pop\n        /* \"#utility.yul\":12536:12537   */\n      dup3\n        /* \"#utility.yul\":12526:12561   */\n      tag_304\n      jumpi\n        /* \"#utility.yul\":12541:12559   */\n      tag_305\n      tag_187\n      jump\t// in\n    tag_305:\n        /* \"#utility.yul\":12526:12561   */\n    tag_304:\n        /* \"#utility.yul\":12583:12584   */\n      dup3\n        /* \"#utility.yul\":12580:12581   */\n      dup3\n        /* \"#utility.yul\":12576:12585   */\n      div\n        /* \"#utility.yul\":12571:12585   */\n      swap1\n      pop\n        /* \"#utility.yul\":12406:12591   */\n      swap3\n      swap2\n      pop\n      pop\n      jump\t// out\n        /* \"#utility.yul\":12597:12834   */\n    tag_188:\n        /* \"#utility.yul\":12737:12771   */\n      0x6c61206f66657274612064656265207375706572617220616c206d656e6f7320\n        /* \"#utility.yul\":12733:12734   */\n      0x00\n        /* \"#utility.yul\":12725:12731   */\n      dup3\n        /* \"#utility.yul\":12721:12735   */\n      add\n        /* \"#utility.yul\":12714:12772   */\n      mstore\n        /* \"#utility.yul\":12806:12826   */\n      0x756e203525206465206c612061637475616c0000000000000000000000000000\n        /* \"#utility.yul\":12801:12803   */\n      0x20\n        /* \"#utility.yul\":12793:12799   */\n      dup3\n        /* \"#utility.yul\":12789:12804   */\n      add\n        /* \"#utility.yul\":12782:12827   */\n      mstore\n        /* \"#utility.yul\":12597:12834   */\n      pop\n      jump\t// out\n        /* \"#utility.yul\":12840:13206   */\n    tag_189:\n        /* \"#utility.yul\":12982:12985   */\n      0x00\n        /* \"#utility.yul\":13003:13070   */\n      tag_308\n        /* \"#utility.yul\":13067:13069   */\n      0x32\n        /* \"#utility.yul\":13062:13065   */\n      dup4\n        /* \"#utility.yul\":13003:13070   */\n      tag_175\n      jump\t// in\n    tag_308:\n        /* \"#utility.yul\":12996:13070   */\n      swap2\n      pop\n        /* \"#utility.yul\":13079:13172   */\n      tag_309\n        /* \"#utility.yul\":13168:13171   */\n      dup3\n        /* \"#utility.yul\":13079:13172   */\n      tag_188\n      jump\t// in\n    tag_309:\n        /* \"#utility.yul\":13197:13199   */\n      0x40\n        /* \"#utility.yul\":13192:13195   */\n      dup3\n        /* \"#utility.yul\":13188:13200   */\n      add\n        /* \"#utility.yul\":13181:13200   */\n      swap1\n      pop\n        /* \"#utility.yul\":12840:13206   */\n      swap2\n      swap1\n      pop\n      jump\t// out\n        /* \"#utility.yul\":13212:13631   */\n    tag_103:\n        /* \"#utility.yul\":13378:13382   */\n      0x00\n        /* \"#utility.yul\":13416:13418   */\n      0x20\n        /* \"#utility.yul\":13405:13414   */\n      dup3\n        /* \"#utility.yul\":13401:13419   */\n      add\n        /* \"#utility.yul\":13393:13419   */\n      swap1\n      pop\n        /* \"#utility.yul\":13465:13474   */\n      dup2\n        /* \"#utility.yul\":13459:13463   */\n      dup2\n        /* \"#utility.yul\":13455:13475   */\n      sub\n        /* \"#utility.yul\":13451:13452   */\n      0x00\n        /* \"#utility.yul\":13440:13449   */\n      dup4\n        /* \"#utility.yul\":13436:13453   */\n      add\n        /* \"#utility.yul\":13429:13476   */\n      mstore\n        /* \"#utility.yul\":13493:13624   */\n      tag_311\n        /* \"#utility.yul\":13619:13623   */\n      dup2\n        /* \"#utility.yul\":13493:13624   */\n      tag_189\n      jump\t// in\n    tag_311:\n        /* \"#utility.yul\":13485:13624   */\n      swap1\n      pop\n        /* \"#utility.yul\":13212:13631   */\n      swap2\n      swap1\n      pop\n      jump\t// out\n        /* \"#utility.yul\":13637:13828   */\n    tag_105:\n        /* \"#utility.yul\":13677:13680   */\n      0x00\n        /* \"#utility.yul\":13696:13716   */\n      tag_313\n        /* \"#utility.yul\":13714:13715   */\n      dup3\n        /* \"#utility.yul\":13696:13716   */\n      tag_155\n      jump\t// in\n    tag_313:\n        /* \"#utility.yul\":13691:13716   */\n      swap2\n      pop\n        /* \"#utility.yul\":13730:13750   */\n      tag_314\n        /* \"#utility.yul\":13748:13749   */\n      dup4\n        /* \"#utility.yul\":13730:13750   */\n      tag_155\n      jump\t// in\n    tag_314:\n        /* \"#utility.yul\":13725:13750   */\n      swap3\n      pop\n        /* \"#utility.yul\":13773:13774   */\n      dup3\n        /* \"#utility.yul\":13770:13771   */\n      dup3\n        /* \"#utility.yul\":13766:13775   */\n      add\n        /* \"#utility.yul\":13759:13775   */\n      swap1\n      pop\n        /* \"#utility.yul\":13794:13797   */\n      dup1\n        /* \"#utility.yul\":13791:13792   */\n      dup3\n        /* \"#utility.yul\":13788:13798   */\n      gt\n        /* \"#utility.yul\":13785:13821   */\n      iszero\n      tag_315\n      jumpi\n        /* \"#utility.yul\":13801:13819   */\n      tag_316\n      tag_186\n      jump\t// in\n    tag_316:\n        /* \"#utility.yul\":13785:13821   */\n    tag_315:\n        /* \"#utility.yul\":13637:13828   */\n      swap3\n      swap2\n      pop\n      pop\n      jump\t// out\n        /* \"#utility.yul\":13834:14028   */\n    tag_108:\n        /* \"#utility.yul\":13874:13878   */\n      0x00\n        /* \"#utility.yul\":13894:13914   */\n      tag_318\n        /* \"#utility.yul\":13912:13913   */\n      dup3\n        /* \"#utility.yul\":13894:13914   */\n      tag_155\n      jump\t// in\n    tag_318:\n        /* \"#utility.yul\":13889:13914   */\n      swap2\n      pop\n        /* \"#utility.yul\":13928:13948   */\n      tag_319\n        /* \"#utility.yul\":13946:13947   */\n      dup4\n        /* \"#utility.yul\":13928:13948   */\n      tag_155\n      jump\t// in\n    tag_319:\n        /* \"#utility.yul\":13923:13948   */\n      swap3\n      pop\n        /* \"#utility.yul\":13972:13973   */\n      dup3\n        /* \"#utility.yul\":13969:13970   */\n      dup3\n        /* \"#utility.yul\":13965:13974   */\n      sub\n        /* \"#utility.yul\":13957:13974   */\n      swap1\n      pop\n        /* \"#utility.yul\":13996:13997   */\n      dup2\n        /* \"#utility.yul\":13990:13994   */\n      dup2\n        /* \"#utility.yul\":13987:13998   */\n      gt\n        /* \"#utility.yul\":13984:14021   */\n      iszero\n      tag_320\n      jumpi\n        /* \"#utility.yul\":14001:14019   */\n      tag_321\n      tag_186\n      jump\t// in\n    tag_321:\n        /* \"#utility.yul\":13984:14021   */\n    tag_320:\n        /* \"#utility.yul\":13834:14028   */\n      swap3\n      swap2\n      pop\n      pop\n      jump\t// out\n        /* \"#utility.yul\":14034:14214   */\n    tag_190:\n        /* \"#utility.yul\":14174:14206   */\n      0x456c2067616e61646f72206e6f20726563696265207265656d626f6c736f0000\n        /* \"#utility.yul\":14170:14171   */\n      0x00\n        /* \"#utility.yul\":14162:14168   */\n      dup3\n        /* \"#utility.yul\":14158:14172   */\n      add\n        /* \"#utility.yul\":14151:14207   */\n      mstore\n        /* \"#utility.yul\":14034:14214   */\n      pop\n      jump\t// out\n        /* \"#utility.yul\":14220:14586   */\n    tag_191:\n        /* \"#utility.yul\":14362:14365   */\n      0x00\n        /* \"#utility.yul\":14383:14450   */\n      tag_324\n        /* \"#utility.yul\":14447:14449   */\n      0x1e\n        /* \"#utility.yul\":14442:14445   */\n      dup4\n        /* \"#utility.yul\":14383:14450   */\n      tag_175\n      jump\t// in\n    tag_324:\n        /* \"#utility.yul\":14376:14450   */\n      swap2\n      pop\n        /* \"#utility.yul\":14459:14552   */\n      tag_325\n        /* \"#utility.yul\":14548:14551   */\n      dup3\n        /* \"#utility.yul\":14459:14552   */\n      tag_190\n      jump\t// in\n    tag_325:\n        /* \"#utility.yul\":14577:14579   */\n      0x20\n        /* \"#utility.yul\":14572:14575   */\n      dup3\n        /* \"#utility.yul\":14568:14580   */\n      add\n        /* \"#utility.yul\":14561:14580   */\n      swap1\n      pop\n        /* \"#utility.yul\":14220:14586   */\n      swap2\n      swap1\n      pop\n      jump\t// out\n        /* \"#utility.yul\":14592:15011   */\n    tag_119:\n        /* \"#utility.yul\":14758:14762   */\n      0x00\n        /* \"#utility.yul\":14796:14798   */\n      0x20\n        /* \"#utility.yul\":14785:14794   */\n      dup3\n        /* \"#utility.yul\":14781:14799   */\n      add\n        /* \"#utility.yul\":14773:14799   */\n      swap1\n      pop\n        /* \"#utility.yul\":14845:14854   */\n      dup2\n        /* \"#utility.yul\":14839:14843   */\n      dup2\n        /* \"#utility.yul\":14835:14855   */\n      sub\n        /* \"#utility.yul\":14831:14832   */\n      0x00\n        /* \"#utility.yul\":14820:14829   */\n      dup4\n        /* \"#utility.yul\":14816:14833   */\n      add\n        /* \"#utility.yul\":14809:14856   */\n      mstore\n        /* \"#utility.yul\":14873:15004   */\n      tag_327\n        /* \"#utility.yul\":14999:15003   */\n      dup2\n        /* \"#utility.yul\":14873:15004   */\n      tag_191\n      jump\t// in\n    tag_327:\n        /* \"#utility.yul\":14865:15004   */\n      swap1\n      pop\n        /* \"#utility.yul\":14592:15011   */\n      swap2\n      swap1\n      pop\n      jump\t// out\n        /* \"#utility.yul\":15017:15192   */\n    tag_192:\n        /* \"#utility.yul\":15157:15184   */\n      0x4e6f20686179206e6164612070617261206465766f6c76657200000000000000\n        /* \"#utility.yul\":15153:15154   */\n      0x00\n        /* \"#utility.yul\":15145:15151   */\n      dup3\n        /* \"#utility.yul\":15141:15155   */\n      add\n        /* \"#utility.yul\":15134:15185   */\n      mstore\n        /* \"#utility.yul\":15017:15192   */\n      pop\n      jump\t// out\n        /* \"#utility.yul\":15198:15564   */\n    tag_193:\n        /* \"#utility.yul\":15340:15343   */\n      0x00\n        /* \"#utility.yul\":15361:15428   */\n      tag_330\n        /* \"#utility.yul\":15425:15427   */\n      0x19\n        /* \"#utility.yul\":15420:15423   */\n      dup4\n        /* \"#utility.yul\":15361:15428   */\n      tag_175\n      jump\t// in\n    tag_330:\n        /* \"#utility.yul\":15354:15428   */\n      swap2\n      pop\n        /* \"#utility.yul\":15437:15530   */\n      tag_331\n        /* \"#utility.yul\":15526:15529   */\n      dup3\n        /* \"#utility.yul\":15437:15530   */\n      tag_192\n      jump\t// in\n    tag_331:\n        /* \"#utility.yul\":15555:15557   */\n      0x20\n        /* \"#utility.yul\":15550:15553   */\n      dup3\n        /* \"#utility.yul\":15546:15558   */\n      add\n        /* \"#utility.yul\":15539:15558   */\n      swap1\n      pop\n        /* \"#utility.yul\":15198:15564   */\n      swap2\n      swap1\n      pop\n      jump\t// out\n        /* \"#utility.yul\":15570:15989   */\n    tag_122:\n        /* \"#utility.yul\":15736:15740   */\n      0x00\n        /* \"#utility.yul\":15774:15776   */\n      0x20\n        /* \"#utility.yul\":15763:15772   */\n      dup3\n        /* \"#utility.yul\":15759:15777   */\n      add\n        /* \"#utility.yul\":15751:15777   */\n      swap1\n      pop\n        /* \"#utility.yul\":15823:15832   */\n      dup2\n        /* \"#utility.yul\":15817:15821   */\n      dup2\n        /* \"#utility.yul\":15813:15833   */\n      sub\n        /* \"#utility.yul\":15809:15810   */\n      0x00\n        /* \"#utility.yul\":15798:15807   */\n      dup4\n        /* \"#utility.yul\":15794:15811   */\n      add\n        /* \"#utility.yul\":15787:15834   */\n      mstore\n        /* \"#utility.yul\":15851:15982   */\n      tag_333\n        /* \"#utility.yul\":15977:15981   */\n      dup2\n        /* \"#utility.yul\":15851:15982   */\n      tag_193\n      jump\t// in\n    tag_333:\n        /* \"#utility.yul\":15843:15982   */\n      swap1\n      pop\n        /* \"#utility.yul\":15570:15989   */\n      swap2\n      swap1\n      pop\n      jump\t// out\n        /* \"#utility.yul\":15995:16171   */\n    tag_194:\n        /* \"#utility.yul\":16135:16163   */\n      0x4e6f206861792065786365736f20706172612072657469726172000000000000\n        /* \"#utility.yul\":16131:16132   */\n      0x00\n        /* \"#utility.yul\":16123:16129   */\n      dup3\n        /* \"#utility.yul\":16119:16133   */\n      add\n        /* \"#utility.yul\":16112:16164   */\n      mstore\n        /* \"#utility.yul\":15995:16171   */\n      pop\n      jump\t// out\n        /* \"#utility.yul\":16177:16543   */\n    tag_195:\n        /* \"#utility.yul\":16319:16322   */\n      0x00\n        /* \"#utility.yul\":16340:16407   */\n      tag_336\n        /* \"#utility.yul\":16404:16406   */\n      0x1a\n        /* \"#utility.yul\":16399:16402   */\n      dup4\n        /* \"#utility.yul\":16340:16407   */\n      tag_175\n      jump\t// in\n    tag_336:\n        /* \"#utility.yul\":16333:16407   */\n      swap2\n      pop\n        /* \"#utility.yul\":16416:16509   */\n      tag_337\n        /* \"#utility.yul\":16505:16508   */\n      dup3\n        /* \"#utility.yul\":16416:16509   */\n      tag_194\n      jump\t// in\n    tag_337:\n        /* \"#utility.yul\":16534:16536   */\n      0x20\n        /* \"#utility.yul\":16529:16532   */\n      dup3\n        /* \"#utility.yul\":16525:16537   */\n      add\n        /* \"#utility.yul\":16518:16537   */\n      swap1\n      pop\n        /* \"#utility.yul\":16177:16543   */\n      swap2\n      swap1\n      pop\n      jump\t// out\n        /* \"#utility.yul\":16549:16968   */\n    tag_148:\n        /* \"#utility.yul\":16715:16719   */\n      0x00\n        /* \"#utility.yul\":16753:16755   */\n      0x20\n        /* \"#utility.yul\":16742:16751   */\n      dup3\n        /* \"#utility.yul\":16738:16756   */\n      add\n        /* \"#utility.yul\":16730:16756   */\n      swap1\n      pop\n        /* \"#utility.yul\":16802:16811   */\n      dup2\n        /* \"#utility.yul\":16796:16800   */\n      dup2\n        /* \"#utility.yul\":16792:16812   */\n      sub\n        /* \"#utility.yul\":16788:16789   */\n      0x00\n        /* \"#utility.yul\":16777:16786   */\n      dup4\n        /* \"#utility.yul\":16773:16790   */\n      add\n        /* \"#utility.yul\":16766:16813   */\n      mstore\n        /* \"#utility.yul\":16830:16961   */\n      tag_339\n        /* \"#utility.yul\":16956:16960   */\n      dup2\n        /* \"#utility.yul\":16830:16961   */\n      tag_195\n      jump\t// in\n    tag_339:\n        /* \"#utility.yul\":16822:16961   */\n      swap1\n      pop\n        /* \"#utility.yul\":16549:16968   */\n      swap2\n      swap1\n      pop\n      jump\t// out\n\n    auxdata: 0xa26469706673582212201606598b4588516a239226208cb35e999d9400f00a3fe13a1a0d432ffad3db1364736f6c634300081e0033\n}\n",
				"bytecode": {
					"linkReferences": {},
					"object": "60806040526002600755348015610014575f5ffd5b506040516117253803806117258339818101604052810190610036919061015b565b335f5f6101000a81548173ffffffffffffffffffffffffffffffffffffffff021916908373ffffffffffffffffffffffffffffffffffffffff160217905550804261008191906101b3565b60018190555060405180604001604052805f73ffffffffffffffffffffffffffffffffffffffff1681526020015f81525060035f820151815f015f6101000a81548173ffffffffffffffffffffffffffffffffffffffff021916908373ffffffffffffffffffffffffffffffffffffffff160217905550602082015181600101559050505f60025f6101000a81548160ff021916908315150217905550506101e6565b5f5ffd5b5f819050919050565b61013a81610128565b8114610144575f5ffd5b50565b5f8151905061015581610131565b92915050565b5f602082840312156101705761016f610124565b5b5f61017d84828501610147565b91505092915050565b7f4e487b71000000000000000000000000000000000000000000000000000000005f52601160045260245ffd5b5f6101bd82610128565b91506101c883610128565b92508282019050808211156101e0576101df610186565b5b92915050565b611532806101f35f395ff3fe6080604052600436106100c0575f3560e01c80638f9607cb1161007e578063c190231911610058578063c19023191461020b578063e97edacd14610221578063f3e3b4a11461024b578063ffbfc18914610287576100c0565b80638f9607cb1461018b578063a716ce52146101b6578063acfc9f98146101e0576100c0565b806299c6aa146100c45780630851eac2146101015780633c4f81cd146101175780633ec059d7146101415780635298a3c41461014b5780635b31c15c14610161575b5f5ffd5b3480156100cf575f5ffd5b506100ea60048036038101906100e59190610d5a565b6102b1565b6040516100f8929190610dd3565b60405180910390f35b34801561010c575f5ffd5b506101156102ff565b005b348015610122575f5ffd5b5061012b6103ea565b6040516101389190610dfa565b60405180910390f35b61014961040e565b005b348015610156575f5ffd5b5061015f61072f565b005b34801561016c575f5ffd5b50610175610955565b6040516101829190610e13565b60405180910390f35b348015610196575f5ffd5b5061019f61095b565b6040516101ad929190610dd3565b60405180910390f35b3480156101c1575f5ffd5b506101ca6109ea565b6040516101d79190610f1f565b60405180910390f35b3480156101eb575f5ffd5b506101f4610aa4565b604051610202929190610dd3565b60405180910390f35b348015610216575f5ffd5b5061021f610ad4565b005b34801561022c575f5ffd5b50610235610cf6565b6040516102429190610e13565b60405180910390f35b348015610256575f5ffd5b50610271600480360381019061026c9190610f69565b610cfc565b60405161027e9190610e13565b60405180910390f35b348015610292575f5ffd5b5061029b610d11565b6040516102a89190610fae565b60405180910390f35b600581815481106102c0575f80fd5b905f5260205f2090600202015f91509050805f015f9054906101000a900473ffffffffffffffffffffffffffffffffffffffff16908060010154905082565b5f5f9054906101000a900473ffffffffffffffffffffffffffffffffffffffff1673ffffffffffffffffffffffffffffffffffffffff163373ffffffffffffffffffffffffffffffffffffffff161461038d576040517f08c379a000000000000000000000000000000000000000000000000000000000815260040161038490611047565b60405180910390fd5b600154421015806103a9575060025f9054906101000a900460ff165b6103e8576040517f08c379a00000000000000000000000000000000000000000000000000000000081526004016103df906110af565b60405180910390fd5b565b5f5f9054906101000a900473ffffffffffffffffffffffffffffffffffffffff1681565b6001544210610452576040517f08c379a000000000000000000000000000000000000000000000000000000000815260040161044990611117565b60405180910390fd5b60025f9054906101000a900460ff16156104a1576040517f08c379a00000000000000000000000000000000000000000000000000000000081526004016104989061117f565b60405180910390fd5b5f34116104e3576040517f08c379a00000000000000000000000000000000000000000000000000000000081526004016104da906111e7565b60405180910390fd5b5f606460696003600101546104f89190611232565b61050291906112a0565b90505f6003600101540361051557600190505b80341015610558576040517f08c379a000000000000000000000000000000000000000000000000000000000815260040161054f90611340565b60405180910390fd5b3460065f3373ffffffffffffffffffffffffffffffffffffffff1673ffffffffffffffffffffffffffffffffffffffff1681526020019081526020015f205f8282546105a4919061135e565b9250508190555060405180604001604052803373ffffffffffffffffffffffffffffffffffffffff1681526020013481525060035f820151815f015f6101000a81548173ffffffffffffffffffffffffffffffffffffffff021916908373ffffffffffffffffffffffffffffffffffffffff1602179055506020820151816001015590505060056003908060018154018082558091505060019003905f5260205f2090600202015f909190919091505f82015f9054906101000a900473ffffffffffffffffffffffffffffffffffffffff16815f015f6101000a81548173ffffffffffffffffffffffffffffffffffffffff021916908373ffffffffffffffffffffffffffffffffffffffff160217905550600182015481600101555050610258426001546106d39190611391565b116106f35761025860015f8282546106eb919061135e565b925050819055505b7f95857b38ee8dc53af505aa6f2e904ed3e8bc1605141a9ac1a507549a28d5cdd93334604051610724929190610dd3565b60405180910390a150565b6001544210158061074b575060025f9054906101000a900460ff165b61078a576040517f08c379a0000000000000000000000000000000000000000000000000000000008152600401610781906110af565b60405180910390fd5b60035f015f9054906101000a900473ffffffffffffffffffffffffffffffffffffffff1673ffffffffffffffffffffffffffffffffffffffff163373ffffffffffffffffffffffffffffffffffffffff160361081b576040517f08c379a00000000000000000000000000000000000000000000000000000000081526004016108129061140e565b60405180910390fd5b5f60065f3373ffffffffffffffffffffffffffffffffffffffff1673ffffffffffffffffffffffffffffffffffffffff1681526020019081526020015f205490505f811161089e576040517f08c379a000000000000000000000000000000000000000000000000000000000815260040161089590611476565b60405180910390fd5b5f6064600754836108af9190611232565b6108b991906112a0565b90505f81836108c89190611391565b90505f60065f3373ffffffffffffffffffffffffffffffffffffffff1673ffffffffffffffffffffffffffffffffffffffff1681526020019081526020015f20819055503373ffffffffffffffffffffffffffffffffffffffff166108fc8290811502906040515f60405180830381858888f1935050505015801561094f573d5f5f3e3d5ffd5b50505050565b60015481565b5f5f60015442101580610979575060025f9054906101000a900460ff165b6109b8576040517f08c379a00000000000000000000000000000000000000000000000000000000081526004016109af906110af565b60405180910390fd5b60035f015f9054906101000a900473ffffffffffffffffffffffffffffffffffffffff16600360010154915091509091565b60606005805480602002602001604051908101604052809291908181526020015f905b82821015610a9b578382905f5260205f2090600202016040518060400160405290815f82015f9054906101000a900473ffffffffffffffffffffffffffffffffffffffff1673ffffffffffffffffffffffffffffffffffffffff1673ffffffffffffffffffffffffffffffffffffffff16815260200160018201548152505081526020019060010190610a0d565b50505050905090565b6003805f015f9054906101000a900473ffffffffffffffffffffffffffffffffffffffff16908060010154905082565b6001544210610b18576040517f08c379a0000000000000000000000000000000000000000000000000000000008152600401610b0f90611117565b60405180910390fd5b60025f9054906101000a900460ff1615610b67576040517f08c379a0000000000000000000000000000000000000000000000000000000008152600401610b5e9061117f565b60405180910390fd5b5f60035f015f9054906101000a900473ffffffffffffffffffffffffffffffffffffffff1673ffffffffffffffffffffffffffffffffffffffff163373ffffffffffffffffffffffffffffffffffffffff1614610bc4575f610bcb565b6003600101545b90505f8160065f3373ffffffffffffffffffffffffffffffffffffffff1673ffffffffffffffffffffffffffffffffffffffff1681526020019081526020015f2054610c179190611391565b90505f8111610c5b576040517f08c379a0000000000000000000000000000000000000000000000000000000008152600401610c52906114de565b60405180910390fd5b8060065f3373ffffffffffffffffffffffffffffffffffffffff1673ffffffffffffffffffffffffffffffffffffffff1681526020019081526020015f205f828254610ca79190611391565b925050819055503373ffffffffffffffffffffffffffffffffffffffff166108fc8290811502906040515f60405180830381858888f19350505050158015610cf1573d5f5f3e3d5ffd5b505050565b60075481565b6006602052805f5260405f205f915090505481565b60025f9054906101000a900460ff1681565b5f5ffd5b5f819050919050565b610d3981610d27565b8114610d43575f5ffd5b50565b5f81359050610d5481610d30565b92915050565b5f60208284031215610d6f57610d6e610d23565b5b5f610d7c84828501610d46565b91505092915050565b5f73ffffffffffffffffffffffffffffffffffffffff82169050919050565b5f610dae82610d85565b9050919050565b610dbe81610da4565b82525050565b610dcd81610d27565b82525050565b5f604082019050610de65f830185610db5565b610df36020830184610dc4565b9392505050565b5f602082019050610e0d5f830184610db5565b92915050565b5f602082019050610e265f830184610dc4565b92915050565b5f81519050919050565b5f82825260208201905092915050565b5f819050602082019050919050565b610e5e81610da4565b82525050565b610e6d81610d27565b82525050565b604082015f820151610e875f850182610e55565b506020820151610e9a6020850182610e64565b50505050565b5f610eab8383610e73565b60408301905092915050565b5f602082019050919050565b5f610ecd82610e2c565b610ed78185610e36565b9350610ee283610e46565b805f5b83811015610f12578151610ef98882610ea0565b9750610f0483610eb7565b925050600181019050610ee5565b5085935050505092915050565b5f6020820190508181035f830152610f378184610ec3565b905092915050565b610f4881610da4565b8114610f52575f5ffd5b50565b5f81359050610f6381610f3f565b92915050565b5f60208284031215610f7e57610f7d610d23565b5b5f610f8b84828501610f55565b91505092915050565b5f8115159050919050565b610fa881610f94565b82525050565b5f602082019050610fc15f830184610f9f565b92915050565b5f82825260208201905092915050565b7f4e6f207469656e6573206c6f732070726976696c6567696f73206e65636573615f8201527f72696f7300000000000000000000000000000000000000000000000000000000602082015250565b5f611031602483610fc7565b915061103c82610fd7565b604082019050919050565b5f6020820190508181035f83015261105e81611025565b9050919050565b7f4c612073756261737461206e6f206861207369646f20636572726164610000005f82015250565b5f611099601d83610fc7565b91506110a482611065565b602082019050919050565b5f6020820190508181035f8301526110c68161108d565b9050919050565b7f4c6120737562617374612079612068612066696e616c697a61646f00000000005f82015250565b5f611101601b83610fc7565b915061110c826110cd565b602082019050919050565b5f6020820190508181035f83015261112e816110f5565b9050919050565b7f4c6120737562617374612066696e616c697a61646100000000000000000000005f82015250565b5f611169601583610fc7565b915061117482611135565b602082019050919050565b5f6020820190508181035f8301526111968161115d565b9050919050565b7f446562657320656e7669617220455448000000000000000000000000000000005f82015250565b5f6111d1601083610fc7565b91506111dc8261119d565b602082019050919050565b5f6020820190508181035f8301526111fe816111c5565b9050919050565b7f4e487b71000000000000000000000000000000000000000000000000000000005f52601160045260245ffd5b5f61123c82610d27565b915061124783610d27565b925082820261125581610d27565b9150828204841483151761126c5761126b611205565b5b5092915050565b7f4e487b71000000000000000000000000000000000000000000000000000000005f52601260045260245ffd5b5f6112aa82610d27565b91506112b583610d27565b9250826112c5576112c4611273565b5b828204905092915050565b7f6c61206f66657274612064656265207375706572617220616c206d656e6f73205f8201527f756e203525206465206c612061637475616c0000000000000000000000000000602082015250565b5f61132a603283610fc7565b9150611335826112d0565b604082019050919050565b5f6020820190508181035f8301526113578161131e565b9050919050565b5f61136882610d27565b915061137383610d27565b925082820190508082111561138b5761138a611205565b5b92915050565b5f61139b82610d27565b91506113a683610d27565b92508282039050818111156113be576113bd611205565b5b92915050565b7f456c2067616e61646f72206e6f20726563696265207265656d626f6c736f00005f82015250565b5f6113f8601e83610fc7565b9150611403826113c4565b602082019050919050565b5f6020820190508181035f830152611425816113ec565b9050919050565b7f4e6f20686179206e6164612070617261206465766f6c766572000000000000005f82015250565b5f611460601983610fc7565b915061146b8261142c565b602082019050919050565b5f6020820190508181035f83015261148d81611454565b9050919050565b7f4e6f206861792065786365736f207061726120726574697261720000000000005f82015250565b5f6114c8601a83610fc7565b91506114d382611494565b602082019050919050565b5f6020820190508181035f8301526114f5816114bc565b905091905056fea26469706673582212201606598b4588516a239226208cb35e999d9400f00a3fe13a1a0d432ffad3db1364736f6c634300081e0033",
					"opcodes": "PUSH1 0x80 PUSH1 0x40 MSTORE PUSH1 0x2 PUSH1 0x7 SSTORE CALLVALUE DUP1 ISZERO PUSH2 0x14 JUMPI PUSH0 PUSH0 REVERT JUMPDEST POP PUSH1 0x40 MLOAD PUSH2 0x1725 CODESIZE SUB DUP1 PUSH2 0x1725 DUP4 CODECOPY DUP2 DUP2 ADD PUSH1 0x40 MSTORE DUP2 ADD SWAP1 PUSH2 0x36 SWAP2 SWAP1 PUSH2 0x15B JUMP JUMPDEST CALLER PUSH0 PUSH0 PUSH2 0x100 EXP DUP2 SLOAD DUP2 PUSH20 0xFFFFFFFFFFFFFFFFFFFFFFFFFFFFFFFFFFFFFFFF MUL NOT AND SWAP1 DUP4 PUSH20 0xFFFFFFFFFFFFFFFFFFFFFFFFFFFFFFFFFFFFFFFF AND MUL OR SWAP1 SSTORE POP DUP1 TIMESTAMP PUSH2 0x81 SWAP2 SWAP1 PUSH2 0x1B3 JUMP JUMPDEST PUSH1 0x1 DUP2 SWAP1 SSTORE POP PUSH1 0x40 MLOAD DUP1 PUSH1 0x40 ADD PUSH1 0x40 MSTORE DUP1 PUSH0 PUSH20 0xFFFFFFFFFFFFFFFFFFFFFFFFFFFFFFFFFFFFFFFF AND DUP2 MSTORE PUSH1 0x20 ADD PUSH0 DUP2 MSTORE POP PUSH1 0x3 PUSH0 DUP3 ADD MLOAD DUP2 PUSH0 ADD PUSH0 PUSH2 0x100 EXP DUP2 SLOAD DUP2 PUSH20 0xFFFFFFFFFFFFFFFFFFFFFFFFFFFFFFFFFFFFFFFF MUL NOT AND SWAP1 DUP4 PUSH20 0xFFFFFFFFFFFFFFFFFFFFFFFFFFFFFFFFFFFFFFFF AND MUL OR SWAP1 SSTORE POP PUSH1 0x20 DUP3 ADD MLOAD DUP2 PUSH1 0x1 ADD SSTORE SWAP1 POP POP PUSH0 PUSH1 0x2 PUSH0 PUSH2 0x100 EXP DUP2 SLOAD DUP2 PUSH1 0xFF MUL NOT AND SWAP1 DUP4 ISZERO ISZERO MUL OR SWAP1 SSTORE POP POP PUSH2 0x1E6 JUMP JUMPDEST PUSH0 PUSH0 REVERT JUMPDEST PUSH0 DUP2 SWAP1 POP SWAP2 SWAP1 POP JUMP JUMPDEST PUSH2 0x13A DUP2 PUSH2 0x128 JUMP JUMPDEST DUP2 EQ PUSH2 0x144 JUMPI PUSH0 PUSH0 REVERT JUMPDEST POP JUMP JUMPDEST PUSH0 DUP2 MLOAD SWAP1 POP PUSH2 0x155 DUP2 PUSH2 0x131 JUMP JUMPDEST SWAP3 SWAP2 POP POP JUMP JUMPDEST PUSH0 PUSH1 0x20 DUP3 DUP5 SUB SLT ISZERO PUSH2 0x170 JUMPI PUSH2 0x16F PUSH2 0x124 JUMP JUMPDEST JUMPDEST PUSH0 PUSH2 0x17D DUP5 DUP3 DUP6 ADD PUSH2 0x147 JUMP JUMPDEST SWAP2 POP POP SWAP3 SWAP2 POP POP JUMP JUMPDEST PUSH32 0x4E487B7100000000000000000000000000000000000000000000000000000000 PUSH0 MSTORE PUSH1 0x11 PUSH1 0x4 MSTORE PUSH1 0x24 PUSH0 REVERT JUMPDEST PUSH0 PUSH2 0x1BD DUP3 PUSH2 0x128 JUMP JUMPDEST SWAP2 POP PUSH2 0x1C8 DUP4 PUSH2 0x128 JUMP JUMPDEST SWAP3 POP DUP3 DUP3 ADD SWAP1 POP DUP1 DUP3 GT ISZERO PUSH2 0x1E0 JUMPI PUSH2 0x1DF PUSH2 0x186 JUMP JUMPDEST JUMPDEST SWAP3 SWAP2 POP POP JUMP JUMPDEST PUSH2 0x1532 DUP1 PUSH2 0x1F3 PUSH0 CODECOPY PUSH0 RETURN INVALID PUSH1 0x80 PUSH1 0x40 MSTORE PUSH1 0x4 CALLDATASIZE LT PUSH2 0xC0 JUMPI PUSH0 CALLDATALOAD PUSH1 0xE0 SHR DUP1 PUSH4 0x8F9607CB GT PUSH2 0x7E JUMPI DUP1 PUSH4 0xC1902319 GT PUSH2 0x58 JUMPI DUP1 PUSH4 0xC1902319 EQ PUSH2 0x20B JUMPI DUP1 PUSH4 0xE97EDACD EQ PUSH2 0x221 JUMPI DUP1 PUSH4 0xF3E3B4A1 EQ PUSH2 0x24B JUMPI DUP1 PUSH4 0xFFBFC189 EQ PUSH2 0x287 JUMPI PUSH2 0xC0 JUMP JUMPDEST DUP1 PUSH4 0x8F9607CB EQ PUSH2 0x18B JUMPI DUP1 PUSH4 0xA716CE52 EQ PUSH2 0x1B6 JUMPI DUP1 PUSH4 0xACFC9F98 EQ PUSH2 0x1E0 JUMPI PUSH2 0xC0 JUMP JUMPDEST DUP1 PUSH3 0x99C6AA EQ PUSH2 0xC4 JUMPI DUP1 PUSH4 0x851EAC2 EQ PUSH2 0x101 JUMPI DUP1 PUSH4 0x3C4F81CD EQ PUSH2 0x117 JUMPI DUP1 PUSH4 0x3EC059D7 EQ PUSH2 0x141 JUMPI DUP1 PUSH4 0x5298A3C4 EQ PUSH2 0x14B JUMPI DUP1 PUSH4 0x5B31C15C EQ PUSH2 0x161 JUMPI JUMPDEST PUSH0 PUSH0 REVERT JUMPDEST CALLVALUE DUP1 ISZERO PUSH2 0xCF JUMPI PUSH0 PUSH0 REVERT JUMPDEST POP PUSH2 0xEA PUSH1 0x4 DUP1 CALLDATASIZE SUB DUP2 ADD SWAP1 PUSH2 0xE5 SWAP2 SWAP1 PUSH2 0xD5A JUMP JUMPDEST PUSH2 0x2B1 JUMP JUMPDEST PUSH1 0x40 MLOAD PUSH2 0xF8 SWAP3 SWAP2 SWAP1 PUSH2 0xDD3 JUMP JUMPDEST PUSH1 0x40 MLOAD DUP1 SWAP2 SUB SWAP1 RETURN JUMPDEST CALLVALUE DUP1 ISZERO PUSH2 0x10C JUMPI PUSH0 PUSH0 REVERT JUMPDEST POP PUSH2 0x115 PUSH2 0x2FF JUMP JUMPDEST STOP JUMPDEST CALLVALUE DUP1 ISZERO PUSH2 0x122 JUMPI PUSH0 PUSH0 REVERT JUMPDEST POP PUSH2 0x12B PUSH2 0x3EA JUMP JUMPDEST PUSH1 0x40 MLOAD PUSH2 0x138 SWAP2 SWAP1 PUSH2 0xDFA JUMP JUMPDEST PUSH1 0x40 MLOAD DUP1 SWAP2 SUB SWAP1 RETURN JUMPDEST PUSH2 0x149 PUSH2 0x40E JUMP JUMPDEST STOP JUMPDEST CALLVALUE DUP1 ISZERO PUSH2 0x156 JUMPI PUSH0 PUSH0 REVERT JUMPDEST POP PUSH2 0x15F PUSH2 0x72F JUMP JUMPDEST STOP JUMPDEST CALLVALUE DUP1 ISZERO PUSH2 0x16C JUMPI PUSH0 PUSH0 REVERT JUMPDEST POP PUSH2 0x175 PUSH2 0x955 JUMP JUMPDEST PUSH1 0x40 MLOAD PUSH2 0x182 SWAP2 SWAP1 PUSH2 0xE13 JUMP JUMPDEST PUSH1 0x40 MLOAD DUP1 SWAP2 SUB SWAP1 RETURN JUMPDEST CALLVALUE DUP1 ISZERO PUSH2 0x196 JUMPI PUSH0 PUSH0 REVERT JUMPDEST POP PUSH2 0x19F PUSH2 0x95B JUMP JUMPDEST PUSH1 0x40 MLOAD PUSH2 0x1AD SWAP3 SWAP2 SWAP1 PUSH2 0xDD3 JUMP JUMPDEST PUSH1 0x40 MLOAD DUP1 SWAP2 SUB SWAP1 RETURN JUMPDEST CALLVALUE DUP1 ISZERO PUSH2 0x1C1 JUMPI PUSH0 PUSH0 REVERT JUMPDEST POP PUSH2 0x1CA PUSH2 0x9EA JUMP JUMPDEST PUSH1 0x40 MLOAD PUSH2 0x1D7 SWAP2 SWAP1 PUSH2 0xF1F JUMP JUMPDEST PUSH1 0x40 MLOAD DUP1 SWAP2 SUB SWAP1 RETURN JUMPDEST CALLVALUE DUP1 ISZERO PUSH2 0x1EB JUMPI PUSH0 PUSH0 REVERT JUMPDEST POP PUSH2 0x1F4 PUSH2 0xAA4 JUMP JUMPDEST PUSH1 0x40 MLOAD PUSH2 0x202 SWAP3 SWAP2 SWAP1 PUSH2 0xDD3 JUMP JUMPDEST PUSH1 0x40 MLOAD DUP1 SWAP2 SUB SWAP1 RETURN JUMPDEST CALLVALUE DUP1 ISZERO PUSH2 0x216 JUMPI PUSH0 PUSH0 REVERT JUMPDEST POP PUSH2 0x21F PUSH2 0xAD4 JUMP JUMPDEST STOP JUMPDEST CALLVALUE DUP1 ISZERO PUSH2 0x22C JUMPI PUSH0 PUSH0 REVERT JUMPDEST POP PUSH2 0x235 PUSH2 0xCF6 JUMP JUMPDEST PUSH1 0x40 MLOAD PUSH2 0x242 SWAP2 SWAP1 PUSH2 0xE13 JUMP JUMPDEST PUSH1 0x40 MLOAD DUP1 SWAP2 SUB SWAP1 RETURN JUMPDEST CALLVALUE DUP1 ISZERO PUSH2 0x256 JUMPI PUSH0 PUSH0 REVERT JUMPDEST POP PUSH2 0x271 PUSH1 0x4 DUP1 CALLDATASIZE SUB DUP2 ADD SWAP1 PUSH2 0x26C SWAP2 SWAP1 PUSH2 0xF69 JUMP JUMPDEST PUSH2 0xCFC JUMP JUMPDEST PUSH1 0x40 MLOAD PUSH2 0x27E SWAP2 SWAP1 PUSH2 0xE13 JUMP JUMPDEST PUSH1 0x40 MLOAD DUP1 SWAP2 SUB SWAP1 RETURN JUMPDEST CALLVALUE DUP1 ISZERO PUSH2 0x292 JUMPI PUSH0 PUSH0 REVERT JUMPDEST POP PUSH2 0x29B PUSH2 0xD11 JUMP JUMPDEST PUSH1 0x40 MLOAD PUSH2 0x2A8 SWAP2 SWAP1 PUSH2 0xFAE JUMP JUMPDEST PUSH1 0x40 MLOAD DUP1 SWAP2 SUB SWAP1 RETURN JUMPDEST PUSH1 0x5 DUP2 DUP2 SLOAD DUP2 LT PUSH2 0x2C0 JUMPI PUSH0 DUP1 REVERT JUMPDEST SWAP1 PUSH0 MSTORE PUSH1 0x20 PUSH0 KECCAK256 SWAP1 PUSH1 0x2 MUL ADD PUSH0 SWAP2 POP SWAP1 POP DUP1 PUSH0 ADD PUSH0 SWAP1 SLOAD SWAP1 PUSH2 0x100 EXP SWAP1 DIV PUSH20 0xFFFFFFFFFFFFFFFFFFFFFFFFFFFFFFFFFFFFFFFF AND SWAP1 DUP1 PUSH1 0x1 ADD SLOAD SWAP1 POP DUP3 JUMP JUMPDEST PUSH0 PUSH0 SWAP1 SLOAD SWAP1 PUSH2 0x100 EXP SWAP1 DIV PUSH20 0xFFFFFFFFFFFFFFFFFFFFFFFFFFFFFFFFFFFFFFFF AND PUSH20 0xFFFFFFFFFFFFFFFFFFFFFFFFFFFFFFFFFFFFFFFF AND CALLER PUSH20 0xFFFFFFFFFFFFFFFFFFFFFFFFFFFFFFFFFFFFFFFF AND EQ PUSH2 0x38D JUMPI PUSH1 0x40 MLOAD PUSH32 0x8C379A000000000000000000000000000000000000000000000000000000000 DUP2 MSTORE PUSH1 0x4 ADD PUSH2 0x384 SWAP1 PUSH2 0x1047 JUMP JUMPDEST PUSH1 0x40 MLOAD DUP1 SWAP2 SUB SWAP1 REVERT JUMPDEST PUSH1 0x1 SLOAD TIMESTAMP LT ISZERO DUP1 PUSH2 0x3A9 JUMPI POP PUSH1 0x2 PUSH0 SWAP1 SLOAD SWAP1 PUSH2 0x100 EXP SWAP1 DIV PUSH1 0xFF AND JUMPDEST PUSH2 0x3E8 JUMPI PUSH1 0x40 MLOAD PUSH32 0x8C379A000000000000000000000000000000000000000000000000000000000 DUP2 MSTORE PUSH1 0x4 ADD PUSH2 0x3DF SWAP1 PUSH2 0x10AF JUMP JUMPDEST PUSH1 0x40 MLOAD DUP1 SWAP2 SUB SWAP1 REVERT JUMPDEST JUMP JUMPDEST PUSH0 PUSH0 SWAP1 SLOAD SWAP1 PUSH2 0x100 EXP SWAP1 DIV PUSH20 0xFFFFFFFFFFFFFFFFFFFFFFFFFFFFFFFFFFFFFFFF AND DUP2 JUMP JUMPDEST PUSH1 0x1 SLOAD TIMESTAMP LT PUSH2 0x452 JUMPI PUSH1 0x40 MLOAD PUSH32 0x8C379A000000000000000000000000000000000000000000000000000000000 DUP2 MSTORE PUSH1 0x4 ADD PUSH2 0x449 SWAP1 PUSH2 0x1117 JUMP JUMPDEST PUSH1 0x40 MLOAD DUP1 SWAP2 SUB SWAP1 REVERT JUMPDEST PUSH1 0x2 PUSH0 SWAP1 SLOAD SWAP1 PUSH2 0x100 EXP SWAP1 DIV PUSH1 0xFF AND ISZERO PUSH2 0x4A1 JUMPI PUSH1 0x40 MLOAD PUSH32 0x8C379A000000000000000000000000000000000000000000000000000000000 DUP2 MSTORE PUSH1 0x4 ADD PUSH2 0x498 SWAP1 PUSH2 0x117F JUMP JUMPDEST PUSH1 0x40 MLOAD DUP1 SWAP2 SUB SWAP1 REVERT JUMPDEST PUSH0 CALLVALUE GT PUSH2 0x4E3 JUMPI PUSH1 0x40 MLOAD PUSH32 0x8C379A000000000000000000000000000000000000000000000000000000000 DUP2 MSTORE PUSH1 0x4 ADD PUSH2 0x4DA SWAP1 PUSH2 0x11E7 JUMP JUMPDEST PUSH1 0x40 MLOAD DUP1 SWAP2 SUB SWAP1 REVERT JUMPDEST PUSH0 PUSH1 0x64 PUSH1 0x69 PUSH1 0x3 PUSH1 0x1 ADD SLOAD PUSH2 0x4F8 SWAP2 SWAP1 PUSH2 0x1232 JUMP JUMPDEST PUSH2 0x502 SWAP2 SWAP1 PUSH2 0x12A0 JUMP JUMPDEST SWAP1 POP PUSH0 PUSH1 0x3 PUSH1 0x1 ADD SLOAD SUB PUSH2 0x515 JUMPI PUSH1 0x1 SWAP1 POP JUMPDEST DUP1 CALLVALUE LT ISZERO PUSH2 0x558 JUMPI PUSH1 0x40 MLOAD PUSH32 0x8C379A000000000000000000000000000000000000000000000000000000000 DUP2 MSTORE PUSH1 0x4 ADD PUSH2 0x54F SWAP1 PUSH2 0x1340 JUMP JUMPDEST PUSH1 0x40 MLOAD DUP1 SWAP2 SUB SWAP1 REVERT JUMPDEST CALLVALUE PUSH1 0x6 PUSH0 CALLER PUSH20 0xFFFFFFFFFFFFFFFFFFFFFFFFFFFFFFFFFFFFFFFF AND PUSH20 0xFFFFFFFFFFFFFFFFFFFFFFFFFFFFFFFFFFFFFFFF AND DUP2 MSTORE PUSH1 0x20 ADD SWAP1 DUP2 MSTORE PUSH1 0x20 ADD PUSH0 KECCAK256 PUSH0 DUP3 DUP3 SLOAD PUSH2 0x5A4 SWAP2 SWAP1 PUSH2 0x135E JUMP JUMPDEST SWAP3 POP POP DUP2 SWAP1 SSTORE POP PUSH1 0x40 MLOAD DUP1 PUSH1 0x40 ADD PUSH1 0x40 MSTORE DUP1 CALLER PUSH20 0xFFFFFFFFFFFFFFFFFFFFFFFFFFFFFFFFFFFFFFFF AND DUP2 MSTORE PUSH1 0x20 ADD CALLVALUE DUP2 MSTORE POP PUSH1 0x3 PUSH0 DUP3 ADD MLOAD DUP2 PUSH0 ADD PUSH0 PUSH2 0x100 EXP DUP2 SLOAD DUP2 PUSH20 0xFFFFFFFFFFFFFFFFFFFFFFFFFFFFFFFFFFFFFFFF MUL NOT AND SWAP1 DUP4 PUSH20 0xFFFFFFFFFFFFFFFFFFFFFFFFFFFFFFFFFFFFFFFF AND MUL OR SWAP1 SSTORE POP PUSH1 0x20 DUP3 ADD MLOAD DUP2 PUSH1 0x1 ADD SSTORE SWAP1 POP POP PUSH1 0x5 PUSH1 0x3 SWAP1 DUP1 PUSH1 0x1 DUP2 SLOAD ADD DUP1 DUP3 SSTORE DUP1 SWAP2 POP POP PUSH1 0x1 SWAP1 SUB SWAP1 PUSH0 MSTORE PUSH1 0x20 PUSH0 KECCAK256 SWAP1 PUSH1 0x2 MUL ADD PUSH0 SWAP1 SWAP2 SWAP1 SWAP2 SWAP1 SWAP2 POP PUSH0 DUP3 ADD PUSH0 SWAP1 SLOAD SWAP1 PUSH2 0x100 EXP SWAP1 DIV PUSH20 0xFFFFFFFFFFFFFFFFFFFFFFFFFFFFFFFFFFFFFFFF AND DUP2 PUSH0 ADD PUSH0 PUSH2 0x100 EXP DUP2 SLOAD DUP2 PUSH20 0xFFFFFFFFFFFFFFFFFFFFFFFFFFFFFFFFFFFFFFFF MUL NOT AND SWAP1 DUP4 PUSH20 0xFFFFFFFFFFFFFFFFFFFFFFFFFFFFFFFFFFFFFFFF AND MUL OR SWAP1 SSTORE POP PUSH1 0x1 DUP3 ADD SLOAD DUP2 PUSH1 0x1 ADD SSTORE POP POP PUSH2 0x258 TIMESTAMP PUSH1 0x1 SLOAD PUSH2 0x6D3 SWAP2 SWAP1 PUSH2 0x1391 JUMP JUMPDEST GT PUSH2 0x6F3 JUMPI PUSH2 0x258 PUSH1 0x1 PUSH0 DUP3 DUP3 SLOAD PUSH2 0x6EB SWAP2 SWAP1 PUSH2 0x135E JUMP JUMPDEST SWAP3 POP POP DUP2 SWAP1 SSTORE POP JUMPDEST PUSH32 0x95857B38EE8DC53AF505AA6F2E904ED3E8BC1605141A9AC1A507549A28D5CDD9 CALLER CALLVALUE PUSH1 0x40 MLOAD PUSH2 0x724 SWAP3 SWAP2 SWAP1 PUSH2 0xDD3 JUMP JUMPDEST PUSH1 0x40 MLOAD DUP1 SWAP2 SUB SWAP1 LOG1 POP JUMP JUMPDEST PUSH1 0x1 SLOAD TIMESTAMP LT ISZERO DUP1 PUSH2 0x74B JUMPI POP PUSH1 0x2 PUSH0 SWAP1 SLOAD SWAP1 PUSH2 0x100 EXP SWAP1 DIV PUSH1 0xFF AND JUMPDEST PUSH2 0x78A JUMPI PUSH1 0x40 MLOAD PUSH32 0x8C379A000000000000000000000000000000000000000000000000000000000 DUP2 MSTORE PUSH1 0x4 ADD PUSH2 0x781 SWAP1 PUSH2 0x10AF JUMP JUMPDEST PUSH1 0x40 MLOAD DUP1 SWAP2 SUB SWAP1 REVERT JUMPDEST PUSH1 0x3 PUSH0 ADD PUSH0 SWAP1 SLOAD SWAP1 PUSH2 0x100 EXP SWAP1 DIV PUSH20 0xFFFFFFFFFFFFFFFFFFFFFFFFFFFFFFFFFFFFFFFF AND PUSH20 0xFFFFFFFFFFFFFFFFFFFFFFFFFFFFFFFFFFFFFFFF AND CALLER PUSH20 0xFFFFFFFFFFFFFFFFFFFFFFFFFFFFFFFFFFFFFFFF AND SUB PUSH2 0x81B JUMPI PUSH1 0x40 MLOAD PUSH32 0x8C379A000000000000000000000000000000000000000000000000000000000 DUP2 MSTORE PUSH1 0x4 ADD PUSH2 0x812 SWAP1 PUSH2 0x140E JUMP JUMPDEST PUSH1 0x40 MLOAD DUP1 SWAP2 SUB SWAP1 REVERT JUMPDEST PUSH0 PUSH1 0x6 PUSH0 CALLER PUSH20 0xFFFFFFFFFFFFFFFFFFFFFFFFFFFFFFFFFFFFFFFF AND PUSH20 0xFFFFFFFFFFFFFFFFFFFFFFFFFFFFFFFFFFFFFFFF AND DUP2 MSTORE PUSH1 0x20 ADD SWAP1 DUP2 MSTORE PUSH1 0x20 ADD PUSH0 KECCAK256 SLOAD SWAP1 POP PUSH0 DUP2 GT PUSH2 0x89E JUMPI PUSH1 0x40 MLOAD PUSH32 0x8C379A000000000000000000000000000000000000000000000000000000000 DUP2 MSTORE PUSH1 0x4 ADD PUSH2 0x895 SWAP1 PUSH2 0x1476 JUMP JUMPDEST PUSH1 0x40 MLOAD DUP1 SWAP2 SUB SWAP1 REVERT JUMPDEST PUSH0 PUSH1 0x64 PUSH1 0x7 SLOAD DUP4 PUSH2 0x8AF SWAP2 SWAP1 PUSH2 0x1232 JUMP JUMPDEST PUSH2 0x8B9 SWAP2 SWAP1 PUSH2 0x12A0 JUMP JUMPDEST SWAP1 POP PUSH0 DUP2 DUP4 PUSH2 0x8C8 SWAP2 SWAP1 PUSH2 0x1391 JUMP JUMPDEST SWAP1 POP PUSH0 PUSH1 0x6 PUSH0 CALLER PUSH20 0xFFFFFFFFFFFFFFFFFFFFFFFFFFFFFFFFFFFFFFFF AND PUSH20 0xFFFFFFFFFFFFFFFFFFFFFFFFFFFFFFFFFFFFFFFF AND DUP2 MSTORE PUSH1 0x20 ADD SWAP1 DUP2 MSTORE PUSH1 0x20 ADD PUSH0 KECCAK256 DUP2 SWAP1 SSTORE POP CALLER PUSH20 0xFFFFFFFFFFFFFFFFFFFFFFFFFFFFFFFFFFFFFFFF AND PUSH2 0x8FC DUP3 SWAP1 DUP2 ISZERO MUL SWAP1 PUSH1 0x40 MLOAD PUSH0 PUSH1 0x40 MLOAD DUP1 DUP4 SUB DUP2 DUP6 DUP9 DUP9 CALL SWAP4 POP POP POP POP ISZERO DUP1 ISZERO PUSH2 0x94F JUMPI RETURNDATASIZE PUSH0 PUSH0 RETURNDATACOPY RETURNDATASIZE PUSH0 REVERT JUMPDEST POP POP POP POP JUMP JUMPDEST PUSH1 0x1 SLOAD DUP2 JUMP JUMPDEST PUSH0 PUSH0 PUSH1 0x1 SLOAD TIMESTAMP LT ISZERO DUP1 PUSH2 0x979 JUMPI POP PUSH1 0x2 PUSH0 SWAP1 SLOAD SWAP1 PUSH2 0x100 EXP SWAP1 DIV PUSH1 0xFF AND JUMPDEST PUSH2 0x9B8 JUMPI PUSH1 0x40 MLOAD PUSH32 0x8C379A000000000000000000000000000000000000000000000000000000000 DUP2 MSTORE PUSH1 0x4 ADD PUSH2 0x9AF SWAP1 PUSH2 0x10AF JUMP JUMPDEST PUSH1 0x40 MLOAD DUP1 SWAP2 SUB SWAP1 REVERT JUMPDEST PUSH1 0x3 PUSH0 ADD PUSH0 SWAP1 SLOAD SWAP1 PUSH2 0x100 EXP SWAP1 DIV PUSH20 0xFFFFFFFFFFFFFFFFFFFFFFFFFFFFFFFFFFFFFFFF AND PUSH1 0x3 PUSH1 0x1 ADD SLOAD SWAP2 POP SWAP2 POP SWAP1 SWAP2 JUMP JUMPDEST PUSH1 0x60 PUSH1 0x5 DUP1 SLOAD DUP1 PUSH1 0x20 MUL PUSH1 0x20 ADD PUSH1 0x40 MLOAD SWAP1 DUP2 ADD PUSH1 0x40 MSTORE DUP1 SWAP3 SWAP2 SWAP1 DUP2 DUP2 MSTORE PUSH1 0x20 ADD PUSH0 SWAP1 JUMPDEST DUP3 DUP3 LT ISZERO PUSH2 0xA9B JUMPI DUP4 DUP3 SWAP1 PUSH0 MSTORE PUSH1 0x20 PUSH0 KECCAK256 SWAP1 PUSH1 0x2 MUL ADD PUSH1 0x40 MLOAD DUP1 PUSH1 0x40 ADD PUSH1 0x40 MSTORE SWAP1 DUP2 PUSH0 DUP3 ADD PUSH0 SWAP1 SLOAD SWAP1 PUSH2 0x100 EXP SWAP1 DIV PUSH20 0xFFFFFFFFFFFFFFFFFFFFFFFFFFFFFFFFFFFFFFFF AND PUSH20 0xFFFFFFFFFFFFFFFFFFFFFFFFFFFFFFFFFFFFFFFF AND PUSH20 0xFFFFFFFFFFFFFFFFFFFFFFFFFFFFFFFFFFFFFFFF AND DUP2 MSTORE PUSH1 0x20 ADD PUSH1 0x1 DUP3 ADD SLOAD DUP2 MSTORE POP POP DUP2 MSTORE PUSH1 0x20 ADD SWAP1 PUSH1 0x1 ADD SWAP1 PUSH2 0xA0D JUMP JUMPDEST POP POP POP POP SWAP1 POP SWAP1 JUMP JUMPDEST PUSH1 0x3 DUP1 PUSH0 ADD PUSH0 SWAP1 SLOAD SWAP1 PUSH2 0x100 EXP SWAP1 DIV PUSH20 0xFFFFFFFFFFFFFFFFFFFFFFFFFFFFFFFFFFFFFFFF AND SWAP1 DUP1 PUSH1 0x1 ADD SLOAD SWAP1 POP DUP3 JUMP JUMPDEST PUSH1 0x1 SLOAD TIMESTAMP LT PUSH2 0xB18 JUMPI PUSH1 0x40 MLOAD PUSH32 0x8C379A000000000000000000000000000000000000000000000000000000000 DUP2 MSTORE PUSH1 0x4 ADD PUSH2 0xB0F SWAP1 PUSH2 0x1117 JUMP JUMPDEST PUSH1 0x40 MLOAD DUP1 SWAP2 SUB SWAP1 REVERT JUMPDEST PUSH1 0x2 PUSH0 SWAP1 SLOAD SWAP1 PUSH2 0x100 EXP SWAP1 DIV PUSH1 0xFF AND ISZERO PUSH2 0xB67 JUMPI PUSH1 0x40 MLOAD PUSH32 0x8C379A000000000000000000000000000000000000000000000000000000000 DUP2 MSTORE PUSH1 0x4 ADD PUSH2 0xB5E SWAP1 PUSH2 0x117F JUMP JUMPDEST PUSH1 0x40 MLOAD DUP1 SWAP2 SUB SWAP1 REVERT JUMPDEST PUSH0 PUSH1 0x3 PUSH0 ADD PUSH0 SWAP1 SLOAD SWAP1 PUSH2 0x100 EXP SWAP1 DIV PUSH20 0xFFFFFFFFFFFFFFFFFFFFFFFFFFFFFFFFFFFFFFFF AND PUSH20 0xFFFFFFFFFFFFFFFFFFFFFFFFFFFFFFFFFFFFFFFF AND CALLER PUSH20 0xFFFFFFFFFFFFFFFFFFFFFFFFFFFFFFFFFFFFFFFF AND EQ PUSH2 0xBC4 JUMPI PUSH0 PUSH2 0xBCB JUMP JUMPDEST PUSH1 0x3 PUSH1 0x1 ADD SLOAD JUMPDEST SWAP1 POP PUSH0 DUP2 PUSH1 0x6 PUSH0 CALLER PUSH20 0xFFFFFFFFFFFFFFFFFFFFFFFFFFFFFFFFFFFFFFFF AND PUSH20 0xFFFFFFFFFFFFFFFFFFFFFFFFFFFFFFFFFFFFFFFF AND DUP2 MSTORE PUSH1 0x20 ADD SWAP1 DUP2 MSTORE PUSH1 0x20 ADD PUSH0 KECCAK256 SLOAD PUSH2 0xC17 SWAP2 SWAP1 PUSH2 0x1391 JUMP JUMPDEST SWAP1 POP PUSH0 DUP2 GT PUSH2 0xC5B JUMPI PUSH1 0x40 MLOAD PUSH32 0x8C379A000000000000000000000000000000000000000000000000000000000 DUP2 MSTORE PUSH1 0x4 ADD PUSH2 0xC52 SWAP1 PUSH2 0x14DE JUMP JUMPDEST PUSH1 0x40 MLOAD DUP1 SWAP2 SUB SWAP1 REVERT JUMPDEST DUP1 PUSH1 0x6 PUSH0 CALLER PUSH20 0xFFFFFFFFFFFFFFFFFFFFFFFFFFFFFFFFFFFFFFFF AND PUSH20 0xFFFFFFFFFFFFFFFFFFFFFFFFFFFFFFFFFFFFFFFF AND DUP2 MSTORE PUSH1 0x20 ADD SWAP1 DUP2 MSTORE PUSH1 0x20 ADD PUSH0 KECCAK256 PUSH0 DUP3 DUP3 SLOAD PUSH2 0xCA7 SWAP2 SWAP1 PUSH2 0x1391 JUMP JUMPDEST SWAP3 POP POP DUP2 SWAP1 SSTORE POP CALLER PUSH20 0xFFFFFFFFFFFFFFFFFFFFFFFFFFFFFFFFFFFFFFFF AND PUSH2 0x8FC DUP3 SWAP1 DUP2 ISZERO MUL SWAP1 PUSH1 0x40 MLOAD PUSH0 PUSH1 0x40 MLOAD DUP1 DUP4 SUB DUP2 DUP6 DUP9 DUP9 CALL SWAP4 POP POP POP POP ISZERO DUP1 ISZERO PUSH2 0xCF1 JUMPI RETURNDATASIZE PUSH0 PUSH0 RETURNDATACOPY RETURNDATASIZE PUSH0 REVERT JUMPDEST POP POP POP JUMP JUMPDEST PUSH1 0x7 SLOAD DUP2 JUMP JUMPDEST PUSH1 0x6 PUSH1 0x20 MSTORE DUP1 PUSH0 MSTORE PUSH1 0x40 PUSH0 KECCAK256 PUSH0 SWAP2 POP SWAP1 POP SLOAD DUP2 JUMP JUMPDEST PUSH1 0x2 PUSH0 SWAP1 SLOAD SWAP1 PUSH2 0x100 EXP SWAP1 DIV PUSH1 0xFF AND DUP2 JUMP JUMPDEST PUSH0 PUSH0 REVERT JUMPDEST PUSH0 DUP2 SWAP1 POP SWAP2 SWAP1 POP JUMP JUMPDEST PUSH2 0xD39 DUP2 PUSH2 0xD27 JUMP JUMPDEST DUP2 EQ PUSH2 0xD43 JUMPI PUSH0 PUSH0 REVERT JUMPDEST POP JUMP JUMPDEST PUSH0 DUP2 CALLDATALOAD SWAP1 POP PUSH2 0xD54 DUP2 PUSH2 0xD30 JUMP JUMPDEST SWAP3 SWAP2 POP POP JUMP JUMPDEST PUSH0 PUSH1 0x20 DUP3 DUP5 SUB SLT ISZERO PUSH2 0xD6F JUMPI PUSH2 0xD6E PUSH2 0xD23 JUMP JUMPDEST JUMPDEST PUSH0 PUSH2 0xD7C DUP5 DUP3 DUP6 ADD PUSH2 0xD46 JUMP JUMPDEST SWAP2 POP POP SWAP3 SWAP2 POP POP JUMP JUMPDEST PUSH0 PUSH20 0xFFFFFFFFFFFFFFFFFFFFFFFFFFFFFFFFFFFFFFFF DUP3 AND SWAP1 POP SWAP2 SWAP1 POP JUMP JUMPDEST PUSH0 PUSH2 0xDAE DUP3 PUSH2 0xD85 JUMP JUMPDEST SWAP1 POP SWAP2 SWAP1 POP JUMP JUMPDEST PUSH2 0xDBE DUP2 PUSH2 0xDA4 JUMP JUMPDEST DUP3 MSTORE POP POP JUMP JUMPDEST PUSH2 0xDCD DUP2 PUSH2 0xD27 JUMP JUMPDEST DUP3 MSTORE POP POP JUMP JUMPDEST PUSH0 PUSH1 0x40 DUP3 ADD SWAP1 POP PUSH2 0xDE6 PUSH0 DUP4 ADD DUP6 PUSH2 0xDB5 JUMP JUMPDEST PUSH2 0xDF3 PUSH1 0x20 DUP4 ADD DUP5 PUSH2 0xDC4 JUMP JUMPDEST SWAP4 SWAP3 POP POP POP JUMP JUMPDEST PUSH0 PUSH1 0x20 DUP3 ADD SWAP1 POP PUSH2 0xE0D PUSH0 DUP4 ADD DUP5 PUSH2 0xDB5 JUMP JUMPDEST SWAP3 SWAP2 POP POP JUMP JUMPDEST PUSH0 PUSH1 0x20 DUP3 ADD SWAP1 POP PUSH2 0xE26 PUSH0 DUP4 ADD DUP5 PUSH2 0xDC4 JUMP JUMPDEST SWAP3 SWAP2 POP POP JUMP JUMPDEST PUSH0 DUP2 MLOAD SWAP1 POP SWAP2 SWAP1 POP JUMP JUMPDEST PUSH0 DUP3 DUP3 MSTORE PUSH1 0x20 DUP3 ADD SWAP1 POP SWAP3 SWAP2 POP POP JUMP JUMPDEST PUSH0 DUP2 SWAP1 POP PUSH1 0x20 DUP3 ADD SWAP1 POP SWAP2 SWAP1 POP JUMP JUMPDEST PUSH2 0xE5E DUP2 PUSH2 0xDA4 JUMP JUMPDEST DUP3 MSTORE POP POP JUMP JUMPDEST PUSH2 0xE6D DUP2 PUSH2 0xD27 JUMP JUMPDEST DUP3 MSTORE POP POP JUMP JUMPDEST PUSH1 0x40 DUP3 ADD PUSH0 DUP3 ADD MLOAD PUSH2 0xE87 PUSH0 DUP6 ADD DUP3 PUSH2 0xE55 JUMP JUMPDEST POP PUSH1 0x20 DUP3 ADD MLOAD PUSH2 0xE9A PUSH1 0x20 DUP6 ADD DUP3 PUSH2 0xE64 JUMP JUMPDEST POP POP POP POP JUMP JUMPDEST PUSH0 PUSH2 0xEAB DUP4 DUP4 PUSH2 0xE73 JUMP JUMPDEST PUSH1 0x40 DUP4 ADD SWAP1 POP SWAP3 SWAP2 POP POP JUMP JUMPDEST PUSH0 PUSH1 0x20 DUP3 ADD SWAP1 POP SWAP2 SWAP1 POP JUMP JUMPDEST PUSH0 PUSH2 0xECD DUP3 PUSH2 0xE2C JUMP JUMPDEST PUSH2 0xED7 DUP2 DUP6 PUSH2 0xE36 JUMP JUMPDEST SWAP4 POP PUSH2 0xEE2 DUP4 PUSH2 0xE46 JUMP JUMPDEST DUP1 PUSH0 JUMPDEST DUP4 DUP2 LT ISZERO PUSH2 0xF12 JUMPI DUP2 MLOAD PUSH2 0xEF9 DUP9 DUP3 PUSH2 0xEA0 JUMP JUMPDEST SWAP8 POP PUSH2 0xF04 DUP4 PUSH2 0xEB7 JUMP JUMPDEST SWAP3 POP POP PUSH1 0x1 DUP2 ADD SWAP1 POP PUSH2 0xEE5 JUMP JUMPDEST POP DUP6 SWAP4 POP POP POP POP SWAP3 SWAP2 POP POP JUMP JUMPDEST PUSH0 PUSH1 0x20 DUP3 ADD SWAP1 POP DUP2 DUP2 SUB PUSH0 DUP4 ADD MSTORE PUSH2 0xF37 DUP2 DUP5 PUSH2 0xEC3 JUMP JUMPDEST SWAP1 POP SWAP3 SWAP2 POP POP JUMP JUMPDEST PUSH2 0xF48 DUP2 PUSH2 0xDA4 JUMP JUMPDEST DUP2 EQ PUSH2 0xF52 JUMPI PUSH0 PUSH0 REVERT JUMPDEST POP JUMP JUMPDEST PUSH0 DUP2 CALLDATALOAD SWAP1 POP PUSH2 0xF63 DUP2 PUSH2 0xF3F JUMP JUMPDEST SWAP3 SWAP2 POP POP JUMP JUMPDEST PUSH0 PUSH1 0x20 DUP3 DUP5 SUB SLT ISZERO PUSH2 0xF7E JUMPI PUSH2 0xF7D PUSH2 0xD23 JUMP JUMPDEST JUMPDEST PUSH0 PUSH2 0xF8B DUP5 DUP3 DUP6 ADD PUSH2 0xF55 JUMP JUMPDEST SWAP2 POP POP SWAP3 SWAP2 POP POP JUMP JUMPDEST PUSH0 DUP2 ISZERO ISZERO SWAP1 POP SWAP2 SWAP1 POP JUMP JUMPDEST PUSH2 0xFA8 DUP2 PUSH2 0xF94 JUMP JUMPDEST DUP3 MSTORE POP POP JUMP JUMPDEST PUSH0 PUSH1 0x20 DUP3 ADD SWAP1 POP PUSH2 0xFC1 PUSH0 DUP4 ADD DUP5 PUSH2 0xF9F JUMP JUMPDEST SWAP3 SWAP2 POP POP JUMP JUMPDEST PUSH0 DUP3 DUP3 MSTORE PUSH1 0x20 DUP3 ADD SWAP1 POP SWAP3 SWAP2 POP POP JUMP JUMPDEST PUSH32 0x4E6F207469656E6573206C6F732070726976696C6567696F73206E6563657361 PUSH0 DUP3 ADD MSTORE PUSH32 0x72696F7300000000000000000000000000000000000000000000000000000000 PUSH1 0x20 DUP3 ADD MSTORE POP JUMP JUMPDEST PUSH0 PUSH2 0x1031 PUSH1 0x24 DUP4 PUSH2 0xFC7 JUMP JUMPDEST SWAP2 POP PUSH2 0x103C DUP3 PUSH2 0xFD7 JUMP JUMPDEST PUSH1 0x40 DUP3 ADD SWAP1 POP SWAP2 SWAP1 POP JUMP JUMPDEST PUSH0 PUSH1 0x20 DUP3 ADD SWAP1 POP DUP2 DUP2 SUB PUSH0 DUP4 ADD MSTORE PUSH2 0x105E DUP2 PUSH2 0x1025 JUMP JUMPDEST SWAP1 POP SWAP2 SWAP1 POP JUMP JUMPDEST PUSH32 0x4C612073756261737461206E6F206861207369646F2063657272616461000000 PUSH0 DUP3 ADD MSTORE POP JUMP JUMPDEST PUSH0 PUSH2 0x1099 PUSH1 0x1D DUP4 PUSH2 0xFC7 JUMP JUMPDEST SWAP2 POP PUSH2 0x10A4 DUP3 PUSH2 0x1065 JUMP JUMPDEST PUSH1 0x20 DUP3 ADD SWAP1 POP SWAP2 SWAP1 POP JUMP JUMPDEST PUSH0 PUSH1 0x20 DUP3 ADD SWAP1 POP DUP2 DUP2 SUB PUSH0 DUP4 ADD MSTORE PUSH2 0x10C6 DUP2 PUSH2 0x108D JUMP JUMPDEST SWAP1 POP SWAP2 SWAP1 POP JUMP JUMPDEST PUSH32 0x4C6120737562617374612079612068612066696E616C697A61646F0000000000 PUSH0 DUP3 ADD MSTORE POP JUMP JUMPDEST PUSH0 PUSH2 0x1101 PUSH1 0x1B DUP4 PUSH2 0xFC7 JUMP JUMPDEST SWAP2 POP PUSH2 0x110C DUP3 PUSH2 0x10CD JUMP JUMPDEST PUSH1 0x20 DUP3 ADD SWAP1 POP SWAP2 SWAP1 POP JUMP JUMPDEST PUSH0 PUSH1 0x20 DUP3 ADD SWAP1 POP DUP2 DUP2 SUB PUSH0 DUP4 ADD MSTORE PUSH2 0x112E DUP2 PUSH2 0x10F5 JUMP JUMPDEST SWAP1 POP SWAP2 SWAP1 POP JUMP JUMPDEST PUSH32 0x4C6120737562617374612066696E616C697A6164610000000000000000000000 PUSH0 DUP3 ADD MSTORE POP JUMP JUMPDEST PUSH0 PUSH2 0x1169 PUSH1 0x15 DUP4 PUSH2 0xFC7 JUMP JUMPDEST SWAP2 POP PUSH2 0x1174 DUP3 PUSH2 0x1135 JUMP JUMPDEST PUSH1 0x20 DUP3 ADD SWAP1 POP SWAP2 SWAP1 POP JUMP JUMPDEST PUSH0 PUSH1 0x20 DUP3 ADD SWAP1 POP DUP2 DUP2 SUB PUSH0 DUP4 ADD MSTORE PUSH2 0x1196 DUP2 PUSH2 0x115D JUMP JUMPDEST SWAP1 POP SWAP2 SWAP1 POP JUMP JUMPDEST PUSH32 0x446562657320656E766961722045544800000000000000000000000000000000 PUSH0 DUP3 ADD MSTORE POP JUMP JUMPDEST PUSH0 PUSH2 0x11D1 PUSH1 0x10 DUP4 PUSH2 0xFC7 JUMP JUMPDEST SWAP2 POP PUSH2 0x11DC DUP3 PUSH2 0x119D JUMP JUMPDEST PUSH1 0x20 DUP3 ADD SWAP1 POP SWAP2 SWAP1 POP JUMP JUMPDEST PUSH0 PUSH1 0x20 DUP3 ADD SWAP1 POP DUP2 DUP2 SUB PUSH0 DUP4 ADD MSTORE PUSH2 0x11FE DUP2 PUSH2 0x11C5 JUMP JUMPDEST SWAP1 POP SWAP2 SWAP1 POP JUMP JUMPDEST PUSH32 0x4E487B7100000000000000000000000000000000000000000000000000000000 PUSH0 MSTORE PUSH1 0x11 PUSH1 0x4 MSTORE PUSH1 0x24 PUSH0 REVERT JUMPDEST PUSH0 PUSH2 0x123C DUP3 PUSH2 0xD27 JUMP JUMPDEST SWAP2 POP PUSH2 0x1247 DUP4 PUSH2 0xD27 JUMP JUMPDEST SWAP3 POP DUP3 DUP3 MUL PUSH2 0x1255 DUP2 PUSH2 0xD27 JUMP JUMPDEST SWAP2 POP DUP3 DUP3 DIV DUP5 EQ DUP4 ISZERO OR PUSH2 0x126C JUMPI PUSH2 0x126B PUSH2 0x1205 JUMP JUMPDEST JUMPDEST POP SWAP3 SWAP2 POP POP JUMP JUMPDEST PUSH32 0x4E487B7100000000000000000000000000000000000000000000000000000000 PUSH0 MSTORE PUSH1 0x12 PUSH1 0x4 MSTORE PUSH1 0x24 PUSH0 REVERT JUMPDEST PUSH0 PUSH2 0x12AA DUP3 PUSH2 0xD27 JUMP JUMPDEST SWAP2 POP PUSH2 0x12B5 DUP4 PUSH2 0xD27 JUMP JUMPDEST SWAP3 POP DUP3 PUSH2 0x12C5 JUMPI PUSH2 0x12C4 PUSH2 0x1273 JUMP JUMPDEST JUMPDEST DUP3 DUP3 DIV SWAP1 POP SWAP3 SWAP2 POP POP JUMP JUMPDEST PUSH32 0x6C61206F66657274612064656265207375706572617220616C206D656E6F7320 PUSH0 DUP3 ADD MSTORE PUSH32 0x756E203525206465206C612061637475616C0000000000000000000000000000 PUSH1 0x20 DUP3 ADD MSTORE POP JUMP JUMPDEST PUSH0 PUSH2 0x132A PUSH1 0x32 DUP4 PUSH2 0xFC7 JUMP JUMPDEST SWAP2 POP PUSH2 0x1335 DUP3 PUSH2 0x12D0 JUMP JUMPDEST PUSH1 0x40 DUP3 ADD SWAP1 POP SWAP2 SWAP1 POP JUMP JUMPDEST PUSH0 PUSH1 0x20 DUP3 ADD SWAP1 POP DUP2 DUP2 SUB PUSH0 DUP4 ADD MSTORE PUSH2 0x1357 DUP2 PUSH2 0x131E JUMP JUMPDEST SWAP1 POP SWAP2 SWAP1 POP JUMP JUMPDEST PUSH0 PUSH2 0x1368 DUP3 PUSH2 0xD27 JUMP JUMPDEST SWAP2 POP PUSH2 0x1373 DUP4 PUSH2 0xD27 JUMP JUMPDEST SWAP3 POP DUP3 DUP3 ADD SWAP1 POP DUP1 DUP3 GT ISZERO PUSH2 0x138B JUMPI PUSH2 0x138A PUSH2 0x1205 JUMP JUMPDEST JUMPDEST SWAP3 SWAP2 POP POP JUMP JUMPDEST PUSH0 PUSH2 0x139B DUP3 PUSH2 0xD27 JUMP JUMPDEST SWAP2 POP PUSH2 0x13A6 DUP4 PUSH2 0xD27 JUMP JUMPDEST SWAP3 POP DUP3 DUP3 SUB SWAP1 POP DUP2 DUP2 GT ISZERO PUSH2 0x13BE JUMPI PUSH2 0x13BD PUSH2 0x1205 JUMP JUMPDEST JUMPDEST SWAP3 SWAP2 POP POP JUMP JUMPDEST PUSH32 0x456C2067616E61646F72206E6F20726563696265207265656D626F6C736F0000 PUSH0 DUP3 ADD MSTORE POP JUMP JUMPDEST PUSH0 PUSH2 0x13F8 PUSH1 0x1E DUP4 PUSH2 0xFC7 JUMP JUMPDEST SWAP2 POP PUSH2 0x1403 DUP3 PUSH2 0x13C4 JUMP JUMPDEST PUSH1 0x20 DUP3 ADD SWAP1 POP SWAP2 SWAP1 POP JUMP JUMPDEST PUSH0 PUSH1 0x20 DUP3 ADD SWAP1 POP DUP2 DUP2 SUB PUSH0 DUP4 ADD MSTORE PUSH2 0x1425 DUP2 PUSH2 0x13EC JUMP JUMPDEST SWAP1 POP SWAP2 SWAP1 POP JUMP JUMPDEST PUSH32 0x4E6F20686179206E6164612070617261206465766F6C76657200000000000000 PUSH0 DUP3 ADD MSTORE POP JUMP JUMPDEST PUSH0 PUSH2 0x1460 PUSH1 0x19 DUP4 PUSH2 0xFC7 JUMP JUMPDEST SWAP2 POP PUSH2 0x146B DUP3 PUSH2 0x142C JUMP JUMPDEST PUSH1 0x20 DUP3 ADD SWAP1 POP SWAP2 SWAP1 POP JUMP JUMPDEST PUSH0 PUSH1 0x20 DUP3 ADD SWAP1 POP DUP2 DUP2 SUB PUSH0 DUP4 ADD MSTORE PUSH2 0x148D DUP2 PUSH2 0x1454 JUMP JUMPDEST SWAP1 POP SWAP2 SWAP1 POP JUMP JUMPDEST PUSH32 0x4E6F206861792065786365736F20706172612072657469726172000000000000 PUSH0 DUP3 ADD MSTORE POP JUMP JUMPDEST PUSH0 PUSH2 0x14C8 PUSH1 0x1A DUP4 PUSH2 0xFC7 JUMP JUMPDEST SWAP2 POP PUSH2 0x14D3 DUP3 PUSH2 0x1494 JUMP JUMPDEST PUSH1 0x20 DUP3 ADD SWAP1 POP SWAP2 SWAP1 POP JUMP JUMPDEST PUSH0 PUSH1 0x20 DUP3 ADD SWAP1 POP DUP2 DUP2 SUB PUSH0 DUP4 ADD MSTORE PUSH2 0x14F5 DUP2 PUSH2 0x14BC JUMP JUMPDEST SWAP1 POP SWAP2 SWAP1 POP JUMP INVALID LOG2 PUSH5 0x6970667358 0x22 SLT KECCAK256 AND MOD MSIZE DUP12 GASLIMIT DUP9 MLOAD PUSH11 0x239226208CB35E999D9400 CREATE EXP EXTCODEHASH RJUMPI 0x3A1A 0xD NUMBER 0x2F STATICCALL 0xD3 0xDB SGT PUSH5 0x736F6C6343 STOP ADDMOD 0x1E STOP CALLER "
				},
				"gasEstimates": {
					"creation": {
						"codeDepositCost": "1085200",
						"executionCost": "infinite",
						"totalCost": "infinite"
					},
					"external": {
						"costoComision()": "2469",
						"deposito(address)": "2868",
						"devolverDepositos()": "infinite",
						"finSubasta()": "2536",
						"finalizada()": "2554",
						"finalizarSubasta()": "6900",
						"listaOfertas(uint256)": "infinite",
						"mejorOferta()": "4799",
						"ofertar()": "infinite",
						"propietario()": "2552",
						"retirarExceso()": "infinite",
						"verGanador()": "9043",
						"verHistorial()": "infinite"
					}
				},
				"methodIdentifiers": {
					"costoComision()": "e97edacd",
					"deposito(address)": "f3e3b4a1",
					"devolverDepositos()": "5298a3c4",
					"finSubasta()": "5b31c15c",
					"finalizada()": "ffbfc189",
					"finalizarSubasta()": "0851eac2",
					"listaOfertas(uint256)": "0099c6aa",
					"mejorOferta()": "acfc9f98",
					"ofertar()": "3ec059d7",
					"propietario()": "3c4f81cd",
					"retirarExceso()": "c1902319",
					"verGanador()": "8f9607cb",
					"verHistorial()": "a716ce52"
				}
			},
			"storageLayout": {
				"storage": [
					{
						"astId": 3,
						"contract": "SubastaScroll.sol:SubastaScroll",
						"label": "propietario",
						"offset": 0,
						"slot": "0",
						"type": "t_address"
					},
					{
						"astId": 5,
						"contract": "SubastaScroll.sol:SubastaScroll",
						"label": "finSubasta",
						"offset": 0,
						"slot": "1",
						"type": "t_uint256"
					},
					{
						"astId": 7,
						"contract": "SubastaScroll.sol:SubastaScroll",
						"label": "finalizada",
						"offset": 0,
						"slot": "2",
						"type": "t_bool"
					},
					{
						"astId": 15,
						"contract": "SubastaScroll.sol:SubastaScroll",
						"label": "mejorOferta",
						"offset": 0,
						"slot": "3",
						"type": "t_struct(Oferta)12_storage"
					},
					{
						"astId": 19,
						"contract": "SubastaScroll.sol:SubastaScroll",
						"label": "listaOfertas",
						"offset": 0,
						"slot": "5",
						"type": "t_array(t_struct(Oferta)12_storage)dyn_storage"
					},
					{
						"astId": 23,
						"contract": "SubastaScroll.sol:SubastaScroll",
						"label": "deposito",
						"offset": 0,
						"slot": "6",
						"type": "t_mapping(t_address,t_uint256)"
					},
					{
						"astId": 26,
						"contract": "SubastaScroll.sol:SubastaScroll",
						"label": "costoComision",
						"offset": 0,
						"slot": "7",
						"type": "t_uint256"
					}
				],
				"types": {
					"t_address": {
						"encoding": "inplace",
						"label": "address",
						"numberOfBytes": "20"
					},
					"t_array(t_struct(Oferta)12_storage)dyn_storage": {
						"base": "t_struct(Oferta)12_storage",
						"encoding": "dynamic_array",
						"label": "struct SubastaScroll.Oferta[]",
						"numberOfBytes": "32"
					},
					"t_bool": {
						"encoding": "inplace",
						"label": "bool",
						"numberOfBytes": "1"
					},
					"t_mapping(t_address,t_uint256)": {
						"encoding": "mapping",
						"key": "t_address",
						"label": "mapping(address => uint256)",
						"numberOfBytes": "32",
						"value": "t_uint256"
					},
					"t_struct(Oferta)12_storage": {
						"encoding": "inplace",
						"label": "struct SubastaScroll.Oferta",
						"members": [
							{
								"astId": 9,
								"contract": "SubastaScroll.sol:SubastaScroll",
								"label": "ofertante",
								"offset": 0,
								"slot": "0",
								"type": "t_address"
							},
							{
								"astId": 11,
								"contract": "SubastaScroll.sol:SubastaScroll",
								"label": "monto",
								"offset": 0,
								"slot": "1",
								"type": "t_uint256"
							}
						],
						"numberOfBytes": "64"
					},
					"t_uint256": {
						"encoding": "inplace",
						"label": "uint256",
						"numberOfBytes": "32"
					}
				}
			},
			"userdoc": {
				"kind": "user",
				"methods": {},
				"version": 1
			}
		}
	}
}