{
	"SimpleStorage.sol": {
		"SimpleStorage": {
			"abi": [
				{
					"inputs": [],
					"stateMutability": "nonpayable",
					"type": "constructor"
				},
				{
					"inputs": [],
					"name": "getData",
					"outputs": [
						{
							"internalType": "int256",
							"name": "",
							"type": "int256"
						}
					],
					"stateMutability": "view",
					"type": "function"
				},
				{
					"inputs": [
						{
							"internalType": "int256",
							"name": "_storeData",
							"type": "int256"
						}
					],
					"name": "setData",
					"outputs": [],
					"stateMutability": "nonpayable",
					"type": "function"
				}
			],
			"devdoc": {
				"kind": "dev",
				"methods": {},
				"version": 1
			},
			"evm": {
				"assembly": "    /* \"SimpleStorage.sol\":60:561  contract SimpleStorage {... */\n  mstore(0x40, 0x80)\n    /* \"SimpleStorage.sol\":125:174  constructor() {... */\n  callvalue\n  dup1\n  iszero\n  tag_1\n  jumpi\n  revert(0x00, 0x00)\ntag_1:\n  pop\n    /* \"SimpleStorage.sol\":163:166  -11 */\n  0xfffffffffffffffffffffffffffffffffffffffffffffffffffffffffffffff5\n    /* \"SimpleStorage.sol\":150:161  storageData */\n  0x00\n    /* \"SimpleStorage.sol\":150:166  storageData =-11 */\n  dup2\n  swap1\n  sstore\n  pop\n    /* \"SimpleStorage.sol\":60:561  contract SimpleStorage {... */\n  dataSize(sub_0)\n  dup1\n  dataOffset(sub_0)\n  0x00\n  codecopy\n  0x00\n  return\nstop\n\nsub_0: assembly {\n        /* \"SimpleStorage.sol\":60:561  contract SimpleStorage {... */\n      mstore(0x40, 0x80)\n      callvalue\n      dup1\n      iszero\n      tag_1\n      jumpi\n      revert(0x00, 0x00)\n    tag_1:\n      pop\n      jumpi(tag_2, lt(calldatasize, 0x04))\n      shr(0xe0, calldataload(0x00))\n      dup1\n      0x3bc5de30\n      eq\n      tag_3\n      jumpi\n      dup1\n      0xda358a3c\n      eq\n      tag_4\n      jumpi\n    tag_2:\n      revert(0x00, 0x00)\n        /* \"SimpleStorage.sol\":467:554  function getData() external view returns (int256) {... */\n    tag_3:\n      tag_5\n      tag_6\n      jump\t// in\n    tag_5:\n      mload(0x40)\n      tag_7\n      swap2\n      swap1\n      tag_8\n      jump\t// in\n    tag_7:\n      mload(0x40)\n      dup1\n      swap2\n      sub\n      swap1\n      return\n        /* \"SimpleStorage.sol\":347:459  function setData(int256 _storeData) external onlyPositive(_storeData){... */\n    tag_4:\n      tag_9\n      0x04\n      dup1\n      calldatasize\n      sub\n      dup2\n      add\n      swap1\n      tag_10\n      swap2\n      swap1\n      tag_11\n      jump\t// in\n    tag_10:\n      tag_12\n      jump\t// in\n    tag_9:\n      stop\n        /* \"SimpleStorage.sol\":467:554  function getData() external view returns (int256) {... */\n    tag_6:\n        /* \"SimpleStorage.sol\":509:515  int256 */\n      0x00\n        /* \"SimpleStorage.sol\":535:546  storageData */\n      sload(0x00)\n        /* \"SimpleStorage.sol\":528:546  return storageData */\n      swap1\n      pop\n        /* \"SimpleStorage.sol\":467:554  function getData() external view returns (int256) {... */\n      swap1\n      jump\t// out\n        /* \"SimpleStorage.sol\":347:459  function setData(int256 _storeData) external onlyPositive(_storeData){... */\n    tag_12:\n        /* \"SimpleStorage.sol\":405:415  _storeData */\n      dup1\n        /* \"SimpleStorage.sol\":266:267  0 */\n      0x00\n        /* \"SimpleStorage.sol\":249:263  _checkingValue */\n      dup2\n        /* \"SimpleStorage.sol\":249:267  _checkingValue > 0 */\n      sgt\n        /* \"SimpleStorage.sol\":241:289  require(_checkingValue > 0, \"Usted es negativo\") */\n      tag_15\n      jumpi\n      mload(0x40)\n      0x08c379a000000000000000000000000000000000000000000000000000000000\n      dup2\n      mstore\n      0x04\n      add\n      tag_16\n      swap1\n      tag_17\n      jump\t// in\n    tag_16:\n      mload(0x40)\n      dup1\n      swap2\n      sub\n      swap1\n      revert\n    tag_15:\n        /* \"SimpleStorage.sol\":441:451  _storeData */\n      dup2\n        /* \"SimpleStorage.sol\":427:438  storageData */\n      0x00\n        /* \"SimpleStorage.sol\":427:451  storageData = _storeData */\n      dup2\n      swap1\n      sstore\n      pop\n        /* \"SimpleStorage.sol\":347:459  function setData(int256 _storeData) external onlyPositive(_storeData){... */\n      pop\n      pop\n      jump\t// out\n        /* \"#utility.yul\":7:83   */\n    tag_19:\n        /* \"#utility.yul\":43:50   */\n      0x00\n        /* \"#utility.yul\":72:77   */\n      dup2\n        /* \"#utility.yul\":61:77   */\n      swap1\n      pop\n        /* \"#utility.yul\":7:83   */\n      swap2\n      swap1\n      pop\n      jump\t// out\n        /* \"#utility.yul\":89:204   */\n    tag_20:\n        /* \"#utility.yul\":174:197   */\n      tag_32\n        /* \"#utility.yul\":191:196   */\n      dup2\n        /* \"#utility.yul\":174:197   */\n      tag_19\n      jump\t// in\n    tag_32:\n        /* \"#utility.yul\":169:172   */\n      dup3\n        /* \"#utility.yul\":162:198   */\n      mstore\n        /* \"#utility.yul\":89:204   */\n      pop\n      pop\n      jump\t// out\n        /* \"#utility.yul\":210:428   */\n    tag_8:\n        /* \"#utility.yul\":301:305   */\n      0x00\n        /* \"#utility.yul\":339:341   */\n      0x20\n        /* \"#utility.yul\":328:337   */\n      dup3\n        /* \"#utility.yul\":324:342   */\n      add\n        /* \"#utility.yul\":316:342   */\n      swap1\n      pop\n        /* \"#utility.yul\":352:421   */\n      tag_34\n        /* \"#utility.yul\":418:419   */\n      0x00\n        /* \"#utility.yul\":407:416   */\n      dup4\n        /* \"#utility.yul\":403:420   */\n      add\n        /* \"#utility.yul\":394:400   */\n      dup5\n        /* \"#utility.yul\":352:421   */\n      tag_20\n      jump\t// in\n    tag_34:\n        /* \"#utility.yul\":210:428   */\n      swap3\n      swap2\n      pop\n      pop\n      jump\t// out\n        /* \"#utility.yul\":515:632   */\n    tag_22:\n        /* \"#utility.yul\":624:625   */\n      0x00\n        /* \"#utility.yul\":621:622   */\n      0x00\n        /* \"#utility.yul\":614:626   */\n      revert\n        /* \"#utility.yul\":761:881   */\n    tag_24:\n        /* \"#utility.yul\":833:856   */\n      tag_39\n        /* \"#utility.yul\":850:855   */\n      dup2\n        /* \"#utility.yul\":833:856   */\n      tag_19\n      jump\t// in\n    tag_39:\n        /* \"#utility.yul\":826:831   */\n      dup2\n        /* \"#utility.yul\":823:857   */\n      eq\n        /* \"#utility.yul\":813:875   */\n      tag_40\n      jumpi\n        /* \"#utility.yul\":871:872   */\n      0x00\n        /* \"#utility.yul\":868:869   */\n      0x00\n        /* \"#utility.yul\":861:873   */\n      revert\n        /* \"#utility.yul\":813:875   */\n    tag_40:\n        /* \"#utility.yul\":761:881   */\n      pop\n      jump\t// out\n        /* \"#utility.yul\":887:1024   */\n    tag_25:\n        /* \"#utility.yul\":932:937   */\n      0x00\n        /* \"#utility.yul\":970:976   */\n      dup2\n        /* \"#utility.yul\":957:977   */\n      calldataload\n        /* \"#utility.yul\":948:977   */\n      swap1\n      pop\n        /* \"#utility.yul\":986:1018   */\n      tag_42\n        /* \"#utility.yul\":1012:1017   */\n      dup2\n        /* \"#utility.yul\":986:1018   */\n      tag_24\n      jump\t// in\n    tag_42:\n        /* \"#utility.yul\":887:1024   */\n      swap3\n      swap2\n      pop\n      pop\n      jump\t// out\n        /* \"#utility.yul\":1030:1357   */\n    tag_11:\n        /* \"#utility.yul\":1088:1094   */\n      0x00\n        /* \"#utility.yul\":1137:1139   */\n      0x20\n        /* \"#utility.yul\":1125:1134   */\n      dup3\n        /* \"#utility.yul\":1116:1123   */\n      dup5\n        /* \"#utility.yul\":1112:1135   */\n      sub\n        /* \"#utility.yul\":1108:1140   */\n      slt\n        /* \"#utility.yul\":1105:1224   */\n      iszero\n      tag_44\n      jumpi\n        /* \"#utility.yul\":1143:1222   */\n      tag_45\n      tag_22\n      jump\t// in\n    tag_45:\n        /* \"#utility.yul\":1105:1224   */\n    tag_44:\n        /* \"#utility.yul\":1263:1264   */\n      0x00\n        /* \"#utility.yul\":1288:1340   */\n      tag_46\n        /* \"#utility.yul\":1332:1339   */\n      dup5\n        /* \"#utility.yul\":1323:1329   */\n      dup3\n        /* \"#utility.yul\":1312:1321   */\n      dup6\n        /* \"#utility.yul\":1308:1330   */\n      add\n        /* \"#utility.yul\":1288:1340   */\n      tag_25\n      jump\t// in\n    tag_46:\n        /* \"#utility.yul\":1278:1340   */\n      swap2\n      pop\n        /* \"#utility.yul\":1234:1350   */\n      pop\n        /* \"#utility.yul\":1030:1357   */\n      swap3\n      swap2\n      pop\n      pop\n      jump\t// out\n        /* \"#utility.yul\":1363:1532   */\n    tag_26:\n        /* \"#utility.yul\":1447:1458   */\n      0x00\n        /* \"#utility.yul\":1481:1487   */\n      dup3\n        /* \"#utility.yul\":1476:1479   */\n      dup3\n        /* \"#utility.yul\":1469:1488   */\n      mstore\n        /* \"#utility.yul\":1521:1525   */\n      0x20\n        /* \"#utility.yul\":1516:1519   */\n      dup3\n        /* \"#utility.yul\":1512:1526   */\n      add\n        /* \"#utility.yul\":1497:1526   */\n      swap1\n      pop\n        /* \"#utility.yul\":1363:1532   */\n      swap3\n      swap2\n      pop\n      pop\n      jump\t// out\n        /* \"#utility.yul\":1538:1705   */\n    tag_27:\n        /* \"#utility.yul\":1678:1697   */\n      0x5573746564206573206e6567617469766f000000000000000000000000000000\n        /* \"#utility.yul\":1674:1675   */\n      0x00\n        /* \"#utility.yul\":1666:1672   */\n      dup3\n        /* \"#utility.yul\":1662:1676   */\n      add\n        /* \"#utility.yul\":1655:1698   */\n      mstore\n        /* \"#utility.yul\":1538:1705   */\n      pop\n      jump\t// out\n        /* \"#utility.yul\":1711:2077   */\n    tag_28:\n        /* \"#utility.yul\":1853:1856   */\n      0x00\n        /* \"#utility.yul\":1874:1941   */\n      tag_50\n        /* \"#utility.yul\":1938:1940   */\n      0x11\n        /* \"#utility.yul\":1933:1936   */\n      dup4\n        /* \"#utility.yul\":1874:1941   */\n      tag_26\n      jump\t// in\n    tag_50:\n        /* \"#utility.yul\":1867:1941   */\n      swap2\n      pop\n        /* \"#utility.yul\":1950:2043   */\n      tag_51\n        /* \"#utility.yul\":2039:2042   */\n      dup3\n        /* \"#utility.yul\":1950:2043   */\n      tag_27\n      jump\t// in\n    tag_51:\n        /* \"#utility.yul\":2068:2070   */\n      0x20\n        /* \"#utility.yul\":2063:2066   */\n      dup3\n        /* \"#utility.yul\":2059:2071   */\n      add\n        /* \"#utility.yul\":2052:2071   */\n      swap1\n      pop\n        /* \"#utility.yul\":1711:2077   */\n      swap2\n      swap1\n      pop\n      jump\t// out\n        /* \"#utility.yul\":2083:2502   */\n    tag_17:\n        /* \"#utility.yul\":2249:2253   */\n      0x00\n        /* \"#utility.yul\":2287:2289   */\n      0x20\n        /* \"#utility.yul\":2276:2285   */\n      dup3\n        /* \"#utility.yul\":2272:2290   */\n      add\n        /* \"#utility.yul\":2264:2290   */\n      swap1\n      pop\n        /* \"#utility.yul\":2336:2345   */\n      dup2\n        /* \"#utility.yul\":2330:2334   */\n      dup2\n        /* \"#utility.yul\":2326:2346   */\n      sub\n        /* \"#utility.yul\":2322:2323   */\n      0x00\n        /* \"#utility.yul\":2311:2320   */\n      dup4\n        /* \"#utility.yul\":2307:2324   */\n      add\n        /* \"#utility.yul\":2300:2347   */\n      mstore\n        /* \"#utility.yul\":2364:2495   */\n      tag_53\n        /* \"#utility.yul\":2490:2494   */\n      dup2\n        /* \"#utility.yul\":2364:2495   */\n      tag_28\n      jump\t// in\n    tag_53:\n        /* \"#utility.yul\":2356:2495   */\n      swap1\n      pop\n        /* \"#utility.yul\":2083:2502   */\n      swap2\n      swap1\n      pop\n      jump\t// out\n\n    auxdata: 0xa264697066735822122036be7aa64497d3ccd1129fcd62166709689b7c9a769f02817737ddffc6a984c964736f6c634300081e0033\n}\n",
				"bytecode": {
					"linkReferences": {},
					"object": "6080604052348015600e575f5ffd5b507ffffffffffffffffffffffffffffffffffffffffffffffffffffffffffffffff55f819055506101ff806100425f395ff3fe608060405234801561000f575f5ffd5b5060043610610034575f3560e01c80633bc5de3014610038578063da358a3c14610056575b5f5ffd5b610040610072565b60405161004d91906100df565b60405180910390f35b610070600480360381019061006b9190610126565b61007a565b005b5f5f54905090565b805f81136100bd576040517f08c379a00000000000000000000000000000000000000000000000000000000081526004016100b4906101ab565b60405180910390fd5b815f819055505050565b5f819050919050565b6100d9816100c7565b82525050565b5f6020820190506100f25f8301846100d0565b92915050565b5f5ffd5b610105816100c7565b811461010f575f5ffd5b50565b5f81359050610120816100fc565b92915050565b5f6020828403121561013b5761013a6100f8565b5b5f61014884828501610112565b91505092915050565b5f82825260208201905092915050565b7f5573746564206573206e6567617469766f0000000000000000000000000000005f82015250565b5f610195601183610151565b91506101a082610161565b602082019050919050565b5f6020820190508181035f8301526101c281610189565b905091905056fea264697066735822122036be7aa64497d3ccd1129fcd62166709689b7c9a769f02817737ddffc6a984c964736f6c634300081e0033",
					"opcodes": "PUSH1 0x80 PUSH1 0x40 MSTORE CALLVALUE DUP1 ISZERO PUSH1 0xE JUMPI PUSH0 PUSH0 REVERT JUMPDEST POP PUSH32 0xFFFFFFFFFFFFFFFFFFFFFFFFFFFFFFFFFFFFFFFFFFFFFFFFFFFFFFFFFFFFFFF5 PUSH0 DUP2 SWAP1 SSTORE POP PUSH2 0x1FF DUP1 PUSH2 0x42 PUSH0 CODECOPY PUSH0 RETURN INVALID PUSH1 0x80 PUSH1 0x40 MSTORE CALLVALUE DUP1 ISZERO PUSH2 0xF JUMPI PUSH0 PUSH0 REVERT JUMPDEST POP PUSH1 0x4 CALLDATASIZE LT PUSH2 0x34 JUMPI PUSH0 CALLDATALOAD PUSH1 0xE0 SHR DUP1 PUSH4 0x3BC5DE30 EQ PUSH2 0x38 JUMPI DUP1 PUSH4 0xDA358A3C EQ PUSH2 0x56 JUMPI JUMPDEST PUSH0 PUSH0 REVERT JUMPDEST PUSH2 0x40 PUSH2 0x72 JUMP JUMPDEST PUSH1 0x40 MLOAD PUSH2 0x4D SWAP2 SWAP1 PUSH2 0xDF JUMP JUMPDEST PUSH1 0x40 MLOAD DUP1 SWAP2 SUB SWAP1 RETURN JUMPDEST PUSH2 0x70 PUSH1 0x4 DUP1 CALLDATASIZE SUB DUP2 ADD SWAP1 PUSH2 0x6B SWAP2 SWAP1 PUSH2 0x126 JUMP JUMPDEST PUSH2 0x7A JUMP JUMPDEST STOP JUMPDEST PUSH0 PUSH0 SLOAD SWAP1 POP SWAP1 JUMP JUMPDEST DUP1 PUSH0 DUP2 SGT PUSH2 0xBD JUMPI PUSH1 0x40 MLOAD PUSH32 0x8C379A000000000000000000000000000000000000000000000000000000000 DUP2 MSTORE PUSH1 0x4 ADD PUSH2 0xB4 SWAP1 PUSH2 0x1AB JUMP JUMPDEST PUSH1 0x40 MLOAD DUP1 SWAP2 SUB SWAP1 REVERT JUMPDEST DUP2 PUSH0 DUP2 SWAP1 SSTORE POP POP POP JUMP JUMPDEST PUSH0 DUP2 SWAP1 POP SWAP2 SWAP1 POP JUMP JUMPDEST PUSH2 0xD9 DUP2 PUSH2 0xC7 JUMP JUMPDEST DUP3 MSTORE POP POP JUMP JUMPDEST PUSH0 PUSH1 0x20 DUP3 ADD SWAP1 POP PUSH2 0xF2 PUSH0 DUP4 ADD DUP5 PUSH2 0xD0 JUMP JUMPDEST SWAP3 SWAP2 POP POP JUMP JUMPDEST PUSH0 PUSH0 REVERT JUMPDEST PUSH2 0x105 DUP2 PUSH2 0xC7 JUMP JUMPDEST DUP2 EQ PUSH2 0x10F JUMPI PUSH0 PUSH0 REVERT JUMPDEST POP JUMP JUMPDEST PUSH0 DUP2 CALLDATALOAD SWAP1 POP PUSH2 0x120 DUP2 PUSH2 0xFC JUMP JUMPDEST SWAP3 SWAP2 POP POP JUMP JUMPDEST PUSH0 PUSH1 0x20 DUP3 DUP5 SUB SLT ISZERO PUSH2 0x13B JUMPI PUSH2 0x13A PUSH2 0xF8 JUMP JUMPDEST JUMPDEST PUSH0 PUSH2 0x148 DUP5 DUP3 DUP6 ADD PUSH2 0x112 JUMP JUMPDEST SWAP2 POP POP SWAP3 SWAP2 POP POP JUMP JUMPDEST PUSH0 DUP3 DUP3 MSTORE PUSH1 0x20 DUP3 ADD SWAP1 POP SWAP3 SWAP2 POP POP JUMP JUMPDEST PUSH32 0x5573746564206573206E6567617469766F000000000000000000000000000000 PUSH0 DUP3 ADD MSTORE POP JUMP JUMPDEST PUSH0 PUSH2 0x195 PUSH1 0x11 DUP4 PUSH2 0x151 JUMP JUMPDEST SWAP2 POP PUSH2 0x1A0 DUP3 PUSH2 0x161 JUMP JUMPDEST PUSH1 0x20 DUP3 ADD SWAP1 POP SWAP2 SWAP1 POP JUMP JUMPDEST PUSH0 PUSH1 0x20 DUP3 ADD SWAP1 POP DUP2 DUP2 SUB PUSH0 DUP4 ADD MSTORE PUSH2 0x1C2 DUP2 PUSH2 0x189 JUMP JUMPDEST SWAP1 POP SWAP2 SWAP1 POP JUMP INVALID LOG2 PUSH5 0x6970667358 0x22 SLT KECCAK256 CALLDATASIZE 0xBE PUSH27 0xA64497D3CCD1129FCD62166709689B7C9A769F02817737DDFFC6A9 DUP5 0xC9 PUSH5 0x736F6C6343 STOP ADDMOD 0x1E STOP CALLER "
				},
				"gasEstimates": {
					"creation": {
						"codeDepositCost": "102200",
						"executionCost": "22258",
						"totalCost": "124458"
					},
					"external": {
						"getData()": "2409",
						"setData(int256)": "22541"
					}
				},
				"methodIdentifiers": {
					"getData()": "3bc5de30",
					"setData(int256)": "da358a3c"
				}
			},
			"storageLayout": {
				"storage": [
					{
						"astId": 3,
						"contract": "SimpleStorage.sol:SimpleStorage",
						"label": "storageData",
						"offset": 0,
						"slot": "0",
						"type": "t_int256"
					}
				],
				"types": {
					"t_int256": {
						"encoding": "inplace",
						"label": "int256",
						"numberOfBytes": "32"
					}
				}
			},
			"userdoc": {
				"kind": "user",
				"methods": {},
				"version": 1
			}
		}
	}
}