{
	"data": {
		"bytecode": {
			"linkReferences": {},
			"object": "60806040523360015f6101000a81548173ffffffffffffffffffffffffffffffffffffffff021916908373ffffffffffffffffffffffffffffffffffffffff160217905550610671806100515f395ff3fe608060405234801561000f575f5ffd5b506004361061007b575f3560e01c80636f322f1c116100595780636f322f1c146100b157806388aa112b146100cf578063cb737b50146100d9578063dc75bec7146100f85761007b565b80634eeca0761461007f57806361bc221a1461008957806365eaca04146100a7575b5f5ffd5b610087610116565b005b61009161012d565b60405161009e919061036a565b60405180910390f35b6100af610132565b005b6100b961017d565b6040516100c6919061039f565b60405180910390f35b6100d76101a6565b005b6100e16102b5565b6040516100ef9291906103d2565b60405180910390f35b6101006102e2565b60405161010d91906103f9565b60405180910390f35b5f600114801561012a5750610129610334565b5b50565b5f5481565b5f3390508073ffffffffffffffffffffffffffffffffffffffff166108fc4790811502906040515f60405180830381858888f19350505050158015610179573d5f5f3e3d5ffd5b5050565b5f5f600161018b575f61018e565b60015b60ff61019a919061044b565b60ff1690508091505090565b3373ffffffffffffffffffffffffffffffffffffffff1660015f9054906101000a900473ffffffffffffffffffffffffffffffffffffffff1673ffffffffffffffffffffffffffffffffffffffff1614610235576040517f08c379a000000000000000000000000000000000000000000000000000000000815260040161022c906104d9565b60405180910390fd5b5f3390505f15158173ffffffffffffffffffffffffffffffffffffffff166108fc4790811502906040515f60405180830381858888f193505050501515036102b2576040517f08c379a00000000000000000000000000000000000000000000000000000000081526004016102a990610541565b60405180910390fd5b50565b5f5f7fffffffffffffffffffffffffffffffffffffffffffffffffffffffffffffff80607f915091509091565b5f7fffffffffffffffffffffffffffffffffffffffffffffffffffffffffffffffff7fffffffffffffffffffffffffffffffffffffffffffffffffffffffffffffff8061032f919061058c565b905090565b5f5f5f815480929190610346906105f4565b91905055506001905090565b5f819050919050565b61036481610352565b82525050565b5f60208201905061037d5f83018461035b565b92915050565b5f61ffff82169050919050565b61039981610383565b82525050565b5f6020820190506103b25f830184610390565b92915050565b5f815f0b9050919050565b6103cc816103b8565b82525050565b5f6040820190506103e55f8301856103c3565b6103f260208301846103c3565b9392505050565b5f60208201905061040c5f8301846103c3565b92915050565b5f60ff82169050919050565b7f4e487b71000000000000000000000000000000000000000000000000000000005f52601160045260245ffd5b5f61045582610412565b915061046083610412565b9250828201905060ff8111156104795761047861041e565b5b92915050565b5f82825260208201905092915050565b7f4e6f206572657320656c206f776e6572000000000000000000000000000000005f82015250565b5f6104c360108361047f565b91506104ce8261048f565b602082019050919050565b5f6020820190508181035f8301526104f0816104b7565b9050919050565b7f46616c6c6f20656c20656e76696f0000000000000000000000000000000000005f82015250565b5f61052b600e8361047f565b9150610536826104f7565b602082019050919050565b5f6020820190508181035f8301526105588161051f565b9050919050565b7f4e487b71000000000000000000000000000000000000000000000000000000005f52601260045260245ffd5b5f610596826103b8565b91506105a1836103b8565b9250826105b1576105b061055f565b5b60015f0383147fffffffffffffffffffffffffffffffffffffffffffffffffffffffffffffff80831416156105e9576105e861041e565b5b828205905092915050565b5f6105fe82610352565b91507fffffffffffffffffffffffffffffffffffffffffffffffffffffffffffffffff82036106305761062f61041e565b5b60018201905091905056fea26469706673582212209753ac74458e84f0b3c3b141c123701ef2657b18e9fcfe2dac05182e8fa1c88d64736f6c634300081e0033",
			"opcodes": "PUSH1 0x80 PUSH1 0x40 MSTORE CALLER PUSH1 0x1 PUSH0 PUSH2 0x100 EXP DUP2 SLOAD DUP2 PUSH20 0xFFFFFFFFFFFFFFFFFFFFFFFFFFFFFFFFFFFFFFFF MUL NOT AND SWAP1 DUP4 PUSH20 0xFFFFFFFFFFFFFFFFFFFFFFFFFFFFFFFFFFFFFFFF AND MUL OR SWAP1 SSTORE POP PUSH2 0x671 DUP1 PUSH2 0x51 PUSH0 CODECOPY PUSH0 RETURN INVALID PUSH1 0x80 PUSH1 0x40 MSTORE CALLVALUE DUP1 ISZERO PUSH2 0xF JUMPI PUSH0 PUSH0 REVERT JUMPDEST POP PUSH1 0x4 CALLDATASIZE LT PUSH2 0x7B JUMPI PUSH0 CALLDATALOAD PUSH1 0xE0 SHR DUP1 PUSH4 0x6F322F1C GT PUSH2 0x59 JUMPI DUP1 PUSH4 0x6F322F1C EQ PUSH2 0xB1 JUMPI DUP1 PUSH4 0x88AA112B EQ PUSH2 0xCF JUMPI DUP1 PUSH4 0xCB737B50 EQ PUSH2 0xD9 JUMPI DUP1 PUSH4 0xDC75BEC7 EQ PUSH2 0xF8 JUMPI PUSH2 0x7B JUMP JUMPDEST DUP1 PUSH4 0x4EECA076 EQ PUSH2 0x7F JUMPI DUP1 PUSH4 0x61BC221A EQ PUSH2 0x89 JUMPI DUP1 PUSH4 0x65EACA04 EQ PUSH2 0xA7 JUMPI JUMPDEST PUSH0 PUSH0 REVERT JUMPDEST PUSH2 0x87 PUSH2 0x116 JUMP JUMPDEST STOP JUMPDEST PUSH2 0x91 PUSH2 0x12D JUMP JUMPDEST PUSH1 0x40 MLOAD PUSH2 0x9E SWAP2 SWAP1 PUSH2 0x36A JUMP JUMPDEST PUSH1 0x40 MLOAD DUP1 SWAP2 SUB SWAP1 RETURN JUMPDEST PUSH2 0xAF PUSH2 0x132 JUMP JUMPDEST STOP JUMPDEST PUSH2 0xB9 PUSH2 0x17D JUMP JUMPDEST PUSH1 0x40 MLOAD PUSH2 0xC6 SWAP2 SWAP1 PUSH2 0x39F JUMP JUMPDEST PUSH1 0x40 MLOAD DUP1 SWAP2 SUB SWAP1 RETURN JUMPDEST PUSH2 0xD7 PUSH2 0x1A6 JUMP JUMPDEST STOP JUMPDEST PUSH2 0xE1 PUSH2 0x2B5 JUMP JUMPDEST PUSH1 0x40 MLOAD PUSH2 0xEF SWAP3 SWAP2 SWAP1 PUSH2 0x3D2 JUMP JUMPDEST PUSH1 0x40 MLOAD DUP1 SWAP2 SUB SWAP1 RETURN JUMPDEST PUSH2 0x100 PUSH2 0x2E2 JUMP JUMPDEST PUSH1 0x40 MLOAD PUSH2 0x10D SWAP2 SWAP1 PUSH2 0x3F9 JUMP JUMPDEST PUSH1 0x40 MLOAD DUP1 SWAP2 SUB SWAP1 RETURN JUMPDEST PUSH0 PUSH1 0x1 EQ DUP1 ISZERO PUSH2 0x12A JUMPI POP PUSH2 0x129 PUSH2 0x334 JUMP JUMPDEST JUMPDEST POP JUMP JUMPDEST PUSH0 SLOAD DUP2 JUMP JUMPDEST PUSH0 CALLER SWAP1 POP DUP1 PUSH20 0xFFFFFFFFFFFFFFFFFFFFFFFFFFFFFFFFFFFFFFFF AND PUSH2 0x8FC SELFBALANCE SWAP1 DUP2 ISZERO MUL SWAP1 PUSH1 0x40 MLOAD PUSH0 PUSH1 0x40 MLOAD DUP1 DUP4 SUB DUP2 DUP6 DUP9 DUP9 CALL SWAP4 POP POP POP POP ISZERO DUP1 ISZERO PUSH2 0x179 JUMPI RETURNDATASIZE PUSH0 PUSH0 RETURNDATACOPY RETURNDATASIZE PUSH0 REVERT JUMPDEST POP POP JUMP JUMPDEST PUSH0 PUSH0 PUSH1 0x1 PUSH2 0x18B JUMPI PUSH0 PUSH2 0x18E JUMP JUMPDEST PUSH1 0x1 JUMPDEST PUSH1 0xFF PUSH2 0x19A SWAP2 SWAP1 PUSH2 0x44B JUMP JUMPDEST PUSH1 0xFF AND SWAP1 POP DUP1 SWAP2 POP POP SWAP1 JUMP JUMPDEST CALLER PUSH20 0xFFFFFFFFFFFFFFFFFFFFFFFFFFFFFFFFFFFFFFFF AND PUSH1 0x1 PUSH0 SWAP1 SLOAD SWAP1 PUSH2 0x100 EXP SWAP1 DIV PUSH20 0xFFFFFFFFFFFFFFFFFFFFFFFFFFFFFFFFFFFFFFFF AND PUSH20 0xFFFFFFFFFFFFFFFFFFFFFFFFFFFFFFFFFFFFFFFF AND EQ PUSH2 0x235 JUMPI PUSH1 0x40 MLOAD PUSH32 0x8C379A000000000000000000000000000000000000000000000000000000000 DUP2 MSTORE PUSH1 0x4 ADD PUSH2 0x22C SWAP1 PUSH2 0x4D9 JUMP JUMPDEST PUSH1 0x40 MLOAD DUP1 SWAP2 SUB SWAP1 REVERT JUMPDEST PUSH0 CALLER SWAP1 POP PUSH0 ISZERO ISZERO DUP2 PUSH20 0xFFFFFFFFFFFFFFFFFFFFFFFFFFFFFFFFFFFFFFFF AND PUSH2 0x8FC SELFBALANCE SWAP1 DUP2 ISZERO MUL SWAP1 PUSH1 0x40 MLOAD PUSH0 PUSH1 0x40 MLOAD DUP1 DUP4 SUB DUP2 DUP6 DUP9 DUP9 CALL SWAP4 POP POP POP POP ISZERO ISZERO SUB PUSH2 0x2B2 JUMPI PUSH1 0x40 MLOAD PUSH32 0x8C379A000000000000000000000000000000000000000000000000000000000 DUP2 MSTORE PUSH1 0x4 ADD PUSH2 0x2A9 SWAP1 PUSH2 0x541 JUMP JUMPDEST PUSH1 0x40 MLOAD DUP1 SWAP2 SUB SWAP1 REVERT JUMPDEST POP JUMP JUMPDEST PUSH0 PUSH0 PUSH32 0xFFFFFFFFFFFFFFFFFFFFFFFFFFFFFFFFFFFFFFFFFFFFFFFFFFFFFFFFFFFFFF80 PUSH1 0x7F SWAP2 POP SWAP2 POP SWAP1 SWAP2 JUMP JUMPDEST PUSH0 PUSH32 0xFFFFFFFFFFFFFFFFFFFFFFFFFFFFFFFFFFFFFFFFFFFFFFFFFFFFFFFFFFFFFFFF PUSH32 0xFFFFFFFFFFFFFFFFFFFFFFFFFFFFFFFFFFFFFFFFFFFFFFFFFFFFFFFFFFFFFF80 PUSH2 0x32F SWAP2 SWAP1 PUSH2 0x58C JUMP JUMPDEST SWAP1 POP SWAP1 JUMP JUMPDEST PUSH0 PUSH0 PUSH0 DUP2 SLOAD DUP1 SWAP3 SWAP2 SWAP1 PUSH2 0x346 SWAP1 PUSH2 0x5F4 JUMP JUMPDEST SWAP2 SWAP1 POP SSTORE POP PUSH1 0x1 SWAP1 POP SWAP1 JUMP JUMPDEST PUSH0 DUP2 SWAP1 POP SWAP2 SWAP1 POP JUMP JUMPDEST PUSH2 0x364 DUP2 PUSH2 0x352 JUMP JUMPDEST DUP3 MSTORE POP POP JUMP JUMPDEST PUSH0 PUSH1 0x20 DUP3 ADD SWAP1 POP PUSH2 0x37D PUSH0 DUP4 ADD DUP5 PUSH2 0x35B JUMP JUMPDEST SWAP3 SWAP2 POP POP JUMP JUMPDEST PUSH0 PUSH2 0xFFFF DUP3 AND SWAP1 POP SWAP2 SWAP1 POP JUMP JUMPDEST PUSH2 0x399 DUP2 PUSH2 0x383 JUMP JUMPDEST DUP3 MSTORE POP POP JUMP JUMPDEST PUSH0 PUSH1 0x20 DUP3 ADD SWAP1 POP PUSH2 0x3B2 PUSH0 DUP4 ADD DUP5 PUSH2 0x390 JUMP JUMPDEST SWAP3 SWAP2 POP POP JUMP JUMPDEST PUSH0 DUP2 PUSH0 SIGNEXTEND SWAP1 POP SWAP2 SWAP1 POP JUMP JUMPDEST PUSH2 0x3CC DUP2 PUSH2 0x3B8 JUMP JUMPDEST DUP3 MSTORE POP POP JUMP JUMPDEST PUSH0 PUSH1 0x40 DUP3 ADD SWAP1 POP PUSH2 0x3E5 PUSH0 DUP4 ADD DUP6 PUSH2 0x3C3 JUMP JUMPDEST PUSH2 0x3F2 PUSH1 0x20 DUP4 ADD DUP5 PUSH2 0x3C3 JUMP JUMPDEST SWAP4 SWAP3 POP POP POP JUMP JUMPDEST PUSH0 PUSH1 0x20 DUP3 ADD SWAP1 POP PUSH2 0x40C PUSH0 DUP4 ADD DUP5 PUSH2 0x3C3 JUMP JUMPDEST SWAP3 SWAP2 POP POP JUMP JUMPDEST PUSH0 PUSH1 0xFF DUP3 AND SWAP1 POP SWAP2 SWAP1 POP JUMP JUMPDEST PUSH32 0x4E487B7100000000000000000000000000000000000000000000000000000000 PUSH0 MSTORE PUSH1 0x11 PUSH1 0x4 MSTORE PUSH1 0x24 PUSH0 REVERT JUMPDEST PUSH0 PUSH2 0x455 DUP3 PUSH2 0x412 JUMP JUMPDEST SWAP2 POP PUSH2 0x460 DUP4 PUSH2 0x412 JUMP JUMPDEST SWAP3 POP DUP3 DUP3 ADD SWAP1 POP PUSH1 0xFF DUP2 GT ISZERO PUSH2 0x479 JUMPI PUSH2 0x478 PUSH2 0x41E JUMP JUMPDEST JUMPDEST SWAP3 SWAP2 POP POP JUMP JUMPDEST PUSH0 DUP3 DUP3 MSTORE PUSH1 0x20 DUP3 ADD SWAP1 POP SWAP3 SWAP2 POP POP JUMP JUMPDEST PUSH32 0x4E6F206572657320656C206F776E657200000000000000000000000000000000 PUSH0 DUP3 ADD MSTORE POP JUMP JUMPDEST PUSH0 PUSH2 0x4C3 PUSH1 0x10 DUP4 PUSH2 0x47F JUMP JUMPDEST SWAP2 POP PUSH2 0x4CE DUP3 PUSH2 0x48F JUMP JUMPDEST PUSH1 0x20 DUP3 ADD SWAP1 POP SWAP2 SWAP1 POP JUMP JUMPDEST PUSH0 PUSH1 0x20 DUP3 ADD SWAP1 POP DUP2 DUP2 SUB PUSH0 DUP4 ADD MSTORE PUSH2 0x4F0 DUP2 PUSH2 0x4B7 JUMP JUMPDEST SWAP1 POP SWAP2 SWAP1 POP JUMP JUMPDEST PUSH32 0x46616C6C6F20656C20656E76696F000000000000000000000000000000000000 PUSH0 DUP3 ADD MSTORE POP JUMP JUMPDEST PUSH0 PUSH2 0x52B PUSH1 0xE DUP4 PUSH2 0x47F JUMP JUMPDEST SWAP2 POP PUSH2 0x536 DUP3 PUSH2 0x4F7 JUMP JUMPDEST PUSH1 0x20 DUP3 ADD SWAP1 POP SWAP2 SWAP1 POP JUMP JUMPDEST PUSH0 PUSH1 0x20 DUP3 ADD SWAP1 POP DUP2 DUP2 SUB PUSH0 DUP4 ADD MSTORE PUSH2 0x558 DUP2 PUSH2 0x51F JUMP JUMPDEST SWAP1 POP SWAP2 SWAP1 POP JUMP JUMPDEST PUSH32 0x4E487B7100000000000000000000000000000000000000000000000000000000 PUSH0 MSTORE PUSH1 0x12 PUSH1 0x4 MSTORE PUSH1 0x24 PUSH0 REVERT JUMPDEST PUSH0 PUSH2 0x596 DUP3 PUSH2 0x3B8 JUMP JUMPDEST SWAP2 POP PUSH2 0x5A1 DUP4 PUSH2 0x3B8 JUMP JUMPDEST SWAP3 POP DUP3 PUSH2 0x5B1 JUMPI PUSH2 0x5B0 PUSH2 0x55F JUMP JUMPDEST JUMPDEST PUSH1 0x1 PUSH0 SUB DUP4 EQ PUSH32 0xFFFFFFFFFFFFFFFFFFFFFFFFFFFFFFFFFFFFFFFFFFFFFFFFFFFFFFFFFFFFFF80 DUP4 EQ AND ISZERO PUSH2 0x5E9 JUMPI PUSH2 0x5E8 PUSH2 0x41E JUMP JUMPDEST JUMPDEST DUP3 DUP3 SDIV SWAP1 POP SWAP3 SWAP2 POP POP JUMP JUMPDEST PUSH0 PUSH2 0x5FE DUP3 PUSH2 0x352 JUMP JUMPDEST SWAP2 POP PUSH32 0xFFFFFFFFFFFFFFFFFFFFFFFFFFFFFFFFFFFFFFFFFFFFFFFFFFFFFFFFFFFFFFFF DUP3 SUB PUSH2 0x630 JUMPI PUSH2 0x62F PUSH2 0x41E JUMP JUMPDEST JUMPDEST PUSH1 0x1 DUP3 ADD SWAP1 POP SWAP2 SWAP1 POP JUMP INVALID LOG2 PUSH5 0x6970667358 0x22 SLT KECCAK256 SWAP8 MSTORE8 0xAC PUSH21 0x458E84F0B3C3B141C123701EF2657B18E9FCFE2DAC SDIV XOR 0x2E DUP16 LOG1 0xC8 DUP14 PUSH5 0x736F6C6343 STOP ADDMOD 0x1E STOP CALLER "
		},
		"gasEstimates": {
			"creation": {
				"codeDepositCost": "329800",
				"executionCost": "24607",
				"totalCost": "354407"
			},
			"external": {
				"Counter()": "174",
				"counter()": "2447",
				"intLimits()": "infinite",
				"overflow2()": "infinite",
				"transferEtherAny()": "infinite",
				"transferEtherOwner()": "infinite",
				"underflow()": "infinite"
			},
			"internal": {
				"count()": "24375"
			}
		},
		"methodIdentifiers": {
			"Counter()": "4eeca076",
			"counter()": "61bc221a",
			"intLimits()": "cb737b50",
			"overflow2()": "6f322f1c",
			"transferEtherAny()": "65eaca04",
			"transferEtherOwner()": "88aa112b",
			"underflow()": "dc75bec7"
		}
	},
	"abi": [
		{
			"inputs": [],
			"stateMutability": "payable",
			"type": "constructor"
		},
		{
			"inputs": [],
			"name": "Counter",
			"outputs": [],
			"stateMutability": "nonpayable",
			"type": "function"
		},
		{
			"inputs": [],
			"name": "counter",
			"outputs": [
				{
					"internalType": "uint256",
					"name": "",
					"type": "uint256"
				}
			],
			"stateMutability": "view",
			"type": "function"
		},
		{
			"inputs": [],
			"name": "intLimits",
			"outputs": [
				{
					"internalType": "int8",
					"name": "",
					"type": "int8"
				},
				{
					"internalType": "int8",
					"name": "",
					"type": "int8"
				}
			],
			"stateMutability": "pure",
			"type": "function"
		},
		{
			"inputs": [],
			"name": "overflow2",
			"outputs": [
				{
					"internalType": "uint16",
					"name": "",
					"type": "uint16"
				}
			],
			"stateMutability": "pure",
			"type": "function"
		},
		{
			"inputs": [],
			"name": "transferEtherAny",
			"outputs": [],
			"stateMutability": "nonpayable",
			"type": "function"
		},
		{
			"inputs": [],
			"name": "transferEtherOwner",
			"outputs": [],
			"stateMutability": "nonpayable",
			"type": "function"
		},
		{
			"inputs": [],
			"name": "underflow",
			"outputs": [
				{
					"internalType": "int8",
					"name": "",
					"type": "int8"
				}
			],
			"stateMutability": "pure",
			"type": "function"
		}
	]
}